{"abi":[{"type":"constructor","inputs":[{"name":"_name","type":"string","internalType":"string"},{"name":"_symbol","type":"string","internalType":"string"},{"name":"_owner","type":"address","internalType":"address"}],"stateMutability":"nonpayable"},{"type":"function","name":"_operatorApprovals","inputs":[{"name":"","type":"address","internalType":"address"},{"name":"","type":"address","internalType":"address"}],"outputs":[{"name":"","type":"bool","internalType":"bool"}],"stateMutability":"view"},{"type":"function","name":"_tokenApprovals","inputs":[{"name":"","type":"uint256","internalType":"uint256"}],"outputs":[{"name":"","type":"address","internalType":"address"}],"stateMutability":"view"},{"type":"function","name":"_tokenAttributes","inputs":[{"name":"","type":"uint256","internalType":"uint256"},{"name":"","type":"uint256","internalType":"uint256"}],"outputs":[{"name":"trait_type","type":"string","internalType":"string"},{"name":"value","type":"string","internalType":"string"}],"stateMutability":"view"},{"type":"function","name":"_tokenOwners","inputs":[{"name":"","type":"uint256","internalType":"uint256"}],"outputs":[{"name":"","type":"address","internalType":"address"}],"stateMutability":"view"},{"type":"function","name":"approve","inputs":[{"name":"to","type":"address","internalType":"address"},{"name":"tokenId","type":"uint256","internalType":"uint256"}],"outputs":[],"stateMutability":"nonpayable"},{"type":"function","name":"balanceOf","inputs":[{"name":"owner","type":"address","internalType":"address"}],"outputs":[{"name":"","type":"uint256","internalType":"uint256"}],"stateMutability":"view"},{"type":"function","name":"burn","inputs":[{"name":"tokenId","type":"uint256","internalType":"uint256"}],"outputs":[],"stateMutability":"nonpayable"},{"type":"function","name":"burnToken","inputs":[{"name":"tokenId","type":"uint256","internalType":"uint256"}],"outputs":[],"stateMutability":"nonpayable"},{"type":"function","name":"getApproved","inputs":[{"name":"tokenId","type":"uint256","internalType":"uint256"}],"outputs":[{"name":"","type":"address","internalType":"address"}],"stateMutability":"view"},{"type":"function","name":"getOwnersTokensAll","inputs":[{"name":"user","type":"address","internalType":"address"}],"outputs":[{"name":"","type":"tuple[]","internalType":"struct DynamicNFT.Token[]","components":[{"name":"tokenId","type":"uint256","internalType":"uint256"},{"name":"tokenName","type":"string","internalType":"string"},{"name":"tokenURI","type":"string","internalType":"string"},{"name":"tokenImageURI","type":"string","internalType":"string"},{"name":"description","type":"string","internalType":"string"},{"name":"attributes","type":"tuple[]","internalType":"struct DynamicNFT.Attribute[]","components":[{"name":"trait_type","type":"string","internalType":"string"},{"name":"value","type":"string","internalType":"string"}]}]}],"stateMutability":"view"},{"type":"function","name":"getTokenOwner","inputs":[{"name":"tokenId","type":"uint256","internalType":"uint256"}],"outputs":[{"name":"","type":"address","internalType":"address"}],"stateMutability":"view"},{"type":"function","name":"isApprovedForAll","inputs":[{"name":"owner","type":"address","internalType":"address"},{"name":"operator","type":"address","internalType":"address"}],"outputs":[{"name":"","type":"bool","internalType":"bool"}],"stateMutability":"view"},{"type":"function","name":"mintNFT","inputs":[{"name":"recipient","type":"address","internalType":"address"},{"name":"_tokenURI","type":"string","internalType":"string"},{"name":"_tokenImageURI","type":"string","internalType":"string"},{"name":"tokenName","type":"string","internalType":"string"},{"name":"description","type":"string","internalType":"string"},{"name":"keys","type":"string[5]","internalType":"string[5]"},{"name":"values","type":"string[5]","internalType":"string[5]"}],"outputs":[],"stateMutability":"nonpayable"},{"type":"function","name":"name","inputs":[],"outputs":[{"name":"","type":"string","internalType":"string"}],"stateMutability":"view"},{"type":"function","name":"owner","inputs":[],"outputs":[{"name":"","type":"address","internalType":"address"}],"stateMutability":"view"},{"type":"function","name":"ownerOf","inputs":[{"name":"tokenId","type":"uint256","internalType":"uint256"}],"outputs":[{"name":"","type":"address","internalType":"address"}],"stateMutability":"view"},{"type":"function","name":"renounceOwnership","inputs":[],"outputs":[],"stateMutability":"nonpayable"},{"type":"function","name":"safeTransferFrom","inputs":[{"name":"from","type":"address","internalType":"address"},{"name":"to","type":"address","internalType":"address"},{"name":"tokenId","type":"uint256","internalType":"uint256"}],"outputs":[],"stateMutability":"nonpayable"},{"type":"function","name":"safeTransferFrom","inputs":[{"name":"from","type":"address","internalType":"address"},{"name":"to","type":"address","internalType":"address"},{"name":"tokenId","type":"uint256","internalType":"uint256"},{"name":"data","type":"bytes","internalType":"bytes"}],"outputs":[],"stateMutability":"nonpayable"},{"type":"function","name":"setApprovalForAll","inputs":[{"name":"operator","type":"address","internalType":"address"},{"name":"approved","type":"bool","internalType":"bool"}],"outputs":[],"stateMutability":"nonpayable"},{"type":"function","name":"supportsInterface","inputs":[{"name":"interfaceId","type":"bytes4","internalType":"bytes4"}],"outputs":[{"name":"","type":"bool","internalType":"bool"}],"stateMutability":"view"},{"type":"function","name":"symbol","inputs":[],"outputs":[{"name":"","type":"string","internalType":"string"}],"stateMutability":"view"},{"type":"function","name":"tokenURI","inputs":[{"name":"tokenId","type":"uint256","internalType":"uint256"}],"outputs":[{"name":"","type":"string","internalType":"string"}],"stateMutability":"view"},{"type":"function","name":"transferFrom","inputs":[{"name":"from","type":"address","internalType":"address"},{"name":"to","type":"address","internalType":"address"},{"name":"tokenId","type":"uint256","internalType":"uint256"}],"outputs":[],"stateMutability":"nonpayable"},{"type":"function","name":"transferOwnership","inputs":[{"name":"newOwner","type":"address","internalType":"address"}],"outputs":[],"stateMutability":"nonpayable"},{"type":"function","name":"updateTokenURI","inputs":[{"name":"tokenId","type":"uint256","internalType":"uint256"},{"name":"updater","type":"address","internalType":"address"},{"name":"newTokenURI","type":"string","internalType":"string"}],"outputs":[],"stateMutability":"nonpayable"},{"type":"event","name":"Approval","inputs":[{"name":"owner","type":"address","indexed":true,"internalType":"address"},{"name":"approved","type":"address","indexed":true,"internalType":"address"},{"name":"tokenId","type":"uint256","indexed":true,"internalType":"uint256"}],"anonymous":false},{"type":"event","name":"ApprovalForAll","inputs":[{"name":"owner","type":"address","indexed":true,"internalType":"address"},{"name":"operator","type":"address","indexed":true,"internalType":"address"},{"name":"approved","type":"bool","indexed":false,"internalType":"bool"}],"anonymous":false},{"type":"event","name":"BatchMetadataUpdate","inputs":[{"name":"_fromTokenId","type":"uint256","indexed":false,"internalType":"uint256"},{"name":"_toTokenId","type":"uint256","indexed":false,"internalType":"uint256"}],"anonymous":false},{"type":"event","name":"MetadataUpdate","inputs":[{"name":"_tokenId","type":"uint256","indexed":false,"internalType":"uint256"}],"anonymous":false},{"type":"event","name":"NFTBurned","inputs":[{"name":"minter","type":"address","indexed":true,"internalType":"address"},{"name":"tokenId","type":"uint256","indexed":true,"internalType":"uint256"}],"anonymous":false},{"type":"event","name":"NFTMinted","inputs":[{"name":"minter","type":"address","indexed":true,"internalType":"address"},{"name":"tokenId","type":"uint256","indexed":true,"internalType":"uint256"},{"name":"tokenURI","type":"string","indexed":false,"internalType":"string"}],"anonymous":false},{"type":"event","name":"NFTTransfer","inputs":[{"name":"from","type":"address","indexed":true,"internalType":"address"},{"name":"to","type":"address","indexed":true,"internalType":"address"},{"name":"tokenId","type":"uint256","indexed":true,"internalType":"uint256"}],"anonymous":false},{"type":"event","name":"NFTUpdated","inputs":[{"name":"minter","type":"address","indexed":true,"internalType":"address"},{"name":"tokenId","type":"uint256","indexed":true,"internalType":"uint256"},{"name":"tokenURI","type":"string","indexed":false,"internalType":"string"}],"anonymous":false},{"type":"event","name":"OwnershipTransferred","inputs":[{"name":"previousOwner","type":"address","indexed":true,"internalType":"address"},{"name":"newOwner","type":"address","indexed":true,"internalType":"address"}],"anonymous":false},{"type":"event","name":"Transfer","inputs":[{"name":"from","type":"address","indexed":true,"internalType":"address"},{"name":"to","type":"address","indexed":true,"internalType":"address"},{"name":"tokenId","type":"uint256","indexed":true,"internalType":"uint256"}],"anonymous":false},{"type":"error","name":"DynamicNFT_EmptyOrNotFittingConditionsPropertyNameOrValue","inputs":[]},{"type":"error","name":"DynamicNFT_InvalidTokenURI","inputs":[]},{"type":"error","name":"DynamicNFT_NotElligibleToMint","inputs":[]},{"type":"error","name":"DynamicNFT_NotElligibleToUpdate","inputs":[{"name":"minter","type":"address","internalType":"address"},{"name":"tokenId","type":"uint256","internalType":"uint256"}]},{"type":"error","name":"ERC721IncorrectOwner","inputs":[{"name":"sender","type":"address","internalType":"address"},{"name":"tokenId","type":"uint256","internalType":"uint256"},{"name":"owner","type":"address","internalType":"address"}]},{"type":"error","name":"ERC721InsufficientApproval","inputs":[{"name":"operator","type":"address","internalType":"address"},{"name":"tokenId","type":"uint256","internalType":"uint256"}]},{"type":"error","name":"ERC721InvalidApprover","inputs":[{"name":"approver","type":"address","internalType":"address"}]},{"type":"error","name":"ERC721InvalidOperator","inputs":[{"name":"operator","type":"address","internalType":"address"}]},{"type":"error","name":"ERC721InvalidOwner","inputs":[{"name":"owner","type":"address","internalType":"address"}]},{"type":"error","name":"ERC721InvalidReceiver","inputs":[{"name":"receiver","type":"address","internalType":"address"}]},{"type":"error","name":"ERC721InvalidSender","inputs":[{"name":"sender","type":"address","internalType":"address"}]},{"type":"error","name":"ERC721NonexistentToken","inputs":[{"name":"tokenId","type":"uint256","internalType":"uint256"}]},{"type":"error","name":"NotTokenOwner","inputs":[{"name":"tokenOwner","type":"address","internalType":"address"}]},{"type":"error","name":"OwnableInvalidOwner","inputs":[{"name":"owner","type":"address","internalType":"address"}]},{"type":"error","name":"OwnableUnauthorizedAccount","inputs":[{"name":"account","type":"address","internalType":"address"}]},{"type":"error","name":"ReentrancyGuardReentrantCall","inputs":[]}],"bytecode":{"object":"0x6080604052346100305761001a6100146101cf565b916101f2565b610022610035565b6149d66106c282396149d690f35b61003b565b60405190565b5f80fd5b601f801991011690565b634e487b7160e01b5f52604160045260245ffd5b906100679061003f565b810190811060018060401b0382111761007f57604052565b610049565b90610097610090610035565b928361005d565b565b5f80fd5b5f80fd5b5f80fd5b5f80fd5b60018060401b0381116100c5576100c160209161003f565b0190565b610049565b90825f9392825e0152565b909291926100ea6100e5826100a9565b610084565b9381855260208501908284011161010657610104926100ca565b565b6100a5565b9080601f8301121561012957816020610126935191016100d5565b90565b6100a1565b60018060a01b031690565b6101429061012e565b90565b61014e81610139565b0361015557565b5f80fd5b9050519061016682610145565b565b90916060828403126101ca575f82015160018060401b0381116101c5578361019191840161010b565b9260208301519060018060401b0382116101c0576101b4816101bd93860161010b565b93604001610159565b90565b61009d565b61009d565b610099565b6101ed615098803803806101e281610084565b928339810190610168565b909192565b906101ff9291909161028d565b565b90565b90565b90565b61021e61021961022392610201565b610207565b610204565b90565b610230600161020a565b90565b5f1b90565b906102445f1991610233565b9181191691161790565b61026261025d61026792610204565b610207565b610204565b90565b90565b9061028261027d6102899261024e565b61026a565b8254610238565b9055565b9061029892916102ac565b6102aa6102a3610226565b600861026d565b565b906102b792916102b9565b565b906102c49291610313565b565b90565b6102dd6102d86102e2926102c6565b610207565b61012e565b90565b6102ee906102c9565b90565b6102fa90610139565b9052565b9190610311905f602085019401906102f1565b565b9161031d916105a1565b8061033861033261032d5f6102e5565b610139565b91610139565b146103485761034690610660565b565b61036b6103545f6102e5565b5f918291631e4fbdf760e01b8352600483016102fe565b0390fd5b5190565b634e487b7160e01b5f52602260045260245ffd5b90600160028304921680156103a7575b60208310146103a257565b610373565b91607f1691610397565b5f5260205f2090565b601f602091010490565b1b90565b919060086103e39102916103dd5f19846103c4565b926103c4565b9181191691161790565b91906104036103fe61040b9361024e565b61026a565b9083546103c8565b9055565b5f90565b6104259161041f61040f565b916103ed565b565b5b818110610433575050565b806104405f600193610413565b01610428565b9190601f8111610456575b505050565b610462610487936103b1565b90602061046e846103ba565b8301931061048f575b610480906103ba565b0190610427565b5f8080610451565b915061048081929050610477565b1c90565b906104b1905f199060080261049d565b191690565b816104c0916104a1565b906002021790565b906104d28161036f565b9060018060401b038211610590576104f4826104ee8554610387565b85610446565b602090601f831160011461052857918091610517935f9261051c575b50506104b6565b90555b565b90915001515f80610510565b601f19831691610537856103b1565b925f5b8181106105785750916002939185600196941061055e575b5050500201905561051a565b61056e910151601f8416906104a1565b90555f8080610552565b9193602060018192878701518155019501920161053a565b610049565b9061059f916104c8565b565b906105af6105b6925f610595565b6001610595565b565b5f1c90565b60018060a01b031690565b6105d46105d9916105b8565b6105bd565b90565b6105e690546105c8565b90565b906105fa60018060a01b0391610233565b9181191691161790565b61061861061361061d9261012e565b610207565b61012e565b90565b61062990610604565b90565b61063590610620565b90565b90565b9061065061064b6106579261062c565b610638565b82546105e9565b9055565b5f0190565b61066a60066105dc565b61067582600661063b565b906106a96106a37f8be0079c531659141344cd1fd0a4f28419497f9722a3daafe3b4186f6b6457e09361062c565b9161062c565b916106b2610035565b806106bc8161065b565b0390a356fe60806040526004361015610013575b611315565b61001d5f356101bc565b806301ffc9a7146101b757806306fdde03146101b2578063081812fc146101ad578063095ea7b3146101a857806323b872dd146101a357806342842e0e1461019e57806342966c68146101995780634a9146d0146101945780636352211e1461018f57806370a082311461018a578063715018a6146101855780637b47ec1a146101805780638da5cb5b1461017b57806392673ff51461017657806395d89b4114610171578063a22cb4651461016c578063a5cd761f14610167578063a7cc013614610162578063b03e4a0f1461015d578063b88d4fde14610158578063c87b56dd14610153578063d7a8274d1461014e578063e985e9c514610149578063edc3bc3f14610144578063eefc002a1461013f5763f2fde38b0361000e576112e2565b6112ab565b611077565b610f94565b610f32565b610cd1565b610c9a565b610b85565b6109a6565b610958565b610924565b61089f565b61086a565b6107b2565b61077f565b61074c565b610717565b6106a2565b61066e565b610509565b6104d5565b6104a1565b610433565b6103a9565b6102f7565b610248565b60e01c90565b60405190565b5f80fd5b5f80fd5b5f80fd5b63ffffffff60e01b1690565b6101e9816101d4565b036101f057565b5f80fd5b90503590610201826101e0565b565b9060208282031261021c57610219915f016101f4565b90565b6101cc565b151590565b61022f90610221565b9052565b9190610246905f60208501940190610226565b565b346102785761027461026361025e366004610203565b61131d565b61026b6101c2565b91829182610233565b0390f35b6101c8565b5f91031261028757565b6101cc565b5190565b60209181520190565b90825f9392825e0152565b601f801991011690565b6102cd6102d66020936102db936102c48161028c565b93848093610290565b95869101610299565b6102a4565b0190565b6102f49160208201915f8184039101526102ae565b90565b346103275761030736600461027d565b610323610312611343565b61031a6101c2565b918291826102df565b0390f35b6101c8565b90565b6103388161032c565b0361033f57565b5f80fd5b905035906103508261032f565b565b9060208282031261036b57610368915f01610343565b90565b6101cc565b60018060a01b031690565b61038490610370565b90565b6103909061037b565b9052565b91906103a7905f60208501940190610387565b565b346103d9576103d56103c46103bf366004610352565b61135c565b6103cc6101c2565b91829182610394565b0390f35b6101c8565b6103e78161037b565b036103ee57565b5f80fd5b905035906103ff826103de565b565b9190604083820312610429578061041d610426925f86016103f2565b93602001610343565b90565b6101cc565b5f0190565b346104625761044c610446366004610401565b9061139c565b6104546101c2565b8061045e8161042e565b0390f35b6101c8565b909160608284031261049c57610499610482845f85016103f2565b9361049081602086016103f2565b93604001610343565b90565b6101cc565b346104d0576104ba6104b4366004610467565b9161144c565b6104c26101c2565b806104cc8161042e565b0390f35b6101c8565b34610504576104ee6104e8366004610467565b91611d14565b6104f66101c2565b806105008161042e565b0390f35b6101c8565b346105375761052161051c366004610352565b611e68565b6105296101c2565b806105338161042e565b0390f35b6101c8565b5f80fd5b5f80fd5b634e487b7160e01b5f52604160045260245ffd5b90610562906102a4565b810190811067ffffffffffffffff82111761057c57604052565b610544565b9061059461058d6101c2565b9283610558565b565b67ffffffffffffffff81116105b4576105b06020916102a4565b0190565b610544565b90825f939282370152565b909291926105d96105d482610596565b610581565b938185526020850190828401116105f5576105f3926105b9565b565b610540565b9080601f8301121561061857816020610615933591016105c4565b90565b61053c565b9160608383031261066957610634825f8501610343565b9261064283602083016103f2565b92604082013567ffffffffffffffff81116106645761066192016105fa565b90565b6101d0565b6101cc565b3461069d5761068761068136600461061d565b9161218e565b61068f6101c2565b806106998161042e565b0390f35b6101c8565b346106d2576106ce6106bd6106b8366004610352565b61219b565b6106c56101c2565b91829182610394565b0390f35b6101c8565b906020828203126106f0576106ed915f016103f2565b90565b6101cc565b6106fe9061032c565b9052565b9190610715905f602085019401906106f5565b565b346107475761074361073261072d3660046106d7565b6121c6565b61073a6101c2565b91829182610702565b0390f35b6101c8565b3461077a5761075c36600461027d565b610764612251565b61076c6101c2565b806107768161042e565b0390f35b6101c8565b346107ad57610797610792366004610352565b61233c565b61079f6101c2565b806107a98161042e565b0390f35b6101c8565b346107e2576107c236600461027d565b6107de6107cd612368565b6107d56101c2565b91829182610394565b0390f35b6101c8565b90565b6107fe6107f96108039261032c565b6107e7565b61032c565b90565b90610810906107ea565b5f5260205260405f2090565b1c90565b60018060a01b031690565b61083b906008610840930261081c565b610820565b90565b9061084e915461082b565b90565b61086790610862600a915f92610806565b610843565b90565b3461089a57610896610885610880366004610352565b610851565b61088d6101c2565b91829182610394565b0390f35b6101c8565b346108cf576108af36600461027d565b6108cb6108ba61237e565b6108c26101c2565b918291826102df565b0390f35b6101c8565b6108dd81610221565b036108e457565b5f80fd5b905035906108f5826108d4565b565b919060408382031261091f578061091361091c925f86016103f2565b936020016108e8565b90565b6101cc565b346109535761093d6109373660046108f7565b906123d9565b6109456101c2565b8061094f8161042e565b0390f35b6101c8565b346109885761098461097361096e366004610352565b61244a565b61097b6101c2565b91829182610394565b0390f35b6101c8565b6109a39061099e600f915f92610806565b610843565b90565b346109d6576109d26109c16109bc366004610352565b61098d565b6109c96101c2565b91829182610394565b0390f35b6101c8565b67ffffffffffffffff81116109f05760200290565b610544565b5f80fd5b929190610a0d610a08826109db565b610581565b936020859202810191838311610a5f5781905b838210610a2e575050505050565b813567ffffffffffffffff8111610a5a57602091610a4f87849387016105fa565b815201910190610a20565b61053c565b6109f5565b9080601f83011215610a7f57610a7c916005906109f9565b90565b61053c565b9060e082820312610b8057610a9b815f84016103f2565b92602083013567ffffffffffffffff8111610b7b5782610abc9185016105fa565b92604081013567ffffffffffffffff8111610b765783610add9183016105fa565b92606082013567ffffffffffffffff8111610b715781610afe9184016105fa565b92608083013567ffffffffffffffff8111610b6c5782610b1f9185016105fa565b9260a081013567ffffffffffffffff8111610b675783610b40918301610a64565b9260c082013567ffffffffffffffff8111610b6257610b5f9201610a64565b90565b6101d0565b6101d0565b6101d0565b6101d0565b6101d0565b6101d0565b6101cc565b34610bba57610ba4610b98366004610a84565b95949094939193612ec7565b610bac6101c2565b80610bb68161042e565b0390f35b6101c8565b67ffffffffffffffff8111610bdd57610bd96020916102a4565b0190565b610544565b90929192610bf7610bf282610bbf565b610581565b93818552602085019082840111610c1357610c11926105b9565b565b610540565b9080601f83011215610c3657816020610c3393359101610be2565b90565b61053c565b90608082820312610c9557610c52815f84016103f2565b92610c6082602085016103f2565b92610c6e8360408301610343565b92606082013567ffffffffffffffff8111610c9057610c8d9201610c18565b90565b6101d0565b6101cc565b34610ccc57610cb6610cad366004610c3b565b92919091612ed8565b610cbe6101c2565b80610cc88161042e565b0390f35b6101c8565b34610d0157610cfd610cec610ce7366004610352565b612efe565b610cf46101c2565b918291826102df565b0390f35b6101c8565b5190565b60209181520190565b60200190565b610d229061032c565b9052565b60209181520190565b610d4e610d57602093610d5c93610d458161028c565b93848093610d26565b95869101610299565b6102a4565b0190565b5190565b60209181520190565b60200190565b610da1916020610d90604083015f8501518482035f860152610d2f565b920151906020818403910152610d2f565b90565b90610dae91610d73565b90565b60200190565b90610dcb610dc483610d60565b8092610d64565b9081610ddc60208302840194610d6d565b925f915b838310610def57505050505090565b90919293946020610e11610e0b83856001950387528951610da4565b97610db1565b9301930191939290610de0565b610e9d9160a0610e8c610e7a610e68610e5660c08601610e445f8901515f890190610d19565b60208801518782036020890152610d2f565b60408701518682036040880152610d2f565b60608601518582036060870152610d2f565b60808501518482036080860152610d2f565b9201519060a0818403910152610db7565b90565b90610eaa91610e1e565b90565b60200190565b90610ec7610ec083610d06565b8092610d0a565b9081610ed860208302840194610d13565b925f915b838310610eeb57505050505090565b90919293946020610f0d610f0783856001950387528951610ea0565b97610ead565b9301930191939290610edc565b610f2f9160208201915f818403910152610eb3565b90565b34610f6257610f5e610f4d610f483660046106d7565b6130a0565b610f556101c2565b91829182610f1a565b0390f35b6101c8565b9190604083820312610f8f5780610f83610f8c925f86016103f2565b936020016103f2565b90565b6101cc565b34610fc557610fc1610fb0610faa366004610f67565b906130e0565b610fb86101c2565b91829182610233565b0390f35b6101c8565b610fde610fd9610fe392610370565b6107e7565b610370565b90565b610fef90610fca565b90565b610ffb90610fe6565b90565b9061100890610ff2565b5f5260205260405f2090565b9061101e90610ff2565b5f5260205260405f2090565b60ff1690565b611040906008611045930261081c565b61102a565b90565b906110539154611030565b90565b61106f6110749261106a600e935f94610ffe565b611014565b611048565b90565b346110a8576110a461109361108d366004610f67565b90611056565b61109b6101c2565b91829182610233565b0390f35b6101c8565b91906040838203126110d557806110c96110d2925f8601610343565b93602001610343565b90565b6101cc565b906110e4906107ea565b5f5260205260405f2090565b634e487b7160e01b5f52603260045260245ffd5b5490565b5f5260205f2090565b61111a81611104565b8210156111345761112c600291611108565b910201905f90565b6110f0565b634e487b7160e01b5f52602260045260245ffd5b906001600283049216801561116d575b602083101461116857565b611139565b91607f169161115d565b5f5260205f2090565b905f929180549061119a6111938361114d565b8094610d26565b916001811690815f146111f157506001146111b5575b505050565b6111c29192939450611177565b915f925b8184106111d957505001905f80806111b0565b600181602092959395548486015201910192906111c6565b92949550505060ff19168252151560200201905f80806111b0565b9061121691611180565b90565b90611239611232926112296101c2565b9384809261120c565b0383610558565b565b6112469060096110da565b9061125082611104565b81101561127c5761126091611111565b509061127960016112725f8501611219565b9301611219565b90565b5f80fd5b909161129a6112a89360408401908482035f8601526102ae565b9160208184039101526102ae565b90565b346112dd576112c46112be3660046110ad565b9061123b565b906112d96112d06101c2565b92839283611280565b0390f35b6101c8565b34611310576112fa6112f53660046106d7565b61316d565b6113026101c2565b8061130c8161042e565b0390f35b6101c8565b5f80fd5b5f90565b61132f90611329611319565b506131a7565b90565b606090565b61134090611219565b90565b61134b611332565b506113555f611337565b90565b5f90565b61136e90611368611358565b506131e7565b90565b90565b61138861138361138d92611371565b6107e7565b610370565b90565b61139990611374565b90565b91906113a78161219b565b836113ba6113b48361037b565b9161037b565b141590816113fe575b506113df576113dd9192906113d75f611390565b91613206565b565b6113fa835f9182916324a1cc3360e21b835260048301610394565b0390fd5b611414915061140e9085906130e0565b15610221565b5f6113c3565b60409061144361144a949695939661143960608401985f850190610387565b60208301906106f5565b0190610387565b565b91908061146961146361145e5f611390565b61037b565b9161037b565b146114c057611481908261147b613216565b9161323f565b918261149561148f8361037b565b9161037b565b0361149f57505050565b6114bc9091925f9384936364283d7b60e01b85526004850161141a565b0390fd5b6114e36114cc5f611390565b5f918291633250574960e11b835260048301610394565b0390fd5b906114f96114f483610596565b610581565b918252565b6115075f6114e7565b90565b6115126114fe565b90565b9061151f90610ff2565b5f5260205260405f2090565b90565b5f5260205f2090565b5490565b61154481611537565b82101561155e5761155660019161152e565b910201905f90565b6110f0565b1b90565b9190600861158291029161157c5f1984611563565b92611563565b9181191691161790565b90565b91906115a56115a06115ad936107ea565b61158c565b908354611567565b9055565b90815491680100000000000000008310156115e157826115d99160016115df9501815561153b565b9061158f565b565b610544565b5f1b90565b906115fc60018060a01b03916115e6565b9181191691161790565b90565b9061161e61161961162592610ff2565b611606565b82546115eb565b9055565b9061163390610ff2565b5f5260205260405f2090565b90565b9061164c90610ff2565b5f5260205260405f2090565b90611662906107ea565b5f5260205260405f2090565b5f5260205f2090565b5490565b61168481611677565b82101561169e5761169660069161166e565b910201905f90565b6110f0565b634e487b7160e01b5f525f60045260245ffd5b5f1c90565b90565b6116ca6116cf916116b6565b6116bb565b90565b6116dc90546116be565b90565b906116eb5f19916115e6565b9181191691161790565b9061170a611705611711926107ea565b61158c565b82546116df565b9055565b61171f905461114d565b90565b601f602091010490565b5f90565b6117429161173c61172c565b9161158f565b565b5b818110611750575050565b8061175d5f600193611730565b01611745565b9190601f8111611773575b505050565b61177f6117a493611177565b90602061178b84611722565b830193106117ac575b61179d90611722565b0190611744565b5f808061176e565b915061179d81929050611794565b906117ca905f199060080261081c565b191690565b816117d9916117ba565b906002021790565b908082146118c0576117f281611715565b9067ffffffffffffffff82116118bb5761181682611810855461114d565b85611763565b5f90601f831160011461184957918091611838935f9261183d575b50506117cf565b90555b565b90915001545f80611831565b90611858601f19841692611177565b9061186285611177565b925f5b8181106118a357509160029391856001969410611889575b5050500201905561183b565b611899910154601f8416906117ba565b90555f808061187d565b91936001806020928787015481550195019201611865565b610544565b5050565b906118ce916117e1565b565b634e487b7160e01b5f52601160045260245ffd5b6118f36118f99193929361032c565b9261032c565b9161190583820261032c565b92818404149015171561191457565b6118d0565b6119249060026118e4565b90565b9061193a905f199060200360080261081c565b8154169055565b905f9161195861195082611177565b9283546117cf565b905555565b919290602082105f146119b657601f8411600114611986576119809293506117cf565b90555b5b565b50906119ac6119b19360016119a361199d85611177565b92611722565b82019101611744565b611941565b611983565b506119ed82936119c7600194611177565b6119e66119d385611722565b820192601f8616806119f8575b50611722565b0190611744565b600202179055611984565b611a0490888603611927565b5f6119e0565b929091680100000000000000008211611a6a576020115f14611a5b57602081105f14611a3f57611a39916117cf565b90555b5b565b60019160ff1916611a4f84611177565b55600202019055611a3c565b60019150600202019055611a3d565b610544565b908154611a7b8161114d565b90818311611aa4575b818310611a92575b50505050565b611a9b9361195d565b5f808080611a8c565b611ab083838387611a0a565b611a84565b5f611abf91611a6f565b565b905f03611ad357611ad190611ab5565b565b6116a3565b5f6001611af192611aeb83808301611ac1565b01611ac1565b565b905f03611b0557611b0390611ad8565b565b6116a3565b5b818110611b16575050565b80611b235f600293611af3565b01611b0b565b9091828110611b38575b505050565b611b56611b50611b4a611b6195611919565b92611919565b92611108565b918201910190611b0a565b5f8080611b33565b90680100000000000000008111611b925781611b87611b9093611104565b90828155611b29565b565b610544565b90808203611ba4575b5050565b60018083611bba5f611bc396015f8601906118c4565b019101906118c4565b5f80611ba0565b90611bd491611b97565b565b818114611c2e57611c02611bfc611bec84611104565b93611bf78585611b69565b611108565b91611108565b5f915b838310611c125750505050565b60028082611c2260019486611bca565b01920192019190611c05565b5050565b90611c3c91611bd6565b565b90808203611c4b575b5050565b60058083611c695f611cb69601611c635f87016116d2565b906116f5565b611c7a6001820160018601906118c4565b611c8b6002820160028601906118c4565b611c9c6003820160038601906118c4565b611cad6004820160048601906118c4565b01910190611c32565b5f80611c47565b9190611cce57611ccc91611c3e565b565b6116a3565b9081549168010000000000000000831015611d035782611cfb916001611d019501815561167b565b90611cbd565b565b610544565b90611d1291611c3e565b565b919091611d2b611d258284906133c0565b15610221565b611e4957611d4481848490611d3e61150a565b92613435565b611d4f83839061139c565b611d6d611d66611d61600b8690611515565b61152b565b83906115b1565b611d8283611d7d600a8590610806565b611609565b611db5611d99611d94600d8690611629565b61163f565b611daf611da8600c8590611642565b8590611658565b90611cd3565b611de9611dce611dc7600c8490611642565b8490611658565b611de4611ddd600c8790611642565b8590611658565b611d08565b611df4818390613636565b91611e31611e2b611e257ffd19e66d1a4315847e95661bab80aff36f6801c5b2eeeca82491034bd7660abe95610ff2565b92610ff2565b926107ea565b92611e3a6101c2565b80611e448161042e565b0390a4565b611e64905f9182916324a1cc3360e21b835260048301610394565b0390fd5b611e8490611e755f611390565b90611e7e613216565b9161323f565b50565b916020611ea8929493611ea160408201965f830190610387565b01906106f5565b565b92919080938094611eba8661244a565b611ecc611ec68361037b565b9161037b565b141580611f06575b611ee65750611ee4939450612064565b565b8590611f025f928392637d8d887360e11b845260048401611e87565b0390fd5b5080611f22611f1c611f175f611390565b61037b565b9161037b565b1415611ed4565b90611f338161028c565b9067ffffffffffffffff8211611ff357611f5782611f51855461114d565b85611763565b602090601f8311600114611f8b57918091611f7a935f92611f7f575b50506117cf565b90555b565b90915001515f80611f73565b601f19831691611f9a85611177565b925f5b818110611fdb57509160029391856001969410611fc1575b50505002019055611f7d565b611fd1910151601f8416906117ba565b90555f8080611fb5565b91936020600181928787015181550195019201611f9d565b610544565b9061200291611f29565b565b61201861201361201d92611371565b6107e7565b61032c565b90565b600161202c910161032c565b90565b5490565b5f5260205f2090565b6120458161202f565b82101561205f57612057600691612033565b910201905f90565b6110f0565b909161207182829061381a565b61209381600261208d612086600c8890611642565b8690611658565b01611ff8565b61209c5f612004565b5b806120c36120bd6120b86120b3600d8990611629565b61202f565b61032c565b9161032c565b1015612186576120ea5f6120e36120dc600d8890611629565b849061203c565b50016116d2565b6120fc6120f68561032c565b9161032c565b1461210f5761210a90612020565b61209d565b61213590600261212e8495969492612129600d8790611629565b61203c565b5001611ff8565b5b91909161218161216f6121697f51c048cc4b1abd5e706cec09236de72e247e8108b9f7e608bd2f7b41451334e693610ff2565b936107ea565b936121786101c2565b918291826102df565b0390a3565b509091612136565b906121999291611eaa565b565b6121ad906121a7611358565b5061386b565b90565b906121ba90610ff2565b5f5260205260405f2090565b6121ce61172c565b50806121ea6121e46121df5f611390565b61037b565b9161037b565b14612205576121fd6122029160036121b0565b6116d2565b90565b6122286122115f611390565b5f9182916322718ad960e21b835260048301610394565b0390fd5b6122346138c1565b61223c61223e565b565b61224f61224a5f611390565b61390f565b565b61225961222c565b565b3381906122678261244a565b6122796122738361037b565b9161037b565b1415806122b0575b612292575050612290906122d3565b565b6122ac5f928392637d8d887360e11b845260048401611e87565b0390fd5b50806122cc6122c66122c15f611390565b61037b565b9161037b565b1415612281565b6122e66122df8261219b565b8290613636565b6122ef81613970565b339061232461231e7fd6a6bcd88cdc4656d5f4e14e7dfbc9bc3f2f9811f8d6b508f3bee7d999d4d41c93610ff2565b916107ea565b9161232d6101c2565b806123378161042e565b0390a3565b6123459061225b565b565b612353612358916116b6565b610820565b90565b6123659054612347565b90565b612370611358565b5061237b600661235b565b90565b612386611332565b506123916001611337565b90565b906123a060ff916115e6565b9181191691161790565b6123b390610221565b90565b90565b906123ce6123c96123d5926123aa565b6123b6565b8254612394565b9055565b906123f9816123f46123ed600e3390610ffe565b8590611014565b6123b9565b3391909161244561243361242d7f17307eab39ab6107e8899845ad3d59bd9653f200f220920489ca2b5937696c3193610ff2565b93610ff2565b9361243c6101c2565b91829182610233565b0390a3565b61245c90612456611358565b5061219b565b90565b906124769695949392916124716139f9565b612480565b61247e613a5e565b565b959493929190866124a161249b6124965f611390565b61037b565b9161037b565b146124b1576124af966129eb565b565b5f63706d71cd60e01b8152806124c96004820161042e565b0390fd5b6124d69061032c565b5f1981146124e45760010190565b6118d0565b90565b6125006124fb612505926124e9565b6107e7565b61032c565b90565b90565b61251f61251a61252492612508565b6107e7565b61032c565b90565b90565b61253e61253961254392612527565b6107e7565b61032c565b90565b90565b61255d61255861256292612546565b6107e7565b61032c565b90565b60e01b90565b90505190612578826108d4565b565b9060208282031261259357612590915f0161256b565b90565b6101cc565b60209181520190565b6125c06125c96020936125ce936125b78161028c565b93848093612598565b95869101610299565b6102a4565b0190565b5f7f697066733a2f2f00000000000000000000000000000000000000000000000000910152565b6126066007602092612598565b61260f816125d2565b0190565b61262b6126399260408301908382035f8501526125a1565b9060208183039101526125f9565b90565b6126446101c2565b3d5f823e3d90fd5b50600590565b9061265c8261264c565b81101561266a576020020190565b6110f0565b90565b61268661268161268b9261266f565b6107e7565b61032c565b90565b90565b6126a56126a06126aa9261268e565b6107e7565b61032c565b90565b90565b6126ba6040610581565b90565b52565b5f5260205f2090565b5490565b6126d6816126c9565b8210156126f0576126e86002916126c0565b910201905f90565b6110f0565b5190565b906127246020600161272a9461271c5f82016127165f88016126f5565b90611ff8565b0192016126f5565b90611ff8565b565b919061273d5761273b916126f9565b565b6116a3565b9081549168010000000000000000831015612772578261276a916001612770950181556126cd565b9061272c565b565b610544565b61278160c0610581565b90565b9061278e9061032c565b9052565b67ffffffffffffffff81116127aa5760208091020190565b610544565b906127c16127bc83612792565b610581565b918252565b6127d06040610581565b90565b9061280a61280160016127e46127c6565b946127fb6127f35f8301611219565b5f88016126bd565b01611219565b602084016126bd565b565b612815906127d3565b90565b9061282282611104565b61282b816127af565b926128396020850191611108565b5f915b8383106128495750505050565b600260206001926128598561280c565b81520192019201919061283c565b61287090612818565b90565b52565b612880905161032c565b90565b5190565b5190565b90612895916126f9565b565b6128bc6128b66128a684610d60565b936128b18585611b69565b610d6d565b91611108565b5f915b8383106128cc5750505050565b60026020826128e56128df600195612887565b8661288b565b019201920191906128bf565b906128fb91612897565b565b9061298c60a06005612992946129205f820161291a5f8801612876565b906116f5565b61293960018201612933602088016126f5565b90611ff8565b6129526002820161294c604088016126f5565b90611ff8565b61296b60038201612965606088016126f5565b90611ff8565b6129846004820161297e608088016126f5565b90611ff8565b019201612883565b906128f1565b565b9061299e916128fd565b565b91906129b1576129af916128fd565b565b6116a3565b90815491680100000000000000008310156129e657826129de9160016129e49501815561167b565b906129a0565b565b610544565b90919593949692612a0e612a07612a0260106116d2565b6124cd565b60106116f5565b612a1860106116d2565b95612a42612a3c836003612a36612a306019926124ec565b9161250b565b91613ad7565b15610221565b8015612e97575b612e7b57612a8f60208573__$c5c2169d14f6ec243ae58c3481e5a26ce7$__612a84633fb18aec612a786101c2565b95869485938493612565565b835260048301612613565b03915af48015612e7657612aab915f91612e48575b5015610221565b8015612db1575b612d9557612ac1838890613bda565b612acc87859061381a565b612ae183612adc600a8a90610806565b611609565b612aff612af8612af3600b8690611515565b61152b565b88906115b1565b612b085f612004565b5b80612b24612b1e612b198d61264c565b61032c565b9161032c565b1015612c2057612b5e612b58612b3b8c8490612652565b516001612b52612b4c60119261252a565b91612672565b91613ad7565b15610221565b80612be7575b612bcb57612bc690612bc1612b83612b7e60098c906110da565b6126ad565b612b8e8d8490612652565b5190612bbc612b9e8c8690612652565b51612bb3612baa6126b0565b945f86016126bd565b602084016126bd565b612742565b612020565b612b09565b5f6328217bcd60e01b815280612be36004820161042e565b0390fd5b50612c1b612c15612bf9898490612652565b515f612c0f612c09601892612004565b91612691565b91613ad7565b15610221565b612b64565b50612d4594985082955081612d3288612d2984612d208d612d17859f8c9f8d9c612cdd5f9f5f90612d409f612d379f91612cb4612ce497612cab612cb994612ca2612cc297612c99612ce99e612c90612c7f889a9294969860096110da565b99612c88612777565b9d8e01612784565b60208c016126bd565b60408a016126bd565b606088016126bd565b608086016126bd565b612867565b60a08301612873565b612cd8612cd1600c8590611642565b8c90611658565b612994565b600d611629565b61163f565b9a612d0e612cfd889a9294969860096110da565b99612d06612777565b9e8f01612784565b60208d016126bd565b60408b016126bd565b606089016126bd565b608087016126bd565b612867565b60a08401612873565b6129b6565b919091612d90612d7e612d787fd35bb95e09c04b219e35047ce7b7b300e3384264ef84a40456943dbc0fc17c1493610ff2565b936107ea565b93612d876101c2565b918291826102df565b0390a3565b5f6374f46ee160e11b815280612dad6004820161042e565b0390fd5b50612df460208973__$c5c2169d14f6ec243ae58c3481e5a26ce7$__612de9633fb18aec612ddd6101c2565b95869485938493612565565b835260048301612613565b03915af48015612e4357612e10915f91612e15575b5015610221565b612ab2565b612e36915060203d8111612e3c575b612e2e8183610558565b81019061257a565b5f612e09565b503d612e24565b61263c565b612e69915060203d8111612e6f575b612e618183610558565b81019061257a565b5f612aa4565b503d612e57565b61263c565b5f6328217bcd60e01b815280612e936004820161042e565b0390fd5b50612ec2612ebc826001612eb6612eb061012c9261252a565b91612549565b91613ad7565b15610221565b612a49565b90612ed696959493929161245f565b565b91612efc9391612eea8482849161144c565b612ef2613216565b9390919293613d03565b565b612f06611332565b50612f108161386b565b612f2a612f24612f1f5f611390565b61037b565b9161037b565b14612f3b57612f3890613e9b565b90565b612f56905f918291637e27328960e01b835260048301610702565b0390fd5b606090565b67ffffffffffffffff8111612f775760208091020190565b610544565b90612f8e612f8983612f5f565b610581565b918252565b612f9d60c0610581565b90565b9061303761302e6005612fb1612f93565b94612fc8612fc05f83016116d2565b5f8801612784565b612fe0612fd760018301611219565b602088016126bd565b612ff8612fef60028301611219565b604088016126bd565b61301061300760038301611219565b606088016126bd565b61302861301f60048301611219565b608088016126bd565b01612818565b60a08401612873565b565b61304290612fa0565b90565b9061304f8261202f565b61305881612f7c565b926130666020850191612033565b5f915b8383106130765750505050565b6006602060019261308685613039565b815201920192019190613069565b61309d90613045565b90565b6130b76130bc916130af612f5a565b50600d611629565b613094565b90565b6130cb6130d0916116b6565b61102a565b90565b6130dd90546130bf565b90565b613105916130fb613100926130f3611319565b506005610ffe565b611014565b6130d3565b90565b613119906131146138c1565b61311b565b565b8061313661313061312b5f611390565b61037b565b9161037b565b14613146576131449061390f565b565b6131696131525f611390565b5f918291631e4fbdf760e01b835260048301610394565b0390fd5b61317690613108565b565b90565b61318f61318a61319492613178565b612565565b6101d4565b90565b6131a4634906490661317b565b90565b6131af611319565b50806131ca6131c46131bf613197565b6101d4565b916101d4565b149081156131d7575b5090565b6131e19150613f3b565b5f6131d3565b6131fe613203916131f6611358565b506004610806565b61235b565b90565b916132149291600192613fa3565b565b61321e611358565b503390565b9061322e910361032c565b90565b9061323c910161032c565b90565b90613248611358565b50613252816140ed565b928061326e6132686132635f611390565b61037b565b9161037b565b036133ad575b508261329061328a6132855f611390565b61037b565b9161037b565b03613359575b816132b16132ab6132a65f611390565b61037b565b9161037b565b03613323575b6132cc826132c760028490610806565b611609565b829161330a6133046132fe7fddf252ad1be2c89b69c2b068fc378daa952ba7f163c4a11628f55a4df523b3ef95610ff2565b92610ff2565b926107ea565b926133136101c2565b8061331d8161042e565b0390a490565b613354613330600161252a565b61334e61333f600386906121b0565b91613349836116d2565b613231565b906116f5565b6132b7565b6133776133655f611390565b8261336f5f611390565b905f92613fa3565b6133a8613384600161252a565b6133a2613393600387906121b0565b9161339d836116d2565b613223565b906116f5565b613296565b6133ba908490839161410c565b5f613274565b6133c8611319565b50806133e46133de6133d98561219b565b61037b565b9161037b565b148015613413575b9182156133f9575b505090565b61340c92506134079061219b565b614188565b5f806133f4565b5061341d8261135c565b61342f6134298361037b565b9161037b565b146133ec565b916134599391613447848284916141b0565b61344f613216565b9390919293613d03565b565b9190600861347b91029161347560018060a01b0384611563565b92611563565b9181191691161790565b919061349b6134966134a393610ff2565b611606565b90835461345b565b9055565b6134b9916134b3611358565b91613485565b565b5f6134c591611b69565b565b905f036134d9576134d7906134bb565b565b6116a3565b5f600561352b926134f183808301611730565b6134fe8360018301611ac1565b61350b8360028301611ac1565b6135188360038301611ac1565b6135258360048301611ac1565b016134c7565b565b905f0361353f5761353d906134de565b565b6116a3565b5490565b5f5260205f2090565b61355a81613544565b8210156135745761356c600191613548565b910201905f90565b6110f0565b61358990600861358e930261081c565b6116bb565b90565b9061359c9154613579565b90565b6135ae6135b49193929361032c565b9261032c565b82039182116135bf57565b6118d0565b634e487b7160e01b5f52603160045260245ffd5b6135e181611537565b80156136025760019003906135ff6135f9838361153b565b90611730565b55565b6135c4565b61361081611677565b801561363157600190039061362e613628838361167b565b9061352d565b55565b6135c4565b61364b5f613646600a8590610806565b6134a7565b6136605f61365b600985906110da565b6134c7565b61367f5f61367a613673600c8590611642565b8590611658565b61352d565b61369361368e600b8390611515565b613544565b906136a86136a3600d8390611629565b61163f565b916136b25f612004565b5b806136c66136c08461032c565b9161032c565b10156137fa576136eb6136e56136de600b8690611515565b8390613551565b90613591565b6136fd6136f78761032c565b9161032c565b14806137cb575b6137165761371190612020565b6136b3565b906137c894506137876137826137c39461377b61375f61375961378c96613753613742600b8790611515565b9161374d600161252a565b9061359f565b90613551565b90613591565b61377561376e600b8590611515565b8890613551565b9061158f565b600b611515565b61152b565b6135d8565b6137bd6137b5846137af61379f87611677565b6137a9600161252a565b9061359f565b9061167b565b50918461167b565b90611cbd565b613607565b5b565b506137e25f6137db86849061167b565b50016116d2565b6137f46137ee8761032c565b9161032c565b14613704565b50505050506137c9565b9061380e906107ea565b5f5260205260405f2090565b906138309061382b60078490613804565b611ff8565b6138667ff8e1a15aba9398e019f0b49df1a4fde98ee17ae345cb5f6b5e2c27f5033e8ce79161385d6101c2565b91829182610702565b0390a1565b613873611358565b5061387d816140ed565b908161389961389361388e5f611390565b61037b565b9161037b565b146138a2575090565b6138bd905f918291637e27328960e01b835260048301610702565b0390fd5b6138c9612368565b6138e26138dc6138d7613216565b61037b565b9161037b565b036138e957565b61390b6138f4613216565b5f91829163118cdaa760e01b835260048301610394565b0390fd5b613919600661235b565b613924826006611609565b906139586139527f8be0079c531659141344cd1fd0a4f28419497f9722a3daafe3b4186f6b6457e093610ff2565b91610ff2565b916139616101c2565b8061396b8161042e565b0390a3565b61398c61397c5f611390565b826139865f611390565b9161323f565b6139a66139a061399b5f611390565b61037b565b9161037b565b146139ae5750565b6139c9905f918291637e27328960e01b835260048301610702565b0390fd5b90565b6139e46139df6139e9926139cd565b6107e7565b61032c565b90565b6139f660026139d0565b90565b613a0360086116d2565b613a1c613a16613a116139ec565b61032c565b9161032c565b14613a3557613a33613a2c6139ec565b60086116f5565b565b5f633ee5aeb560e01b815280613a4d6004820161042e565b0390fd5b613a5b600161252a565b90565b613a70613a69613a51565b60086116f5565b565b905090565b613a9c613a9392602092613a8a8161028c565b94858093613a72565b93849101610299565b0190565b613aa991613a77565b90565b60200190565b5190565b613ac15f8092613a72565b0190565b613ace90613ab6565b90565b90565b90565b9190613ae1611319565b50613afd613b0c84613af16101c2565b92839160208301613aa0565b60208201810382520382610558565b613b1e613b1882613ab2565b91613aac565b20613b6a613b64613b2d6101c2565b613b4c81613b3d60208201613ac5565b60208201810382520382610558565b613b5e613b5882613ab2565b91613aac565b20613ad1565b91613ad1565b14159081613bae575b509182613b80575b505090565b613ba6919250613b9a613b95613ba092613ad4565b613ab2565b9261032c565b9161032c565b105f80613b7b565b9050613bd3613bcd613bc7613bc286613ad4565b613ab2565b9261032c565b9161032c565b115f613b73565b90613bee9190613be861150a565b9161428e565b565b613bf990610fca565b90565b613c0590613bf0565b90565b613c1190610fe6565b90565b90505190613c21826101e0565b565b90602082820312613c3c57613c39915f01613c14565b90565b6101cc565b60209181520190565b613c69613c72602093613c7793613c6081613ab2565b93848093613c41565b95869101610299565b6102a4565b0190565b9092613cae90613ca4613cbb9694613c9a60808601975f870190610387565b6020850190610387565b60408301906106f5565b6060818403910152613c4a565b90565b90613cd0613ccb83610bbf565b610581565b918252565b606090565b3d5f14613cf557613cea3d613cbe565b903d5f602084013e5b565b613cfd613cd5565b90613cf3565b9193843b613d19613d135f612004565b9161032c565b11613d26575b5050505050565b613d5e5f602094613d69613d41613d3c8a613bfc565b613c08565b9463150b7a02929698613d526101c2565b998a9889978896612565565b865260048601613c7b565b03925af180915f92613e27575b50155f14613de457506001613d9157505b5f80808080613d1f565b613d99613cda565b90613da382613ab2565b613db5613daf5f612004565b9161032c565b145f14613ddb57613dd7905f918291633250574960e11b835260048301610394565b0390fd5b50805190602001fd5b613dfd613df7630a85bd0160e11b6101d4565b916101d4565b03613e085750613d87565b613e23905f918291633250574960e11b835260048301610394565b0390fd5b613e4991925060203d8111613e50575b613e418183610558565b810190613c23565b905f613d76565b503d613e37565b613e6590613e6b9392613a77565b90613a77565b90565b613e8d9291613e9991613e7f6101c2565b948592602084019283613e57565b90810382520383610558565b565b613ea3611332565b50613ead8161386b565b50613ec2613ebd60078390613804565b611337565b613eca6142c7565b613edb613ed682613ad4565b613ab2565b613eed613ee75f612004565b9161032c565b14613f3557613f03613efe83613ad4565b613ab2565b613f15613f0f5f612004565b9161032c565b11613f28575050613f25906142db565b90565b613f329250613e6e565b90565b50905090565b613f43611319565b5080613f5e613f586380ac58cd60e01b6101d4565b916101d4565b148015613f82575b908115613f72575b5090565b613f7c9150614347565b5f613f6e565b5080613f9d613f97635b5e139f60e01b6101d4565b916101d4565b14613f66565b9190928080156140ca575b613fcc575b505090613fc5613fca92916004610806565b611609565b565b613fd58461386b565b9180613ff1613feb613fe65f611390565b61037b565b9161037b565b1415806140af575b80614095575b614076575091613fc591613fca949361401b575b509192613fb3565b81849061405a61405461404e7f8c5be1e5ebec7d5bd14f71427d1e84f3dd0314c0f7b2291e5b200ac8c7c3b92595610ff2565b92610ff2565b926107ea565b926140636101c2565b8061406d8161042e565b0390a45f614013565b614091905f91829163a9fbf51f60e01b835260048301610394565b0390fd5b506140aa6140a48483906130e0565b15610221565b613fff565b50826140c36140bd8361037b565b9161037b565b1415613ff9565b50816140e66140e06140db5f611390565b61037b565b9161037b565b1415613fae565b614104614109916140fc611358565b506002610806565b61235b565b90565b61412161411b8284869161436d565b15610221565b61412a57505050565b61414461413e6141395f611390565b61037b565b9161037b565b145f1461416a57614166825f918291637e27328960e01b835260048301610702565b0390fd5b6141845f92839263177e802f60e01b845260048401611e87565b0390fd5b6141ad916141a36141a89261419b611319565b50600e610ffe565b611014565b6130d3565b90565b90806141cc6141c66141c15f611390565b61037b565b9161037b565b14614267576141e590836141df5f611390565b9161323f565b90816142016141fb6141f65f611390565b61037b565b9161037b565b145f1461422757614223835f918291637e27328960e01b835260048301610702565b0390fd5b81929161423c6142368361037b565b9161037b565b0361424657505050565b6142639091925f9384936364283d7b60e01b85526004850161141a565b0390fd5b61428a6142735f611390565b5f918291633250574960e11b835260048301610394565b0390fd5b90916142ba9261429f83829061440d565b6142a7613216565b926142b15f611390565b90919293613d03565b565b6142c46114fe565b90565b6142cf611332565b506142d86142bc565b90565b6142e3611332565b506142ed8161386b565b506142f66142c7565b9061430861430383613ad4565b613ab2565b61431a6143145f612004565b9161032c565b115f146143385761432e6143349291614541565b90613e6e565b5b90565b50506143426142bc565b614335565b61434f611319565b506143696143636301ffc9a760e01b6101d4565b916101d4565b1490565b9190614377611319565b508061439361438d6143885f611390565b61037b565b9161037b565b141592836143a2575b50505090565b80919293506143b96143b38461037b565b9161037b565b149081156143fb575b509182156143d5575b50505f808061439c565b6143f39192506143e76143ed916131e7565b9261037b565b9161037b565b145f806143cb565b614407915082906130e0565b5f6143c2565b908161442961442361441e5f611390565b61037b565b9161037b565b1461448a57614442919061443c5f611390565b9161323f565b61445c6144566144515f611390565b61037b565b9161037b565b0361446357565b61448661446f5f611390565b5f9182916339e3563760e11b835260048301610394565b0390fd5b6144ad6144965f611390565b5f918291633250574960e11b835260048301610394565b0390fd5b369037565b906144db6144c3836114e7565b926020806144d18693610596565b92019103906144b1565b565b60016144e9910361032c565b90565b90565b6145036144fe614508926144ec565b6107e7565b61032c565b90565b634e487b7160e01b5f52601260045260245ffd5b61452b6145319161032c565b9161032c565b90811561453c570490565b61450b565b614549611332565b506145666145568261473f565b614560600161252a565b90613231565b90614570826144b6565b9161457961172c565b5060200182015b6001156145e3576145936145bf916144dd565b916f181899199a1a9b1b9c1cb0b131b232b360811b600a82061a83536145b9600a6144ef565b9061451f565b806145d26145cc5f612004565b9161032c565b146145dd5790614580565b50505b90565b50506145e0565b90565b6146016145fc614606926145ea565b6107e7565b61032c565b90565b90565b61462061461b61462592614609565b6107e7565b61032c565b90565b90565b61463f61463a61464492614628565b6107e7565b61032c565b90565b90565b61465e61465961466392614647565b6107e7565b61032c565b90565b90565b61467d61467861468292614666565b6107e7565b61032c565b90565b90565b61469c6146976146a192614685565b6107e7565b61032c565b90565b90565b6146bb6146b66146c0926146a4565b6107e7565b61032c565b90565b90565b6146da6146d56146df926146c3565b6107e7565b61032c565b90565b90565b6146f96146f46146fe926146e2565b6107e7565b61032c565b90565b90565b61471861471361471d92614701565b6107e7565b61032c565b90565b90565b61473761473261473c92614720565b6107e7565b61032c565b90565b61474761172c565b506147515f612004565b908061478061477a7a184f03e93ff9f4daa797ed6e38ed64bf6a1f0100000000000000006145ed565b9161032c565b1015614958575b806147a86147a26d04ee2d6d415b85acef810000000061462b565b9161032c565b101561491d575b806147c96147c3662386f26fc10000614669565b9161032c565b10156148e9575b806147e76147e16305f5e1006146a7565b9161032c565b10156148b8575b806148036147fd6127106146e5565b9161032c565b1015614889575b8061481e6148186064614723565b9161032c565b101561485b575b614838614832600a6144ef565b9161032c565b1015614842575b90565b61485690614850600161252a565b90613231565b61483f565b6148726148839161486c6064614723565b9061451f565b9161487d60026139d0565b90613231565b90614825565b6148a16148b29161489b6127106146e5565b9061451f565b916148ac6004614704565b90613231565b9061480a565b6148d26148e3916148cc6305f5e1006146a7565b9061451f565b916148dd60086146c6565b90613231565b906147ee565b61490661491791614900662386f26fc10000614669565b9061451f565b916149116010614688565b90613231565b906147d0565b6149416149529161493b6d04ee2d6d415b85acef810000000061462b565b9061451f565b9161494c602061464a565b90613231565b906147af565b61498961499a916149837a184f03e93ff9f4daa797ed6e38ed64bf6a1f0100000000000000006145ed565b9061451f565b91614994604061460c565b90613231565b9061478756fea2646970667358221220359d7b384dd4ad264a6379cfda96476a4434f73b5c76bfa1155f35b5db580f9564736f6c634300081c0033","linkReferences":{"lib/Comparisons.sol":{"PropertyCorrectnessCheckLib":[{"start":12567,"length":20},{"start":13436,"length":20}]}}},"methodIdentifiers":{"_operatorApprovals(address,address)":"edc3bc3f","_tokenApprovals(uint256)":"a7cc0136","_tokenAttributes(uint256,uint256)":"eefc002a","_tokenOwners(uint256)":"92673ff5","approve(address,uint256)":"095ea7b3","balanceOf(address)":"70a08231","burn(uint256)":"42966c68","burnToken(uint256)":"7b47ec1a","getApproved(uint256)":"081812fc","getOwnersTokensAll(address)":"d7a8274d","getTokenOwner(uint256)":"a5cd761f","isApprovedForAll(address,address)":"e985e9c5","mintNFT(address,string,string,string,string,string[5],string[5])":"b03e4a0f","name()":"06fdde03","owner()":"8da5cb5b","ownerOf(uint256)":"6352211e","renounceOwnership()":"715018a6","safeTransferFrom(address,address,uint256)":"42842e0e","safeTransferFrom(address,address,uint256,bytes)":"b88d4fde","setApprovalForAll(address,bool)":"a22cb465","supportsInterface(bytes4)":"01ffc9a7","symbol()":"95d89b41","tokenURI(uint256)":"c87b56dd","transferFrom(address,address,uint256)":"23b872dd","transferOwnership(address)":"f2fde38b","updateTokenURI(uint256,address,string)":"4a9146d0"},"id":43}