{"abi":[{"type":"constructor","inputs":[{"name":"_name","type":"string","internalType":"string"},{"name":"_symbol","type":"string","internalType":"string"},{"name":"_owner","type":"address","internalType":"address"}],"stateMutability":"nonpayable"},{"type":"function","name":"_operatorApprovals","inputs":[{"name":"","type":"address","internalType":"address"},{"name":"","type":"address","internalType":"address"}],"outputs":[{"name":"","type":"bool","internalType":"bool"}],"stateMutability":"view"},{"type":"function","name":"_ownerToTokenStruct","inputs":[{"name":"","type":"address","internalType":"address"},{"name":"","type":"uint256","internalType":"uint256"}],"outputs":[{"name":"tokenId","type":"uint256","internalType":"uint256"},{"name":"tokenName","type":"string","internalType":"string"},{"name":"tokenURI","type":"string","internalType":"string"},{"name":"tokenImageURI","type":"string","internalType":"string"},{"name":"description","type":"string","internalType":"string"}],"stateMutability":"view"},{"type":"function","name":"_tokenApprovals","inputs":[{"name":"","type":"uint256","internalType":"uint256"}],"outputs":[{"name":"","type":"address","internalType":"address"}],"stateMutability":"view"},{"type":"function","name":"_tokenAttributes","inputs":[{"name":"","type":"uint256","internalType":"uint256"},{"name":"","type":"uint256","internalType":"uint256"}],"outputs":[{"name":"trait_type","type":"string","internalType":"string"},{"name":"value","type":"string","internalType":"string"}],"stateMutability":"view"},{"type":"function","name":"_tokenDescriptions","inputs":[{"name":"","type":"uint256","internalType":"uint256"}],"outputs":[{"name":"","type":"string","internalType":"string"}],"stateMutability":"view"},{"type":"function","name":"_tokenImageURIs","inputs":[{"name":"","type":"uint256","internalType":"uint256"}],"outputs":[{"name":"","type":"string","internalType":"string"}],"stateMutability":"view"},{"type":"function","name":"_tokenOwners","inputs":[{"name":"","type":"uint256","internalType":"uint256"}],"outputs":[{"name":"","type":"address","internalType":"address"}],"stateMutability":"view"},{"type":"function","name":"_tokens","inputs":[{"name":"","type":"address","internalType":"address"},{"name":"","type":"uint256","internalType":"uint256"}],"outputs":[{"name":"tokenId","type":"uint256","internalType":"uint256"},{"name":"tokenName","type":"string","internalType":"string"},{"name":"tokenURI","type":"string","internalType":"string"},{"name":"tokenImageURI","type":"string","internalType":"string"},{"name":"description","type":"string","internalType":"string"}],"stateMutability":"view"},{"type":"function","name":"approve","inputs":[{"name":"to","type":"address","internalType":"address"},{"name":"tokenId","type":"uint256","internalType":"uint256"}],"outputs":[],"stateMutability":"nonpayable"},{"type":"function","name":"balanceOf","inputs":[{"name":"owner","type":"address","internalType":"address"}],"outputs":[{"name":"","type":"uint256","internalType":"uint256"}],"stateMutability":"view"},{"type":"function","name":"burn","inputs":[{"name":"tokenId","type":"uint256","internalType":"uint256"}],"outputs":[],"stateMutability":"nonpayable"},{"type":"function","name":"burnToken","inputs":[{"name":"tokenId","type":"uint256","internalType":"uint256"}],"outputs":[],"stateMutability":"nonpayable"},{"type":"function","name":"getApproved","inputs":[{"name":"tokenId","type":"uint256","internalType":"uint256"}],"outputs":[{"name":"","type":"address","internalType":"address"}],"stateMutability":"view"},{"type":"function","name":"getContractsOwner","inputs":[],"outputs":[{"name":"","type":"address","internalType":"address"}],"stateMutability":"view"},{"type":"function","name":"getOwnersTokensAll","inputs":[{"name":"user","type":"address","internalType":"address"}],"outputs":[{"name":"","type":"tuple[]","internalType":"struct DynamicNFT.Token[]","components":[{"name":"tokenId","type":"uint256","internalType":"uint256"},{"name":"tokenName","type":"string","internalType":"string"},{"name":"tokenURI","type":"string","internalType":"string"},{"name":"tokenImageURI","type":"string","internalType":"string"},{"name":"description","type":"string","internalType":"string"},{"name":"attributes","type":"tuple[]","internalType":"struct DynamicNFT.Attribute[]","components":[{"name":"trait_type","type":"string","internalType":"string"},{"name":"value","type":"string","internalType":"string"}]}]}],"stateMutability":"view"},{"type":"function","name":"getTokenImageURI","inputs":[{"name":"addr","type":"address","internalType":"address"},{"name":"tokenId","type":"uint256","internalType":"uint256"}],"outputs":[{"name":"","type":"string","internalType":"string"}],"stateMutability":"view"},{"type":"function","name":"getTokenOwner","inputs":[{"name":"tokenId","type":"uint256","internalType":"uint256"}],"outputs":[{"name":"","type":"address","internalType":"address"}],"stateMutability":"view"},{"type":"function","name":"getUsersTokenInfo","inputs":[{"name":"tokenId","type":"uint256","internalType":"uint256"}],"outputs":[{"name":"","type":"string","internalType":"string"},{"name":"","type":"string","internalType":"string"},{"name":"","type":"string","internalType":"string"},{"name":"","type":"tuple[]","internalType":"struct DynamicNFT.Attribute[]","components":[{"name":"trait_type","type":"string","internalType":"string"},{"name":"value","type":"string","internalType":"string"}]},{"name":"","type":"uint256","internalType":"uint256"}],"stateMutability":"view"},{"type":"function","name":"getUsersTokens","inputs":[{"name":"user","type":"address","internalType":"address"}],"outputs":[{"name":"","type":"uint256[]","internalType":"uint256[]"}],"stateMutability":"view"},{"type":"function","name":"isApprovedForAll","inputs":[{"name":"owner","type":"address","internalType":"address"},{"name":"operator","type":"address","internalType":"address"}],"outputs":[{"name":"","type":"bool","internalType":"bool"}],"stateMutability":"view"},{"type":"function","name":"mintNFT","inputs":[{"name":"_tokenURI","type":"string","internalType":"string"},{"name":"_tokenImageURI","type":"string","internalType":"string"},{"name":"tokenName","type":"string","internalType":"string"},{"name":"description","type":"string","internalType":"string"},{"name":"keys","type":"string[5]","internalType":"string[5]"},{"name":"values","type":"string[5]","internalType":"string[5]"}],"outputs":[],"stateMutability":"nonpayable"},{"type":"function","name":"name","inputs":[],"outputs":[{"name":"","type":"string","internalType":"string"}],"stateMutability":"view"},{"type":"function","name":"owner","inputs":[],"outputs":[{"name":"","type":"address","internalType":"address"}],"stateMutability":"view"},{"type":"function","name":"ownerOf","inputs":[{"name":"tokenId","type":"uint256","internalType":"uint256"}],"outputs":[{"name":"","type":"address","internalType":"address"}],"stateMutability":"view"},{"type":"function","name":"ownerTokens","inputs":[{"name":"","type":"address","internalType":"address"},{"name":"","type":"uint256","internalType":"uint256"}],"outputs":[{"name":"","type":"uint256","internalType":"uint256"}],"stateMutability":"view"},{"type":"function","name":"ownerTotokenImageURI","inputs":[{"name":"","type":"address","internalType":"address"},{"name":"","type":"uint256","internalType":"uint256"}],"outputs":[{"name":"","type":"string","internalType":"string"}],"stateMutability":"view"},{"type":"function","name":"renounceOwnership","inputs":[],"outputs":[],"stateMutability":"nonpayable"},{"type":"function","name":"safeTransferFrom","inputs":[{"name":"from","type":"address","internalType":"address"},{"name":"to","type":"address","internalType":"address"},{"name":"tokenId","type":"uint256","internalType":"uint256"}],"outputs":[],"stateMutability":"nonpayable"},{"type":"function","name":"safeTransferFrom","inputs":[{"name":"from","type":"address","internalType":"address"},{"name":"to","type":"address","internalType":"address"},{"name":"tokenId","type":"uint256","internalType":"uint256"},{"name":"data","type":"bytes","internalType":"bytes"}],"outputs":[],"stateMutability":"nonpayable"},{"type":"function","name":"setApprovalForAll","inputs":[{"name":"operator","type":"address","internalType":"address"},{"name":"approved","type":"bool","internalType":"bool"}],"outputs":[],"stateMutability":"nonpayable"},{"type":"function","name":"supportsInterface","inputs":[{"name":"interfaceId","type":"bytes4","internalType":"bytes4"}],"outputs":[{"name":"","type":"bool","internalType":"bool"}],"stateMutability":"view"},{"type":"function","name":"symbol","inputs":[],"outputs":[{"name":"","type":"string","internalType":"string"}],"stateMutability":"view"},{"type":"function","name":"tokenURI","inputs":[{"name":"tokenId","type":"uint256","internalType":"uint256"}],"outputs":[{"name":"","type":"string","internalType":"string"}],"stateMutability":"view"},{"type":"function","name":"totalSupply","inputs":[],"outputs":[{"name":"","type":"uint256","internalType":"uint256"}],"stateMutability":"view"},{"type":"function","name":"transferFrom","inputs":[{"name":"from","type":"address","internalType":"address"},{"name":"to","type":"address","internalType":"address"},{"name":"tokenId","type":"uint256","internalType":"uint256"}],"outputs":[],"stateMutability":"nonpayable"},{"type":"function","name":"transferOwnership","inputs":[{"name":"newOwner","type":"address","internalType":"address"}],"outputs":[],"stateMutability":"nonpayable"},{"type":"function","name":"updateTokenURI","inputs":[{"name":"tokenId","type":"uint256","internalType":"uint256"},{"name":"updater","type":"address","internalType":"address"},{"name":"newTokenURI","type":"string","internalType":"string"}],"outputs":[],"stateMutability":"nonpayable"},{"type":"event","name":"Approval","inputs":[{"name":"owner","type":"address","indexed":true,"internalType":"address"},{"name":"approved","type":"address","indexed":true,"internalType":"address"},{"name":"tokenId","type":"uint256","indexed":true,"internalType":"uint256"}],"anonymous":false},{"type":"event","name":"ApprovalForAll","inputs":[{"name":"owner","type":"address","indexed":true,"internalType":"address"},{"name":"operator","type":"address","indexed":true,"internalType":"address"},{"name":"approved","type":"bool","indexed":false,"internalType":"bool"}],"anonymous":false},{"type":"event","name":"BatchMetadataUpdate","inputs":[{"name":"_fromTokenId","type":"uint256","indexed":false,"internalType":"uint256"},{"name":"_toTokenId","type":"uint256","indexed":false,"internalType":"uint256"}],"anonymous":false},{"type":"event","name":"MetadataUpdate","inputs":[{"name":"_tokenId","type":"uint256","indexed":false,"internalType":"uint256"}],"anonymous":false},{"type":"event","name":"NFTBurned","inputs":[{"name":"minter","type":"address","indexed":true,"internalType":"address"},{"name":"tokenId","type":"uint256","indexed":true,"internalType":"uint256"}],"anonymous":false},{"type":"event","name":"NFTMinted","inputs":[{"name":"minter","type":"address","indexed":true,"internalType":"address"},{"name":"tokenId","type":"uint256","indexed":true,"internalType":"uint256"},{"name":"tokenURI","type":"string","indexed":false,"internalType":"string"}],"anonymous":false},{"type":"event","name":"NFTTransfer","inputs":[{"name":"from","type":"address","indexed":true,"internalType":"address"},{"name":"to","type":"address","indexed":true,"internalType":"address"},{"name":"tokenId","type":"uint256","indexed":true,"internalType":"uint256"}],"anonymous":false},{"type":"event","name":"NFTUpdated","inputs":[{"name":"minter","type":"address","indexed":true,"internalType":"address"},{"name":"tokenId","type":"uint256","indexed":true,"internalType":"uint256"},{"name":"tokenURI","type":"string","indexed":false,"internalType":"string"}],"anonymous":false},{"type":"event","name":"OwnershipTransferred","inputs":[{"name":"previousOwner","type":"address","indexed":true,"internalType":"address"},{"name":"newOwner","type":"address","indexed":true,"internalType":"address"}],"anonymous":false},{"type":"event","name":"Transfer","inputs":[{"name":"from","type":"address","indexed":true,"internalType":"address"},{"name":"to","type":"address","indexed":true,"internalType":"address"},{"name":"tokenId","type":"uint256","indexed":true,"internalType":"uint256"}],"anonymous":false},{"type":"error","name":"DynamicNFT_NotElligibleToMint","inputs":[{"name":"minter","type":"address","internalType":"address"}]},{"type":"error","name":"DynamicNFT_NotElligibleToUpdate","inputs":[{"name":"minter","type":"address","internalType":"address"},{"name":"tokenId","type":"uint256","internalType":"uint256"}]},{"type":"error","name":"ERC721IncorrectOwner","inputs":[{"name":"sender","type":"address","internalType":"address"},{"name":"tokenId","type":"uint256","internalType":"uint256"},{"name":"owner","type":"address","internalType":"address"}]},{"type":"error","name":"ERC721InsufficientApproval","inputs":[{"name":"operator","type":"address","internalType":"address"},{"name":"tokenId","type":"uint256","internalType":"uint256"}]},{"type":"error","name":"ERC721InvalidApprover","inputs":[{"name":"approver","type":"address","internalType":"address"}]},{"type":"error","name":"ERC721InvalidOperator","inputs":[{"name":"operator","type":"address","internalType":"address"}]},{"type":"error","name":"ERC721InvalidOwner","inputs":[{"name":"owner","type":"address","internalType":"address"}]},{"type":"error","name":"ERC721InvalidReceiver","inputs":[{"name":"receiver","type":"address","internalType":"address"}]},{"type":"error","name":"ERC721InvalidSender","inputs":[{"name":"sender","type":"address","internalType":"address"}]},{"type":"error","name":"ERC721NonexistentToken","inputs":[{"name":"tokenId","type":"uint256","internalType":"uint256"}]},{"type":"error","name":"NotTokenOwner","inputs":[{"name":"tokenOwner","type":"address","internalType":"address"}]},{"type":"error","name":"OwnableInvalidOwner","inputs":[{"name":"owner","type":"address","internalType":"address"}]},{"type":"error","name":"OwnableUnauthorizedAccount","inputs":[{"name":"account","type":"address","internalType":"address"}]}],"bytecode":{"object":"0x6080604052346100305761001a6100146101cf565b916101f2565b610022610035565b614bbf6106418239614bbf90f35b61003b565b60405190565b5f80fd5b601f801991011690565b634e487b7160e01b5f52604160045260245ffd5b906100679061003f565b810190811060018060401b0382111761007f57604052565b610049565b90610097610090610035565b928361005d565b565b5f80fd5b5f80fd5b5f80fd5b5f80fd5b60018060401b0381116100c5576100c160209161003f565b0190565b610049565b90825f9392825e0152565b909291926100ea6100e5826100a9565b610084565b9381855260208501908284011161010657610104926100ca565b565b6100a5565b9080601f8301121561012957816020610126935191016100d5565b90565b6100a1565b60018060a01b031690565b6101429061012e565b90565b61014e81610139565b0361015557565b5f80fd5b9050519061016682610145565b565b90916060828403126101ca575f82015160018060401b0381116101c5578361019191840161010b565b9260208301519060018060401b0382116101c0576101b4816101bd93860161010b565b93604001610159565b90565b61009d565b61009d565b610099565b6101ed615200803803806101e281610084565b928339810190610168565b909192565b906101ff92919091610201565b565b9061020c929161020e565b565b90610219929161026b565b565b90565b90565b61023561023061023a9261021b565b61021e565b61012e565b90565b61024690610221565b90565b61025290610139565b9052565b9190610269905f60208501940190610249565b565b916102759161051b565b8061029061028a6102855f61023d565b610139565b91610139565b146102a05761029e906105df565b565b6102c36102ac5f61023d565b5f918291631e4fbdf760e01b835260048301610256565b0390fd5b5190565b634e487b7160e01b5f52602260045260245ffd5b90600160028304921680156102ff575b60208310146102fa57565b6102cb565b91607f16916102ef565b5f5260205f2090565b601f602091010490565b1b90565b9190600861033b9102916103355f198461031c565b9261031c565b9181191691161790565b90565b61035c61035761036192610345565b61021e565b610345565b90565b90565b919061037d61037861038593610348565b610364565b908354610320565b9055565b5f90565b61039f91610399610389565b91610367565b565b5b8181106103ad575050565b806103ba5f60019361038d565b016103a2565b9190601f81116103d0575b505050565b6103dc61040193610309565b9060206103e884610312565b83019310610409575b6103fa90610312565b01906103a1565b5f80806103cb565b91506103fa819290506103f1565b1c90565b9061042b905f1990600802610417565b191690565b8161043a9161041b565b906002021790565b9061044c816102c7565b9060018060401b03821161050a5761046e8261046885546102df565b856103c0565b602090601f83116001146104a257918091610491935f92610496575b5050610430565b90555b565b90915001515f8061048a565b601f198316916104b185610309565b925f5b8181106104f2575091600293918560019694106104d8575b50505002019055610494565b6104e8910151601f84169061041b565b90555f80806104cc565b919360206001819287870151815501950192016104b4565b610049565b9061051991610442565b565b90610529610530925f61050f565b600161050f565b565b5f1c90565b60018060a01b031690565b61054e61055391610532565b610537565b90565b6105609054610542565b90565b5f1b90565b9061057960018060a01b0391610563565b9181191691161790565b61059761059261059c9261012e565b61021e565b61012e565b90565b6105a890610583565b90565b6105b49061059f565b90565b90565b906105cf6105ca6105d6926105ab565b6105b7565b8254610568565b9055565b5f0190565b6105e96006610556565b6105f48260066105ba565b906106286106227f8be0079c531659141344cd1fd0a4f28419497f9722a3daafe3b4186f6b6457e0936105ab565b916105ab565b91610631610035565b8061063b816105da565b0390a356fe60806040526004361015610013575b611a7c565b61001d5f3561026c565b806301ffc9a71461026757806306fdde0314610262578063081812fc1461025d578063095ea7b31461025857806318160ddd146102535780631b79e76a1461024e57806323b872dd1461024957806328b600311461024457806328e309661461023f57806342842e0e1461023a57806342966c68146102355780634a9146d014610230578063509044be1461022b5780635a04e497146102265780636288667f146102215780636352211e1461021c57806370a0823114610217578063715018a6146102125780637b47ec1a1461020d5780637d6e1d1514610208578063842291d0146102035780638da5cb5b146101fe57806392673ff5146101f9578063955a6157146101f457806395d89b41146101ef57806399c91984146101ea578063a22cb465146101e5578063a5cd761f146101e0578063a7cc0136146101db578063b88d4fde146101d6578063c87b56dd146101d1578063d7a8274d146101cc578063e3a0ce31146101c7578063e985e9c5146101c2578063edc3bc3f146101bd578063eefc002a146101b85763f2fde38b0361000e57611a49565b611a12565b6118f4565b611845565b6117e3565b611795565b6115c9565b611592565b611482565b611434565b611400565b61137a565b611345565b61130b565b61113a565b6110a5565b61106c565b610ee9565b610e7f565b610e4c565b610e17565b610de2565b610dad565b610d73565b610cbd565b610bcc565b610aa4565b610a70565b610a3b565b61098f565b6108b1565b61083d565b610539565b6104e3565b610459565b6103a7565b6102f8565b60e01c90565b60405190565b5f80fd5b5f80fd5b5f80fd5b63ffffffff60e01b1690565b61029981610284565b036102a057565b5f80fd5b905035906102b182610290565b565b906020828203126102cc576102c9915f016102a4565b90565b61027c565b151590565b6102df906102d1565b9052565b91906102f6905f602085019401906102d6565b565b346103285761032461031361030e3660046102b3565b611a84565b61031b610272565b918291826102e3565b0390f35b610278565b5f91031261033757565b61027c565b5190565b60209181520190565b90825f9392825e0152565b601f801991011690565b61037d61038660209361038b936103748161033c565b93848093610340565b95869101610349565b610354565b0190565b6103a49160208201915f81840391015261035e565b90565b346103d7576103b736600461032d565b6103d36103c2611aaa565b6103ca610272565b9182918261038f565b0390f35b610278565b90565b6103e8816103dc565b036103ef57565b5f80fd5b90503590610400826103df565b565b9060208282031261041b57610418915f016103f3565b90565b61027c565b60018060a01b031690565b61043490610420565b90565b6104409061042b565b9052565b9190610457905f60208501940190610437565b565b346104895761048561047461046f366004610402565b611ac3565b61047c610272565b91829182610444565b0390f35b610278565b6104978161042b565b0361049e57565b5f80fd5b905035906104af8261048e565b565b91906040838203126104d957806104cd6104d6925f86016104a2565b936020016103f3565b90565b61027c565b5f0190565b34610512576104fc6104f63660046104b1565b90611b03565b610504610272565b8061050e816104de565b0390f35b610278565b610520906103dc565b9052565b9190610537905f60208501940190610517565b565b346105695761054936600461032d565b610565610554611b83565b61055c610272565b91829182610524565b0390f35b610278565b90565b61058561058061058a92610420565b61056e565b610420565b90565b61059690610571565b90565b6105a29061058d565b90565b906105af90610599565b5f5260205260405f2090565b634e487b7160e01b5f52603260045260245ffd5b5490565b5f5260205f2090565b6105e5816105cf565b8210156105ff576105f76006916105d3565b910201905f90565b6105bb565b5f1c90565b90565b61061861061d91610604565b610609565b90565b61062a905461060c565b90565b634e487b7160e01b5f52602260045260245ffd5b9060016002830492168015610661575b602083101461065c57565b61062d565b91607f1691610651565b60209181520190565b5f5260205f2090565b905f929180549061069761069083610641565b809461066b565b916001811690815f146106ee57506001146106b2575b505050565b6106bf9192939450610674565b915f925b8184106106d657505001905f80806106ad565b600181602092959395548486015201910192906106c3565b92949550505060ff19168252151560200201905f80806106ad565b906107139161067d565b90565b634e487b7160e01b5f52604160045260245ffd5b9061073490610354565b810190811067ffffffffffffffff82111761074e57604052565b610716565b9061077361076c92610763610272565b93848092610709565b038361072a565b565b61078090600e6105a5565b9061078a826105cf565b8110156107dc5761079a916105dc565b506107a65f8201610620565b916107b360018301610753565b916107c060028201610753565b916107d960046107d260038501610753565b9301610753565b90565b5f80fd5b939061083a959361081061081e9261082c9561080360a08a01925f8b0190610517565b88820360208a015261035e565b90868203604088015261035e565b90848203606086015261035e565b91608081840391015261035e565b90565b346108725761086e6108596108533660046104b1565b90610775565b91610865959395610272565b958695866107e0565b0390f35b610278565b90916060828403126108ac576108a9610892845f85016104a2565b936108a081602086016104a2565b936040016103f3565b90565b61027c565b346108e0576108ca6108c4366004610877565b91611bcb565b6108d2610272565b806108dc816104de565b0390f35b610278565b906108ef90610599565b5f5260205260405f2090565b5490565b5f5260205f2090565b610911816108fb565b82101561092b576109236001916108ff565b910201905f90565b6105bb565b1c90565b6109449060086109499302610930565b610609565b90565b906109579154610934565b90565b61096590600c6108e5565b61096e816108fb565b82101561098b576109889161098291610908565b9061094c565b90565b5f80fd5b346109c0576109bc6109ab6109a53660046104b1565b9061095a565b6109b3610272565b91829182610524565b0390f35b610278565b6109d96109d46109de926103dc565b61056e565b6103dc565b90565b906109eb906109c5565b5f5260205260405f2090565b634e487b7160e01b5f525f60045260245ffd5b905f10610a1d57610a1a90610753565b90565b6109f7565b610a3890610a33600a915f926109e1565b610a0a565b90565b34610a6b57610a67610a56610a51366004610402565b610a22565b610a5e610272565b9182918261038f565b0390f35b610278565b34610a9f57610a89610a83366004610877565b916123fb565b610a91610272565b80610a9b816104de565b0390f35b610278565b34610ad257610abc610ab7366004610402565b61254f565b610ac4610272565b80610ace816104de565b0390f35b610278565b5f80fd5b5f80fd5b90610af2610aeb610272565b928361072a565b565b67ffffffffffffffff8111610b1257610b0e602091610354565b0190565b610716565b90825f939282370152565b90929192610b37610b3282610af4565b610adf565b93818552602085019082840111610b5357610b5192610b17565b565b610adb565b9080601f83011215610b7657816020610b7393359101610b22565b90565b610ad7565b91606083830312610bc757610b92825f85016103f3565b92610ba083602083016104a2565b92604082013567ffffffffffffffff8111610bc257610bbf9201610b58565b90565b610280565b61027c565b34610bfb57610be5610bdf366004610b7b565b91612840565b610bed610272565b80610bf7816104de565b0390f35b610278565b90602082820312610c1957610c16915f016104a2565b90565b61027c565b5190565b60209181520190565b60200190565b610c3a906103dc565b9052565b90610c4b81602093610c31565b0190565b60200190565b90610c72610c6c610c6584610c1e565b8093610c22565b92610c2b565b905f5b818110610c825750505090565b909192610c9b610c956001928651610c3e565b94610c4f565b9101919091610c75565b610cba9160208201915f818403910152610c55565b90565b34610ced57610ce9610cd8610cd3366004610c00565b612900565b610ce0610272565b91829182610ca5565b0390f35b610278565b90610cfc90610599565b5f5260205260405f2090565b90610d12906109c5565b5f5260205260405f2090565b90610d2d610d3292600d610cf2565b610d08565b610d3d5f8201610620565b91610d4a60018301610753565b91610d5760028201610753565b91610d706004610d6960038501610753565b9301610753565b90565b34610da857610da4610d8f610d893660046104b1565b90610d1e565b91610d9b959395610272565b958695866107e0565b0390f35b610278565b34610ddd57610dbd36600461032d565b610dd9610dc861291f565b610dd0610272565b91829182610444565b0390f35b610278565b34610e1257610e0e610dfd610df8366004610402565b612933565b610e05610272565b91829182610444565b0390f35b610278565b34610e4757610e43610e32610e2d366004610c00565b61295e565b610e3a610272565b91829182610524565b0390f35b610278565b34610e7a57610e5c36600461032d565b610e646129e9565b610e6c610272565b80610e76816104de565b0390f35b610278565b34610ead57610e97610e92366004610402565b612ad4565b610e9f610272565b80610ea9816104de565b0390f35b610278565b90610ebc90610599565b5f5260205260405f2090565b610ee1610ee692610edc600f935f94610eb2565b6109e1565b610a0a565b90565b34610f1a57610f16610f05610eff3660046104b1565b90610ec8565b610f0d610272565b9182918261038f565b0390f35b610278565b5190565b60209181520190565b60200190565b610f51610f5a602093610f5f93610f488161033c565b9384809361066b565b95869101610349565b610354565b0190565b610f91916020610f80604083015f8501518482035f860152610f32565b920151906020818403910152610f32565b90565b90610f9e91610f63565b90565b60200190565b90610fbb610fb483610f1f565b8092610f23565b9081610fcc60208302840194610f2c565b925f915b838310610fdf57505050505090565b90919293946020611001610ffb83856001950387528951610f94565b97610fa1565b9301930191939290610fd0565b9594929361105461106a956110466080956110386110629660a08d01908d5f81840391015261035e565b908b820360208d015261035e565b9089820360408b015261035e565b908782036060890152610fa7565b940190610517565b565b346110a05761109c611087611082366004610402565b612be9565b91611093959395610272565b9586958661100e565b0390f35b610278565b346110d5576110b536600461032d565b6110d16110c0612cf9565b6110c8610272565b91829182610444565b0390f35b610278565b906110e4906109c5565b5f5260205260405f2090565b60018060a01b031690565b61110b9060086111109302610930565b6110f0565b90565b9061111e91546110fb565b90565b61113790611132600b915f926110da565b611113565b90565b3461116a57611166611155611150366004610402565b611121565b61115d610272565b91829182610444565b0390f35b610278565b67ffffffffffffffff81116111845760200290565b610716565b5f80fd5b9291906111a161119c8261116f565b610adf565b9360208592028101918383116111f35781905b8382106111c2575050505050565b813567ffffffffffffffff81116111ee576020916111e38784938701610b58565b8152019101906111b4565b610ad7565b611189565b9080601f83011215611213576112109160059061118d565b90565b610ad7565b9160c083830312611306575f83013567ffffffffffffffff81116113015782611242918501610b58565b92602081013567ffffffffffffffff81116112fc5783611263918301610b58565b92604082013567ffffffffffffffff81116112f75781611284918401610b58565b92606083013567ffffffffffffffff81116112f257826112a5918501610b58565b92608081013567ffffffffffffffff81116112ed57836112c69183016111f8565b9260a082013567ffffffffffffffff81116112e8576112e592016111f8565b90565b610280565b610280565b610280565b610280565b610280565b610280565b61027c565b346113405761132a61131e366004611218565b94939093929192612fa8565b611332610272565b8061133c816104de565b0390f35b610278565b346113755761135536600461032d565b611371611360613253565b611368610272565b9182918261038f565b0390f35b610278565b346113ab576113a76113966113903660046104b1565b90613269565b61139e610272565b9182918261038f565b0390f35b610278565b6113b9816102d1565b036113c057565b5f80fd5b905035906113d1826113b0565b565b91906040838203126113fb57806113ef6113f8925f86016104a2565b936020016113c4565b90565b61027c565b3461142f576114196114133660046113d3565b90613315565b611421610272565b8061142b816104de565b0390f35b610278565b346114645761146061144f61144a366004610402565b613386565b611457610272565b91829182610444565b0390f35b610278565b61147f9061147a6011915f926110da565b611113565b90565b346114b2576114ae61149d611498366004610402565b611469565b6114a5610272565b91829182610444565b0390f35b610278565b67ffffffffffffffff81116114d5576114d1602091610354565b0190565b610716565b909291926114ef6114ea826114b7565b610adf565b9381855260208501908284011161150b5761150992610b17565b565b610adb565b9080601f8301121561152e5781602061152b933591016114da565b90565b610ad7565b9060808282031261158d5761154a815f84016104a2565b9261155882602085016104a2565b9261156683604083016103f3565b92606082013567ffffffffffffffff8111611588576115859201611510565b90565b610280565b61027c565b346115c4576115ae6115a5366004611533565b9291909161339b565b6115b6610272565b806115c0816104de565b0390f35b610278565b346115f9576115f56115e46115df366004610402565b6133c1565b6115ec610272565b9182918261038f565b0390f35b610278565b5190565b60209181520190565b60200190565b60209181520190565b9061162e61162783610f1f565b8092611611565b908161163f60208302840194610f2c565b925f915b83831061165257505050505090565b9091929394602061167461166e83856001950387528951610f94565b97610fa1565b9301930191939290611643565b6117009160a06116ef6116dd6116cb6116b960c086016116a75f8901515f890190610c31565b60208801518782036020890152610f32565b60408701518682036040880152610f32565b60608601518582036060870152610f32565b60808501518482036080860152610f32565b9201519060a081840391015261161a565b90565b9061170d91611681565b90565b60200190565b9061172a611723836115fe565b8092611602565b908161173b6020830284019461160b565b925f915b83831061174e57505050505090565b9091929394602061177061176a83856001950387528951611703565b97611710565b930193019193929061173f565b6117929160208201915f818403910152611716565b90565b346117c5576117c16117b06117ab366004610c00565b613563565b6117b8610272565b9182918261177d565b0390f35b610278565b6117e0906117db6008915f926109e1565b610a0a565b90565b346118135761180f6117fe6117f9366004610402565b6117ca565b611806610272565b9182918261038f565b0390f35b610278565b9190604083820312611840578061183461183d925f86016104a2565b936020016104a2565b90565b61027c565b346118765761187261186161185b366004611818565b906135a3565b611869610272565b918291826102e3565b0390f35b610278565b9061188590610599565b5f5260205260405f2090565b9061189b90610599565b5f5260205260405f2090565b60ff1690565b6118bd9060086118c29302610930565b6118a7565b90565b906118d091546118ad565b90565b6118ec6118f1926118e76010935f9461187b565b611891565b6118c5565b90565b346119255761192161191061190a366004611818565b906118d3565b611918610272565b918291826102e3565b0390f35b610278565b9190604083820312611952578061194661194f925f86016103f3565b936020016103f3565b90565b61027c565b90611961906109c5565b5f5260205260405f2090565b5490565b5f5260205f2090565b6119838161196d565b82101561199d57611995600291611971565b910201905f90565b6105bb565b6119ad906009611957565b906119b78261196d565b8110156119e3576119c79161197a565b50906119e060016119d95f8501610753565b9301610753565b90565b5f80fd5b9091611a01611a0f9360408401908482035f86015261035e565b91602081840391015261035e565b90565b34611a4457611a2b611a2536600461192a565b906119a2565b90611a40611a37610272565b928392836119e7565b0390f35b610278565b34611a7757611a61611a5c366004610c00565b613630565b611a69610272565b80611a73816104de565b0390f35b610278565b5f80fd5b5f90565b611a9690611a90611a80565b50613670565b90565b606090565b611aa790610753565b90565b611ab2611a99565b50611abc5f611a9e565b90565b5f90565b611ad590611acf611abf565b506136b0565b90565b90565b611aef611aea611af492611ad8565b61056e565b610420565b90565b611b0090611adb565b90565b90611b0d81612933565b33611b20611b1a8361042b565b9161042b565b14159081611b63575b50611b4457611b429190611b3c5f611af7565b916136cf565b565b611b5f335f9182916324a1cc3360e21b835260048301610444565b0390fd5b611b799150611b739033906135a3565b156102d1565b5f611b29565b5f90565b611b8b611b7f565b50611b966012610620565b90565b604090611bc2611bc99496959396611bb860608401985f850190610437565b6020830190610517565b0190610437565b565b919080611be8611be2611bdd5f611af7565b61042b565b9161042b565b14611c3f57611c009082611bfa6136df565b91613727565b9182611c14611c0e8361042b565b9161042b565b03611c1e57505050565b611c3b9091925f9384936364283d7b60e01b855260048501611b99565b0390fd5b611c62611c4b5f611af7565b5f918291633250574960e11b835260048301610444565b0390fd5b90611c78611c7383610af4565b610adf565b918252565b611c865f611c66565b90565b611c91611c7d565b90565b90565b5f5260205f2090565b5490565b611cad81611ca0565b821015611cc757611cbf600191611c97565b910201905f90565b6105bb565b1b90565b91906008611ceb910291611ce55f1984611ccc565b92611ccc565b9181191691161790565b90565b9190611d0e611d09611d16936109c5565b611cf5565b908354611cd0565b9055565b9081549168010000000000000000831015611d4a5782611d42916001611d4895018155611ca4565b90611cf8565b565b610716565b5f1b90565b90611d6560018060a01b0391611d4f565b9181191691161790565b90565b90611d87611d82611d8e92610599565b611d6f565b8254611d54565b9055565b90565b5f5260205f2090565b5490565b611dab81611d9e565b821015611dc557611dbd600691611d95565b910201905f90565b6105bb565b90611dd65f1991611d4f565b9181191691161790565b90611df5611df0611dfc926109c5565b611cf5565b8254611dca565b9055565b611e0a9054610641565b90565b601f602091010490565b611e2991611e23611b7f565b91611cf8565b565b5b818110611e37575050565b80611e445f600193611e17565b01611e2c565b9190601f8111611e5a575b505050565b611e66611e8b93610674565b906020611e7284611e0d565b83019310611e93575b611e8490611e0d565b0190611e2b565b5f8080611e55565b9150611e8481929050611e7b565b90611eb1905f1990600802610930565b191690565b81611ec091611ea1565b906002021790565b90808214611fa757611ed981611e00565b9067ffffffffffffffff8211611fa257611efd82611ef78554610641565b85611e4a565b5f90601f8311600114611f3057918091611f1f935f92611f24575b5050611eb6565b90555b565b90915001545f80611f18565b90611f3f601f19841692610674565b90611f4985610674565b925f5b818110611f8a57509160029391856001969410611f70575b50505002019055611f22565b611f80910154601f841690611ea1565b90555f8080611f64565b91936001806020928787015481550195019201611f4c565b610716565b5050565b90611fb591611ec8565b565b634e487b7160e01b5f52601160045260245ffd5b611fda611fe0919392936103dc565b926103dc565b91611fec8382026103dc565b928184041490151715611ffb57565b611fb7565b61200b906002611fcb565b90565b90612021905f1990602003600802610930565b8154169055565b905f9161203f61203782610674565b928354611eb6565b905555565b919290602082105f1461209d57601f841160011461206d57612067929350611eb6565b90555b5b565b509061209361209893600161208a61208485610674565b92611e0d565b82019101611e2b565b612028565b61206a565b506120d482936120ae600194610674565b6120cd6120ba85611e0d565b820192601f8616806120df575b50611e0d565b0190611e2b565b60020217905561206b565b6120eb9088860361200e565b5f6120c7565b929091680100000000000000008211612151576020115f1461214257602081105f146121265761212091611eb6565b90555b5b565b60019160ff191661213684610674565b55600202019055612123565b60019150600202019055612124565b610716565b90815461216281610641565b9081831161218b575b818310612179575b50505050565b61218293612044565b5f808080612173565b612197838383876120f1565b61216b565b5f6121a691612156565b565b905f036121ba576121b89061219c565b565b6109f7565b5f60016121d8926121d2838083016121a8565b016121a8565b565b905f036121ec576121ea906121bf565b565b6109f7565b5b8181106121fd575050565b8061220a5f6002936121da565b016121f2565b909182811061221f575b505050565b61223d61223761223161224895612000565b92612000565b92611971565b9182019101906121f1565b5f808061221a565b90680100000000000000008111612279578161226e6122779361196d565b90828155612210565b565b610716565b9080820361228b575b5050565b600180836122a15f6122aa96015f860190611fab565b01910190611fab565b5f80612287565b906122bb9161227e565b565b818114612315576122e96122e36122d38461196d565b936122de8585612250565b611971565b91611971565b5f915b8383106122f95750505050565b60028082612309600194866122b1565b019201920191906122ec565b5050565b90612323916122bd565b565b90808203612332575b5050565b600580836123505f61239d960161234a5f8701610620565b90611de0565b612361600182016001860190611fab565b612372600282016002860190611fab565b612383600382016003860190611fab565b612394600482016004860190611fab565b01910190612319565b5f8061232e565b91906123b5576123b391612325565b565b6109f7565b90815491680100000000000000008310156123ea57826123e29160016123e895018155611da2565b906123a4565b565b610716565b906123f991612325565b565b91909161241261240c8284906138a8565b156102d1565b6125305761242b81848490612425611c89565b9261391d565b61244961244261243d600c86906108e5565b611c94565b8390611d1a565b61245e83612459600b85906110da565b611d72565b612491612475612470600e86906105a5565b611d92565b61248b612484600d8590610cf2565b8590610d08565b906123ba565b6124c56124aa6124a3600d8490610cf2565b8490610d08565b6124c06124b9600d8790610cf2565b8590610d08565b6123ef565b6124d0818390613a2e565b6124db838390611b03565b9161251861251261250c7ffd19e66d1a4315847e95661bab80aff36f6801c5b2eeeca82491034bd7660abe95610599565b92610599565b926109c5565b92612521610272565b8061252b816104de565b0390a4565b61254b905f9182916324a1cc3360e21b835260048301610444565b0390fd5b61256b9061255c5f611af7565b906125656136df565b91613727565b50565b91602061258f92949361258860408201965f830190610437565b0190610517565b565b929190809380946125a186613386565b6125b36125ad8361042b565b9161042b565b1415806125ed575b6125cd57506125cb939450612716565b565b85906125e95f928392637d8d887360e11b84526004840161256e565b0390fd5b50806126096126036125fe5f611af7565b61042b565b9161042b565b14156125bb565b9061261a8161033c565b9067ffffffffffffffff82116126da5761263e826126388554610641565b85611e4a565b602090601f831160011461267257918091612661935f92612666575b5050611eb6565b90555b565b90915001515f8061265a565b601f1983169161268185610674565b925f5b8181106126c2575091600293918560019694106126a8575b50505002019055612664565b6126b8910151601f841690611ea1565b90555f808061269c565b91936020600181928787015181550195019201612684565b610716565b906126e991612610565b565b6126ff6126fa61270492611ad8565b61056e565b6103dc565b90565b600161271391016103dc565b90565b9091612723828290613bbc565b61274581600261273f612738600d8890610cf2565b8690610d08565b016126df565b61274e5f6126eb565b5b8061277561276f61276a612765600e89906105a5565b6105cf565b6103dc565b916103dc565b10156128385761279c5f61279561278e600e88906105a5565b84906105dc565b5001610620565b6127ae6127a8856103dc565b916103dc565b146127c1576127bc90612707565b61274f565b6127e79060026127e084959694926127db600e87906105a5565b6105dc565b50016126df565b5b91909161283361282161281b7f51c048cc4b1abd5e706cec09236de72e247e8108b9f7e608bd2f7b41451334e693610599565b936109c5565b9361282a610272565b9182918261038f565b0390a3565b5090916127e8565b9061284b9291612591565b565b606090565b60209181520190565b612865905461060c565b90565b60010190565b9061288b61288561287e846108fb565b8093612852565b926108ff565b905f5b81811061289b5750505090565b9091926128bb6128b56001926128b08761285b565b610c3e565b94612868565b910191909161288e565b906128cf9161286e565b90565b906128f26128eb926128e2610272565b938480926128c5565b038361072a565b565b6128fd906128d2565b90565b61291761291c9161290f61284d565b50600c6108e5565b6128f4565b90565b612927611abf565b50612930612cf9565b90565b6129459061293f611abf565b50613c0d565b90565b9061295290610599565b5f5260205260405f2090565b612966611b7f565b508061298261297c6129775f611af7565b61042b565b9161042b565b1461299d5761299561299a916003612948565b610620565b90565b6129c06129a95f611af7565b5f9182916322718ad960e21b835260048301610444565b0390fd5b6129cc613c63565b6129d46129d6565b565b6129e76129e25f611af7565b613cb1565b565b6129f16129c4565b565b3381906129ff82613386565b612a11612a0b8361042b565b9161042b565b141580612a48575b612a2a575050612a2890612a6b565b565b612a445f928392637d8d887360e11b84526004840161256e565b0390fd5b5080612a64612a5e612a595f611af7565b61042b565b9161042b565b1415612a19565b612a7e612a7782612933565b8290613a2e565b612a8781613d12565b3390612abc612ab67fd6a6bcd88cdc4656d5f4e14e7dfbc9bc3f2f9811f8d6b508f3bee7d999d4d41c93610599565b916109c5565b91612ac5610272565b80612acf816104de565b0390a3565b612add906129f3565b565b606090565b612af0612af591610604565b6110f0565b90565b612b029054612ae4565b90565b67ffffffffffffffff8111612b1d5760208091020190565b610716565b90612b34612b2f83612b05565b610adf565b918252565b52565b612b466040610adf565b90565b90612b80612b776001612b5a612b3c565b94612b71612b695f8301610753565b5f8801612b39565b01610753565b60208401612b39565b565b612b8b90612b49565b90565b90612b988261196d565b612ba181612b22565b92612baf6020850191611971565b5f915b838310612bbf5750505050565b60026020600192612bcf85612b82565b815201920192019190612bb2565b612be690612b8e565b90565b90612bf2611a99565b50612bfb611a99565b50612c04611a99565b50612c0d612adf565b50612c16611b7f565b50612c2082613386565b612c32612c2c3361042b565b9161042b565b03612cda57612c4b612c46600b84906110da565b612af8565b612c65612c5f612c5a5f611af7565b61042b565b9161042b565b14612cbb57612c7382613de8565b91612c80600882906109e1565b92612c8d600a83906109e1565b92612cb7612cb1612cab612ca360098790611957565b959497611a9e565b95611a9e565b93612bdd565b9190565b612cd6825f918291637e27328960e01b835260048301610524565b0390fd5b612cf5335f9182916324a1cc3360e21b835260048301610444565b0390fd5b612d01611abf565b50612d0c6006612af8565b90565b612d18906103dc565b5f198114612d265760010190565b611fb7565b50600590565b90565b90612d3e82612d2b565b811015612d4c576020020190565b6105bb565b612d5b6040610adf565b90565b5f5260205f2090565b5490565b612d7481612d67565b821015612d8e57612d86600291612d5e565b910201905f90565b6105bb565b5190565b90612dc260206001612dc894612dba5f8201612db45f8801612d93565b906126df565b019201612d93565b906126df565b565b9190612ddb57612dd991612d97565b565b6109f7565b9081549168010000000000000000831015612e105782612e08916001612e0e95018155612d6b565b90612dca565b565b610716565b612e1f60c0610adf565b90565b90612e2c906103dc565b9052565b52565b612e3d90516103dc565b90565b5190565b5190565b90612e5291612d97565b565b612e79612e73612e6384610f1f565b93612e6e8585612250565b610f2c565b91611971565b5f915b838310612e895750505050565b6002602082612ea2612e9c600195612e44565b86612e48565b01920192019190612e7c565b90612eb891612e54565b565b90612f4960a06005612f4f94612edd5f8201612ed75f8801612e33565b90611de0565b612ef660018201612ef060208801612d93565b906126df565b612f0f60028201612f0960408801612d93565b906126df565b612f2860038201612f2260608801612d93565b906126df565b612f4160048201612f3b60808801612d93565b906126df565b019201612e40565b90612eae565b565b90612f5b91612eba565b565b9190612f6e57612f6c91612eba565b565b6109f7565b9081549168010000000000000000831015612fa35782612f9b916001612fa195018155611da2565b90612f5d565b565b610716565b909591929495612fca612fc3612fbe6012610620565b612d0f565b6012611de0565b612fd46012610620565b93612fe0338690613e88565b612feb858490613bbc565b61300a82613005612ffe600f3390610eb2565b88906109e1565b6126df565b61301f3361301a600b88906110da565b611d72565b61303d613036613031600c33906108e5565b611c94565b8690611d1a565b6130528761304d600a88906109e1565b6126df565b61305b5f6126eb565b5b8061307761307161306c8a612d2b565b6103dc565b916103dc565b10156130e0576130db906130d68a61309961309460098b90611957565b612d31565b6130d16130b36130aa8d8790612d34565b51938690612d34565b516130c86130bf612d51565b945f8601612b39565b60208401612b39565b612de0565b612707565b61305c565b505f939750829550806131ef866131e68a61318b89613170613167869f9b6131626132029f6131598e9f9d6131fd9f6131f49f6131476131509261313e61312d889a929496986009611957565b99613136612e15565b9d8e01612e22565b60208c01612b39565b60408a01612b39565b60608801612b39565b60808601612b39565b612bdd565b60a08301612e30565b61318661317f600d3390610cf2565b8690610d08565b612f51565b6131dd6131a261319d600e33906105a5565b611d92565b986131d48d6131cb6131ba889a929496986009611957565b996131c3612e15565b9e8f01612e22565b60208d01612b39565b60408b01612b39565b60608901612b39565b60808701612b39565b612bdd565b60a08401612e30565b612f73565b3391909161324e61323c6132367fd35bb95e09c04b219e35047ce7b7b300e3384264ef84a40456943dbc0fc17c1493610599565b936109c5565b93613245610272565b9182918261038f565b0390a3565b61325b611a99565b506132666001611a9e565b90565b613271611a99565b5061327b82612933565b61328d6132878361042b565b9161042b565b036132b1576132ae916132a46132a992600f610eb2565b6109e1565b611a9e565b90565b6132cc905f9182916324a1cc3360e21b835260048301610444565b0390fd5b906132dc60ff91611d4f565b9181191691161790565b6132ef906102d1565b90565b90565b9061330a613305613311926132e6565b6132f2565b82546132d0565b9055565b90613335816133306133296010339061187b565b8590611891565b6132f5565b3391909161338161336f6133697f17307eab39ab6107e8899845ad3d59bd9653f200f220920489ca2b5937696c3193610599565b93610599565b93613378610272565b918291826102e3565b0390a3565b61339890613392611abf565b50612933565b90565b916133bf93916133ad84828491611bcb565b6133b56136df565b9390919293613fb1565b565b6133c9611a99565b506133d381613c0d565b6133ed6133e76133e25f611af7565b61042b565b9161042b565b146133fe576133fb90613de8565b90565b613419905f918291637e27328960e01b835260048301610524565b0390fd5b606090565b67ffffffffffffffff811161343a5760208091020190565b610716565b9061345161344c83613422565b610adf565b918252565b61346060c0610adf565b90565b906134fa6134f16005613474613456565b9461348b6134835f8301610620565b5f8801612e22565b6134a361349a60018301610753565b60208801612b39565b6134bb6134b260028301610753565b60408801612b39565b6134d36134ca60038301610753565b60608801612b39565b6134eb6134e260048301610753565b60808801612b39565b01612b8e565b60a08401612e30565b565b61350590613463565b90565b90613512826105cf565b61351b8161343f565b9261352960208501916105d3565b5f915b8383106135395750505050565b60066020600192613549856134fc565b81520192019201919061352c565b61356090613508565b90565b61357a61357f9161357261341d565b50600e6105a5565b613557565b90565b61358e61359391610604565b6118a7565b90565b6135a09054613582565b90565b6135c8916135be6135c3926135b6611a80565b50600561187b565b611891565b613596565b90565b6135dc906135d7613c63565b6135de565b565b806135f96135f36135ee5f611af7565b61042b565b9161042b565b146136095761360790613cb1565b565b61362c6136155f611af7565b5f918291631e4fbdf760e01b835260048301610444565b0390fd5b613639906135cb565b565b90565b60e01b90565b61365861365361365d9261363b565b61363e565b610284565b90565b61366d6349064906613644565b90565b613678611a80565b508061369361368d613688613660565b610284565b91610284565b149081156136a0575b5090565b6136aa9150614105565b5f61369c565b6136c76136cc916136bf611abf565b5060046110da565b612af8565b90565b916136dd929160019261416d565b565b6136e7611abf565b503390565b90565b6137036136fe613708926136ec565b61056e565b6103dc565b90565b9061371691036103dc565b90565b9061372491016103dc565b90565b90613730611abf565b5061373a816142b7565b928061375661375061374b5f611af7565b61042b565b9161042b565b03613895575b508261377861377261376d5f611af7565b61042b565b9161042b565b03613841575b8161379961379361378e5f611af7565b61042b565b9161042b565b0361380b575b6137b4826137af600284906110da565b611d72565b82916137f26137ec6137e67fddf252ad1be2c89b69c2b068fc378daa952ba7f163c4a11628f55a4df523b3ef95610599565b92610599565b926109c5565b926137fb610272565b80613805816104de565b0390a490565b61383c61381860016136ef565b61383661382760038690612948565b9161383183610620565b613719565b90611de0565b61379f565b61385f61384d5f611af7565b826138575f611af7565b905f9261416d565b61389061386c60016136ef565b61388a61387b60038790612948565b9161388583610620565b61370b565b90611de0565b61377e565b6138a290849083916142d6565b5f61375c565b6138b0611a80565b50806138cc6138c66138c185612933565b61042b565b9161042b565b1480156138fb575b9182156138e1575b505090565b6138f492506138ef90612933565b614352565b5f806138dc565b5061390582611ac3565b6139176139118361042b565b9161042b565b146138d4565b91613941939161392f8482849161437a565b6139376136df565b9390919293613fb1565b565b9190600861396391029161395d60018060a01b0384611ccc565b92611ccc565b9181191691161790565b919061398361397e61398b93610599565b611d6f565b908354613943565b9055565b6139a19161399b611abf565b9161396d565b565b5f6139ad91612250565b565b905f036139c1576139bf906139a3565b565b6109f7565b6139d56139db919392936103dc565b926103dc565b82039182116139e657565b611fb7565b634e487b7160e01b5f52603160045260245ffd5b613a0881611ca0565b8015613a29576001900390613a26613a208383611ca4565b90611e17565b55565b6139eb565b613a435f613a3e600b85906110da565b61398f565b613a585f613a53600a85906109e1565b6121a8565b613a6d5f613a68600885906109e1565b6121a8565b613a825f613a7d60098590611957565b6139af565b613a8b5f6126eb565b5b80613ab2613aac613aa7613aa2600c87906108e5565b6108fb565b6103dc565b916103dc565b1015613bb457613af65f613af0613acb600d8690610cf2565b613aea613ae4613add600c89906108e5565b8790610908565b9061094c565b90610d08565b01610620565b613b08613b02856103dc565b916103dc565b14613b1b57613b1690612707565b613a8c565b613bb19250613bac91613ba0613ba792613b9b613b6a613b3d600d8690610cf2565b613b64613b54613b4f600c89906108e5565b6108fb565b613b5e60016136ef565b906139c6565b90610d08565b91613b95613b8f613b7d600d8890610cf2565b92613b8a600c89906108e5565b610908565b9061094c565b90610d08565b6123ef565b600c6108e5565b611c94565b6139ff565b5b565b505050613bb2565b90613bd290613bcd600784906109e1565b6126df565b613c087ff8e1a15aba9398e019f0b49df1a4fde98ee17ae345cb5f6b5e2c27f5033e8ce791613bff610272565b91829182610524565b0390a1565b613c15611abf565b50613c1f816142b7565b9081613c3b613c35613c305f611af7565b61042b565b9161042b565b14613c44575090565b613c5f905f918291637e27328960e01b835260048301610524565b0390fd5b613c6b612cf9565b613c84613c7e613c796136df565b61042b565b9161042b565b03613c8b57565b613cad613c966136df565b5f91829163118cdaa760e01b835260048301610444565b0390fd5b613cbb6006612af8565b613cc6826006611d72565b90613cfa613cf47f8be0079c531659141344cd1fd0a4f28419497f9722a3daafe3b4186f6b6457e093610599565b91610599565b91613d03610272565b80613d0d816104de565b0390a3565b613d2e613d1e5f611af7565b82613d285f611af7565b91613727565b613d48613d42613d3d5f611af7565b61042b565b9161042b565b14613d505750565b613d6b905f918291637e27328960e01b835260048301610524565b0390fd5b90565b5190565b905090565b613da0613d9792602092613d8e8161033c565b94858093613d76565b93849101610349565b0190565b613db290613db89392613d7b565b90613d7b565b90565b613dda9291613de691613dcc610272565b948592602084019283613da4565b9081038252038361072a565b565b613df0611a99565b50613dfa81613c0d565b50613e0f613e0a600783906109e1565b611a9e565b613e17614463565b613e28613e2382613d6f565b613d72565b613e3a613e345f6126eb565b916103dc565b14613e8257613e50613e4b83613d6f565b613d72565b613e62613e5c5f6126eb565b916103dc565b11613e75575050613e7290614477565b90565b613e7f9250613dbb565b90565b50905090565b90613e9c9190613e96611c89565b916144e3565b565b613ea790610571565b90565b613eb390613e9e565b90565b613ebf9061058d565b90565b90505190613ecf82610290565b565b90602082820312613eea57613ee7915f01613ec2565b90565b61027c565b60209181520190565b613f17613f20602093613f2593613f0e81613d72565b93848093613eef565b95869101610349565b610354565b0190565b9092613f5c90613f52613f699694613f4860808601975f870190610437565b6020850190610437565b6040830190610517565b6060818403910152613ef8565b90565b90613f7e613f79836114b7565b610adf565b918252565b606090565b3d5f14613fa357613f983d613f6c565b903d5f602084013e5b565b613fab613f83565b90613fa1565b9193843b613fc7613fc15f6126eb565b916103dc565b11613fd4575b5050505050565b61400c5f602094614017613fef613fea8a613eaa565b613eb6565b9463150b7a02929698614000610272565b998a988997889661363e565b865260048601613f29565b03925af180915f926140d5575b50155f146140925750600161403f57505b5f80808080613fcd565b614047613f88565b9061405182613d72565b61406361405d5f6126eb565b916103dc565b145f1461408957614085905f918291633250574960e11b835260048301610444565b0390fd5b50805190602001fd5b6140ab6140a5630a85bd0160e11b610284565b91610284565b036140b65750614035565b6140d1905f918291633250574960e11b835260048301610444565b0390fd5b6140f791925060203d81116140fe575b6140ef818361072a565b810190613ed1565b905f614024565b503d6140e5565b61410d611a80565b50806141286141226380ac58cd60e01b610284565b91610284565b14801561414c575b90811561413c575b5090565b6141469150614511565b5f614138565b5080614167614161635b5e139f60e01b610284565b91610284565b14614130565b919092808015614294575b614196575b50509061418f614194929160046110da565b611d72565b565b61419f84613c0d565b91806141bb6141b56141b05f611af7565b61042b565b9161042b565b141580614279575b8061425f575b61424057509161418f9161419494936141e5575b50919261417d565b81849061422461421e6142187f8c5be1e5ebec7d5bd14f71427d1e84f3dd0314c0f7b2291e5b200ac8c7c3b92595610599565b92610599565b926109c5565b9261422d610272565b80614237816104de565b0390a45f6141dd565b61425b905f91829163a9fbf51f60e01b835260048301610444565b0390fd5b5061427461426e8483906135a3565b156102d1565b6141c9565b508261428d6142878361042b565b9161042b565b14156141c3565b50816142b06142aa6142a55f611af7565b61042b565b9161042b565b1415614178565b6142ce6142d3916142c6611abf565b5060026110da565b612af8565b90565b6142eb6142e582848691614537565b156102d1565b6142f457505050565b61430e6143086143035f611af7565b61042b565b9161042b565b145f1461433457614330825f918291637e27328960e01b835260048301610524565b0390fd5b61434e5f92839263177e802f60e01b84526004840161256e565b0390fd5b6143779161436d61437292614365611a80565b50601061187b565b611891565b613596565b90565b908061439661439061438b5f611af7565b61042b565b9161042b565b14614431576143af90836143a95f611af7565b91613727565b90816143cb6143c56143c05f611af7565b61042b565b9161042b565b145f146143f1576143ed835f918291637e27328960e01b835260048301610524565b0390fd5b8192916144066144008361042b565b9161042b565b0361441057505050565b61442d9091925f9384936364283d7b60e01b855260048501611b99565b0390fd5b61445461443d5f611af7565b5f918291633250574960e11b835260048301610444565b0390fd5b614460611c7d565b90565b61446b611a99565b50614474614458565b90565b61447f611a99565b5061448981613c0d565b50614492614463565b906144a461449f83613d6f565b613d72565b6144b66144b05f6126eb565b916103dc565b115f146144d4576144ca6144d09291614667565b90613dbb565b5b90565b50506144de614458565b6144d1565b909161450f926144f4838290614710565b6144fc6136df565b926145065f611af7565b90919293613fb1565b565b614519611a80565b5061453361452d6301ffc9a760e01b610284565b91610284565b1490565b9190614541611a80565b508061455d6145576145525f611af7565b61042b565b9161042b565b1415928361456c575b50505090565b809192935061458361457d8461042b565b9161042b565b149081156145c5575b5091821561459f575b50505f8080614566565b6145bd9192506145b16145b7916136b0565b9261042b565b9161042b565b145f80614595565b6145d1915082906135a3565b5f61458c565b369037565b906146016145e983611c66565b926020806145f78693610af4565b92019103906145d7565b565b600161460f91036103dc565b90565b90565b61462961462461462e92614612565b61056e565b6103dc565b90565b634e487b7160e01b5f52601260045260245ffd5b614651614657916103dc565b916103dc565b908115614662570490565b614631565b61466f611a99565b5061468c61467c82614928565b61468660016136ef565b90613719565b90614696826145dc565b9161469f611b7f565b5060200182015b600115614709576146b96146e591614603565b916f181899199a1a9b1b9c1cb0b131b232b360811b600a82061a83536146df600a614615565b90614645565b806146f86146f25f6126eb565b916103dc565b1461470357906146a6565b50505b90565b5050614706565b908161472c6147266147215f611af7565b61042b565b9161042b565b1461478d57614745919061473f5f611af7565b91613727565b61475f6147596147545f611af7565b61042b565b9161042b565b0361476657565b6147896147725f611af7565b5f9182916339e3563760e11b835260048301610444565b0390fd5b6147b06147995f611af7565b5f918291633250574960e11b835260048301610444565b0390fd5b90565b6147cb6147c66147d0926147b4565b61056e565b6103dc565b90565b90565b6147ea6147e56147ef926147d3565b61056e565b6103dc565b90565b90565b61480961480461480e926147f2565b61056e565b6103dc565b90565b90565b61482861482361482d92614811565b61056e565b6103dc565b90565b90565b61484761484261484c92614830565b61056e565b6103dc565b90565b90565b61486661486161486b9261484f565b61056e565b6103dc565b90565b90565b61488561488061488a9261486e565b61056e565b6103dc565b90565b90565b6148a461489f6148a99261488d565b61056e565b6103dc565b90565b90565b6148c36148be6148c8926148ac565b61056e565b6103dc565b90565b90565b6148e26148dd6148e7926148cb565b61056e565b6103dc565b90565b90565b6149016148fc614906926148ea565b61056e565b6103dc565b90565b90565b61492061491b61492592614909565b61056e565b6103dc565b90565b614930611b7f565b5061493a5f6126eb565b90806149696149637a184f03e93ff9f4daa797ed6e38ed64bf6a1f0100000000000000006147b7565b916103dc565b1015614b41575b8061499161498b6d04ee2d6d415b85acef81000000006147f5565b916103dc565b1015614b06575b806149b26149ac662386f26fc10000614833565b916103dc565b1015614ad2575b806149d06149ca6305f5e100614871565b916103dc565b1015614aa1575b806149ec6149e66127106148af565b916103dc565b1015614a72575b80614a07614a0160646148ed565b916103dc565b1015614a44575b614a21614a1b600a614615565b916103dc565b1015614a2b575b90565b614a3f90614a3960016136ef565b90613719565b614a28565b614a5b614a6c91614a5560646148ed565b90614645565b91614a66600261490c565b90613719565b90614a0e565b614a8a614a9b91614a846127106148af565b90614645565b91614a9560046148ce565b90613719565b906149f3565b614abb614acc91614ab56305f5e100614871565b90614645565b91614ac66008614890565b90613719565b906149d7565b614aef614b0091614ae9662386f26fc10000614833565b90614645565b91614afa6010614852565b90613719565b906149b9565b614b2a614b3b91614b246d04ee2d6d415b85acef81000000006147f5565b90614645565b91614b356020614814565b90613719565b90614998565b614b72614b8391614b6c7a184f03e93ff9f4daa797ed6e38ed64bf6a1f0100000000000000006147b7565b90614645565b91614b7d60406147d6565b90613719565b9061497056fea264697066735822122091aa5ba4e9632423a089ec8b5f8cd5423e9d94ae0107f4fb5befd8a40cff937a64736f6c634300081c0033","linkReferences":{}},"methodIdentifiers":{"_operatorApprovals(address,address)":"edc3bc3f","_ownerToTokenStruct(address,uint256)":"1b79e76a","_tokenApprovals(uint256)":"a7cc0136","_tokenAttributes(uint256,uint256)":"eefc002a","_tokenDescriptions(uint256)":"28e30966","_tokenImageURIs(uint256)":"e3a0ce31","_tokenOwners(uint256)":"92673ff5","_tokens(address,uint256)":"5a04e497","approve(address,uint256)":"095ea7b3","balanceOf(address)":"70a08231","burn(uint256)":"42966c68","burnToken(uint256)":"7b47ec1a","getApproved(uint256)":"081812fc","getContractsOwner()":"6288667f","getOwnersTokensAll(address)":"d7a8274d","getTokenImageURI(address,uint256)":"99c91984","getTokenOwner(uint256)":"a5cd761f","getUsersTokenInfo(uint256)":"842291d0","getUsersTokens(address)":"509044be","isApprovedForAll(address,address)":"e985e9c5","mintNFT(string,string,string,string,string[5],string[5])":"955a6157","name()":"06fdde03","owner()":"8da5cb5b","ownerOf(uint256)":"6352211e","ownerTokens(address,uint256)":"28b60031","ownerTotokenImageURI(address,uint256)":"7d6e1d15","renounceOwnership()":"715018a6","safeTransferFrom(address,address,uint256)":"42842e0e","safeTransferFrom(address,address,uint256,bytes)":"b88d4fde","setApprovalForAll(address,bool)":"a22cb465","supportsInterface(bytes4)":"01ffc9a7","symbol()":"95d89b41","tokenURI(uint256)":"c87b56dd","totalSupply()":"18160ddd","transferFrom(address,address,uint256)":"23b872dd","transferOwnership(address)":"f2fde38b","updateTokenURI(uint256,address,string)":"4a9146d0"},"id":42}