{"abi":[{"type":"constructor","inputs":[{"name":"_name","type":"string","internalType":"string"},{"name":"_symbol","type":"string","internalType":"string"},{"name":"_owner","type":"address","internalType":"address"}],"stateMutability":"nonpayable"},{"type":"function","name":"_operatorApprovals","inputs":[{"name":"","type":"address","internalType":"address"},{"name":"","type":"address","internalType":"address"}],"outputs":[{"name":"","type":"bool","internalType":"bool"}],"stateMutability":"view"},{"type":"function","name":"_ownerToTokenStruct","inputs":[{"name":"","type":"address","internalType":"address"},{"name":"","type":"uint256","internalType":"uint256"}],"outputs":[{"name":"tokenId","type":"uint256","internalType":"uint256"},{"name":"tokenName","type":"string","internalType":"string"},{"name":"tokenURI","type":"string","internalType":"string"},{"name":"tokenImageURI","type":"string","internalType":"string"},{"name":"description","type":"string","internalType":"string"}],"stateMutability":"view"},{"type":"function","name":"_tokenApprovals","inputs":[{"name":"","type":"uint256","internalType":"uint256"}],"outputs":[{"name":"","type":"address","internalType":"address"}],"stateMutability":"view"},{"type":"function","name":"_tokenAttributes","inputs":[{"name":"","type":"uint256","internalType":"uint256"},{"name":"","type":"uint256","internalType":"uint256"}],"outputs":[{"name":"trait_type","type":"string","internalType":"string"},{"name":"value","type":"string","internalType":"string"}],"stateMutability":"view"},{"type":"function","name":"_tokenOwners","inputs":[{"name":"","type":"uint256","internalType":"uint256"}],"outputs":[{"name":"","type":"address","internalType":"address"}],"stateMutability":"view"},{"type":"function","name":"_tokens","inputs":[{"name":"","type":"address","internalType":"address"},{"name":"","type":"uint256","internalType":"uint256"}],"outputs":[{"name":"tokenId","type":"uint256","internalType":"uint256"},{"name":"tokenName","type":"string","internalType":"string"},{"name":"tokenURI","type":"string","internalType":"string"},{"name":"tokenImageURI","type":"string","internalType":"string"},{"name":"description","type":"string","internalType":"string"}],"stateMutability":"view"},{"type":"function","name":"approve","inputs":[{"name":"to","type":"address","internalType":"address"},{"name":"tokenId","type":"uint256","internalType":"uint256"}],"outputs":[],"stateMutability":"nonpayable"},{"type":"function","name":"balanceOf","inputs":[{"name":"owner","type":"address","internalType":"address"}],"outputs":[{"name":"","type":"uint256","internalType":"uint256"}],"stateMutability":"view"},{"type":"function","name":"burn","inputs":[{"name":"tokenId","type":"uint256","internalType":"uint256"}],"outputs":[],"stateMutability":"nonpayable"},{"type":"function","name":"burnToken","inputs":[{"name":"tokenId","type":"uint256","internalType":"uint256"}],"outputs":[],"stateMutability":"nonpayable"},{"type":"function","name":"getApproved","inputs":[{"name":"tokenId","type":"uint256","internalType":"uint256"}],"outputs":[{"name":"","type":"address","internalType":"address"}],"stateMutability":"view"},{"type":"function","name":"getOwnersTokensAll","inputs":[{"name":"user","type":"address","internalType":"address"}],"outputs":[{"name":"","type":"tuple[]","internalType":"struct DynamicNFT.Token[]","components":[{"name":"tokenId","type":"uint256","internalType":"uint256"},{"name":"tokenName","type":"string","internalType":"string"},{"name":"tokenURI","type":"string","internalType":"string"},{"name":"tokenImageURI","type":"string","internalType":"string"},{"name":"description","type":"string","internalType":"string"},{"name":"attributes","type":"tuple[]","internalType":"struct DynamicNFT.Attribute[]","components":[{"name":"trait_type","type":"string","internalType":"string"},{"name":"value","type":"string","internalType":"string"}]}]}],"stateMutability":"view"},{"type":"function","name":"getTokenOwner","inputs":[{"name":"tokenId","type":"uint256","internalType":"uint256"}],"outputs":[{"name":"","type":"address","internalType":"address"}],"stateMutability":"view"},{"type":"function","name":"isApprovedForAll","inputs":[{"name":"owner","type":"address","internalType":"address"},{"name":"operator","type":"address","internalType":"address"}],"outputs":[{"name":"","type":"bool","internalType":"bool"}],"stateMutability":"view"},{"type":"function","name":"mintNFT","inputs":[{"name":"recipient","type":"address","internalType":"address"},{"name":"_tokenURI","type":"string","internalType":"string"},{"name":"_tokenImageURI","type":"string","internalType":"string"},{"name":"tokenName","type":"string","internalType":"string"},{"name":"description","type":"string","internalType":"string"},{"name":"keys","type":"string[5]","internalType":"string[5]"},{"name":"values","type":"string[5]","internalType":"string[5]"}],"outputs":[],"stateMutability":"nonpayable"},{"type":"function","name":"name","inputs":[],"outputs":[{"name":"","type":"string","internalType":"string"}],"stateMutability":"view"},{"type":"function","name":"owner","inputs":[],"outputs":[{"name":"","type":"address","internalType":"address"}],"stateMutability":"view"},{"type":"function","name":"ownerOf","inputs":[{"name":"tokenId","type":"uint256","internalType":"uint256"}],"outputs":[{"name":"","type":"address","internalType":"address"}],"stateMutability":"view"},{"type":"function","name":"ownerTokens","inputs":[{"name":"","type":"address","internalType":"address"},{"name":"","type":"uint256","internalType":"uint256"}],"outputs":[{"name":"","type":"uint256","internalType":"uint256"}],"stateMutability":"view"},{"type":"function","name":"renounceOwnership","inputs":[],"outputs":[],"stateMutability":"nonpayable"},{"type":"function","name":"safeTransferFrom","inputs":[{"name":"from","type":"address","internalType":"address"},{"name":"to","type":"address","internalType":"address"},{"name":"tokenId","type":"uint256","internalType":"uint256"}],"outputs":[],"stateMutability":"nonpayable"},{"type":"function","name":"safeTransferFrom","inputs":[{"name":"from","type":"address","internalType":"address"},{"name":"to","type":"address","internalType":"address"},{"name":"tokenId","type":"uint256","internalType":"uint256"},{"name":"data","type":"bytes","internalType":"bytes"}],"outputs":[],"stateMutability":"nonpayable"},{"type":"function","name":"setApprovalForAll","inputs":[{"name":"operator","type":"address","internalType":"address"},{"name":"approved","type":"bool","internalType":"bool"}],"outputs":[],"stateMutability":"nonpayable"},{"type":"function","name":"supportsInterface","inputs":[{"name":"interfaceId","type":"bytes4","internalType":"bytes4"}],"outputs":[{"name":"","type":"bool","internalType":"bool"}],"stateMutability":"view"},{"type":"function","name":"symbol","inputs":[],"outputs":[{"name":"","type":"string","internalType":"string"}],"stateMutability":"view"},{"type":"function","name":"tokenURI","inputs":[{"name":"tokenId","type":"uint256","internalType":"uint256"}],"outputs":[{"name":"","type":"string","internalType":"string"}],"stateMutability":"view"},{"type":"function","name":"totalSupply","inputs":[],"outputs":[{"name":"","type":"uint256","internalType":"uint256"}],"stateMutability":"view"},{"type":"function","name":"transferFrom","inputs":[{"name":"from","type":"address","internalType":"address"},{"name":"to","type":"address","internalType":"address"},{"name":"tokenId","type":"uint256","internalType":"uint256"}],"outputs":[],"stateMutability":"nonpayable"},{"type":"function","name":"transferOwnership","inputs":[{"name":"newOwner","type":"address","internalType":"address"}],"outputs":[],"stateMutability":"nonpayable"},{"type":"function","name":"updateTokenURI","inputs":[{"name":"tokenId","type":"uint256","internalType":"uint256"},{"name":"updater","type":"address","internalType":"address"},{"name":"newTokenURI","type":"string","internalType":"string"}],"outputs":[],"stateMutability":"nonpayable"},{"type":"event","name":"Approval","inputs":[{"name":"owner","type":"address","indexed":true,"internalType":"address"},{"name":"approved","type":"address","indexed":true,"internalType":"address"},{"name":"tokenId","type":"uint256","indexed":true,"internalType":"uint256"}],"anonymous":false},{"type":"event","name":"ApprovalForAll","inputs":[{"name":"owner","type":"address","indexed":true,"internalType":"address"},{"name":"operator","type":"address","indexed":true,"internalType":"address"},{"name":"approved","type":"bool","indexed":false,"internalType":"bool"}],"anonymous":false},{"type":"event","name":"BatchMetadataUpdate","inputs":[{"name":"_fromTokenId","type":"uint256","indexed":false,"internalType":"uint256"},{"name":"_toTokenId","type":"uint256","indexed":false,"internalType":"uint256"}],"anonymous":false},{"type":"event","name":"MetadataUpdate","inputs":[{"name":"_tokenId","type":"uint256","indexed":false,"internalType":"uint256"}],"anonymous":false},{"type":"event","name":"NFTBurned","inputs":[{"name":"minter","type":"address","indexed":true,"internalType":"address"},{"name":"tokenId","type":"uint256","indexed":true,"internalType":"uint256"}],"anonymous":false},{"type":"event","name":"NFTMinted","inputs":[{"name":"minter","type":"address","indexed":true,"internalType":"address"},{"name":"tokenId","type":"uint256","indexed":true,"internalType":"uint256"},{"name":"tokenURI","type":"string","indexed":false,"internalType":"string"}],"anonymous":false},{"type":"event","name":"NFTTransfer","inputs":[{"name":"from","type":"address","indexed":true,"internalType":"address"},{"name":"to","type":"address","indexed":true,"internalType":"address"},{"name":"tokenId","type":"uint256","indexed":true,"internalType":"uint256"}],"anonymous":false},{"type":"event","name":"NFTUpdated","inputs":[{"name":"minter","type":"address","indexed":true,"internalType":"address"},{"name":"tokenId","type":"uint256","indexed":true,"internalType":"uint256"},{"name":"tokenURI","type":"string","indexed":false,"internalType":"string"}],"anonymous":false},{"type":"event","name":"OwnershipTransferred","inputs":[{"name":"previousOwner","type":"address","indexed":true,"internalType":"address"},{"name":"newOwner","type":"address","indexed":true,"internalType":"address"}],"anonymous":false},{"type":"event","name":"Transfer","inputs":[{"name":"from","type":"address","indexed":true,"internalType":"address"},{"name":"to","type":"address","indexed":true,"internalType":"address"},{"name":"tokenId","type":"uint256","indexed":true,"internalType":"uint256"}],"anonymous":false},{"type":"error","name":"DynamicNFT_EmptyOrNotFittingConditionsPropertyNameOrValue","inputs":[]},{"type":"error","name":"DynamicNFT_InvalidTokenURI","inputs":[]},{"type":"error","name":"DynamicNFT_NotElligibleToMint","inputs":[{"name":"minter","type":"address","internalType":"address"}]},{"type":"error","name":"DynamicNFT_NotElligibleToUpdate","inputs":[{"name":"minter","type":"address","internalType":"address"},{"name":"tokenId","type":"uint256","internalType":"uint256"}]},{"type":"error","name":"ERC721IncorrectOwner","inputs":[{"name":"sender","type":"address","internalType":"address"},{"name":"tokenId","type":"uint256","internalType":"uint256"},{"name":"owner","type":"address","internalType":"address"}]},{"type":"error","name":"ERC721InsufficientApproval","inputs":[{"name":"operator","type":"address","internalType":"address"},{"name":"tokenId","type":"uint256","internalType":"uint256"}]},{"type":"error","name":"ERC721InvalidApprover","inputs":[{"name":"approver","type":"address","internalType":"address"}]},{"type":"error","name":"ERC721InvalidOperator","inputs":[{"name":"operator","type":"address","internalType":"address"}]},{"type":"error","name":"ERC721InvalidOwner","inputs":[{"name":"owner","type":"address","internalType":"address"}]},{"type":"error","name":"ERC721InvalidReceiver","inputs":[{"name":"receiver","type":"address","internalType":"address"}]},{"type":"error","name":"ERC721InvalidSender","inputs":[{"name":"sender","type":"address","internalType":"address"}]},{"type":"error","name":"ERC721NonexistentToken","inputs":[{"name":"tokenId","type":"uint256","internalType":"uint256"}]},{"type":"error","name":"NotTokenOwner","inputs":[{"name":"tokenOwner","type":"address","internalType":"address"}]},{"type":"error","name":"OwnableInvalidOwner","inputs":[{"name":"owner","type":"address","internalType":"address"}]},{"type":"error","name":"OwnableUnauthorizedAccount","inputs":[{"name":"account","type":"address","internalType":"address"}]},{"type":"error","name":"ReentrancyGuardReentrantCall","inputs":[]}],"bytecode":{"object":"0x6080604052346100305761001a6100146101cf565b916101f2565b610022610035565b614b636106c28239614b6390f35b61003b565b60405190565b5f80fd5b601f801991011690565b634e487b7160e01b5f52604160045260245ffd5b906100679061003f565b810190811060018060401b0382111761007f57604052565b610049565b90610097610090610035565b928361005d565b565b5f80fd5b5f80fd5b5f80fd5b5f80fd5b60018060401b0381116100c5576100c160209161003f565b0190565b610049565b90825f9392825e0152565b909291926100ea6100e5826100a9565b610084565b9381855260208501908284011161010657610104926100ca565b565b6100a5565b9080601f8301121561012957816020610126935191016100d5565b90565b6100a1565b60018060a01b031690565b6101429061012e565b90565b61014e81610139565b0361015557565b5f80fd5b9050519061016682610145565b565b90916060828403126101ca575f82015160018060401b0381116101c5578361019191840161010b565b9260208301519060018060401b0382116101c0576101b4816101bd93860161010b565b93604001610159565b90565b61009d565b61009d565b610099565b6101ed615225803803806101e281610084565b928339810190610168565b909192565b906101ff9291909161028d565b565b90565b90565b90565b61021e61021961022392610201565b610207565b610204565b90565b610230600161020a565b90565b5f1b90565b906102445f1991610233565b9181191691161790565b61026261025d61026792610204565b610207565b610204565b90565b90565b9061028261027d6102899261024e565b61026a565b8254610238565b9055565b9061029892916102ac565b6102aa6102a3610226565b600861026d565b565b906102b792916102b9565b565b906102c49291610313565b565b90565b6102dd6102d86102e2926102c6565b610207565b61012e565b90565b6102ee906102c9565b90565b6102fa90610139565b9052565b9190610311905f602085019401906102f1565b565b9161031d916105a1565b8061033861033261032d5f6102e5565b610139565b91610139565b146103485761034690610660565b565b61036b6103545f6102e5565b5f918291631e4fbdf760e01b8352600483016102fe565b0390fd5b5190565b634e487b7160e01b5f52602260045260245ffd5b90600160028304921680156103a7575b60208310146103a257565b610373565b91607f1691610397565b5f5260205f2090565b601f602091010490565b1b90565b919060086103e39102916103dd5f19846103c4565b926103c4565b9181191691161790565b91906104036103fe61040b9361024e565b61026a565b9083546103c8565b9055565b5f90565b6104259161041f61040f565b916103ed565b565b5b818110610433575050565b806104405f600193610413565b01610428565b9190601f8111610456575b505050565b610462610487936103b1565b90602061046e846103ba565b8301931061048f575b610480906103ba565b0190610427565b5f8080610451565b915061048081929050610477565b1c90565b906104b1905f199060080261049d565b191690565b816104c0916104a1565b906002021790565b906104d28161036f565b9060018060401b038211610590576104f4826104ee8554610387565b85610446565b602090601f831160011461052857918091610517935f9261051c575b50506104b6565b90555b565b90915001515f80610510565b601f19831691610537856103b1565b925f5b8181106105785750916002939185600196941061055e575b5050500201905561051a565b61056e910151601f8416906104a1565b90555f8080610552565b9193602060018192878701518155019501920161053a565b610049565b9061059f916104c8565b565b906105af6105b6925f610595565b6001610595565b565b5f1c90565b60018060a01b031690565b6105d46105d9916105b8565b6105bd565b90565b6105e690546105c8565b90565b906105fa60018060a01b0391610233565b9181191691161790565b61061861061361061d9261012e565b610207565b61012e565b90565b61062990610604565b90565b61063590610620565b90565b90565b9061065061064b6106579261062c565b610638565b82546105e9565b9055565b5f0190565b61066a60066105dc565b61067582600661063b565b906106a96106a37f8be0079c531659141344cd1fd0a4f28419497f9722a3daafe3b4186f6b6457e09361062c565b9161062c565b916106b2610035565b806106bc8161065b565b0390a356fe60806040526004361015610013575b611697565b61001d5f356101fc565b806301ffc9a7146101f757806306fdde03146101f2578063081812fc146101ed578063095ea7b3146101e857806318160ddd146101e35780631b79e76a146101de57806323b872dd146101d957806328b60031146101d457806342842e0e146101cf57806342966c68146101ca5780634a9146d0146101c55780635a04e497146101c05780636352211e146101bb57806370a08231146101b6578063715018a6146101b15780637b47ec1a146101ac5780638da5cb5b146101a757806392673ff5146101a257806395d89b411461019d578063a22cb46514610198578063a5cd761f14610193578063a7cc01361461018e578063b03e4a0f14610189578063b88d4fde14610184578063c87b56dd1461017f578063d7a8274d1461017a578063e985e9c514610175578063edc3bc3f14610170578063eefc002a1461016b5763f2fde38b0361000e57611664565b61162d565b61150f565b611460565b6113fe565b6111a6565b61116f565b61105a565b610e7b565b610e2d565b610df9565b610d74565b610d3f565b610caa565b610c77565b610c44565b610c0f565b610bbc565b610b82565b610ab1565b610989565b610955565b61091f565b610841565b6107cd565b6104c9565b610473565b6103e9565b610337565b610288565b60e01c90565b60405190565b5f80fd5b5f80fd5b5f80fd5b63ffffffff60e01b1690565b61022981610214565b0361023057565b5f80fd5b9050359061024182610220565b565b9060208282031261025c57610259915f01610234565b90565b61020c565b151590565b61026f90610261565b9052565b9190610286905f60208501940190610266565b565b346102b8576102b46102a361029e366004610243565b61169f565b6102ab610202565b91829182610273565b0390f35b610208565b5f9103126102c757565b61020c565b5190565b60209181520190565b90825f9392825e0152565b601f801991011690565b61030d61031660209361031b93610304816102cc565b938480936102d0565b958691016102d9565b6102e4565b0190565b6103349160208201915f8184039101526102ee565b90565b34610367576103473660046102bd565b6103636103526116c5565b61035a610202565b9182918261031f565b0390f35b610208565b90565b6103788161036c565b0361037f57565b5f80fd5b905035906103908261036f565b565b906020828203126103ab576103a8915f01610383565b90565b61020c565b60018060a01b031690565b6103c4906103b0565b90565b6103d0906103bb565b9052565b91906103e7905f602085019401906103c7565b565b34610419576104156104046103ff366004610392565b6116de565b61040c610202565b918291826103d4565b0390f35b610208565b610427816103bb565b0361042e57565b5f80fd5b9050359061043f8261041e565b565b9190604083820312610469578061045d610466925f8601610432565b93602001610383565b90565b61020c565b5f0190565b346104a25761048c610486366004610441565b9061171e565b610494610202565b8061049e8161046e565b0390f35b610208565b6104b09061036c565b9052565b91906104c7905f602085019401906104a7565b565b346104f9576104d93660046102bd565b6104f56104e461179e565b6104ec610202565b918291826104b4565b0390f35b610208565b90565b61051561051061051a926103b0565b6104fe565b6103b0565b90565b61052690610501565b90565b6105329061051d565b90565b9061053f90610529565b5f5260205260405f2090565b634e487b7160e01b5f52603260045260245ffd5b5490565b5f5260205f2090565b6105758161055f565b82101561058f57610587600691610563565b910201905f90565b61054b565b5f1c90565b90565b6105a86105ad91610594565b610599565b90565b6105ba905461059c565b90565b634e487b7160e01b5f52602260045260245ffd5b90600160028304921680156105f1575b60208310146105ec57565b6105bd565b91607f16916105e1565b60209181520190565b5f5260205f2090565b905f9291805490610627610620836105d1565b80946105fb565b916001811690815f1461067e5750600114610642575b505050565b61064f9192939450610604565b915f925b81841061066657505001905f808061063d565b60018160209295939554848601520191019290610653565b92949550505060ff19168252151560200201905f808061063d565b906106a39161060d565b90565b634e487b7160e01b5f52604160045260245ffd5b906106c4906102e4565b810190811067ffffffffffffffff8211176106de57604052565b6106a6565b906107036106fc926106f3610202565b93848092610699565b03836106ba565b565b61071090600d610535565b9061071a8261055f565b81101561076c5761072a9161056c565b506107365f82016105b0565b91610743600183016106e3565b91610750600282016106e3565b916107696004610762600385016106e3565b93016106e3565b90565b5f80fd5b93906107ca95936107a06107ae926107bc9561079360a08a01925f8b01906104a7565b88820360208a01526102ee565b9086820360408801526102ee565b9084820360608601526102ee565b9160808184039101526102ee565b90565b34610802576107fe6107e96107e3366004610441565b90610705565b916107f5959395610202565b95869586610770565b0390f35b610208565b909160608284031261083c57610839610822845f8501610432565b936108308160208601610432565b93604001610383565b90565b61020c565b346108705761085a610854366004610807565b916117e6565b610862610202565b8061086c8161046e565b0390f35b610208565b9061087f90610529565b5f5260205260405f2090565b5490565b5f5260205f2090565b6108a18161088b565b8210156108bb576108b360019161088f565b910201905f90565b61054b565b1c90565b6108d49060086108d993026108c0565b610599565b90565b906108e791546108c4565b90565b6108f590600b610875565b6108fe8161088b565b82101561091b576109189161091291610898565b906108dc565b90565b5f80fd5b346109505761094c61093b610935366004610441565b906108ea565b610943610202565b918291826104b4565b0390f35b610208565b346109845761096e610968366004610807565b91612029565b610976610202565b806109808161046e565b0390f35b610208565b346109b7576109a161099c366004610392565b61217d565b6109a9610202565b806109b38161046e565b0390f35b610208565b5f80fd5b5f80fd5b906109d76109d0610202565b92836106ba565b565b67ffffffffffffffff81116109f7576109f36020916102e4565b0190565b6106a6565b90825f939282370152565b90929192610a1c610a17826109d9565b6109c4565b93818552602085019082840111610a3857610a36926109fc565b565b6109c0565b9080601f83011215610a5b57816020610a5893359101610a07565b90565b6109bc565b91606083830312610aac57610a77825f8501610383565b92610a858360208301610432565b92604082013567ffffffffffffffff8111610aa757610aa49201610a3d565b90565b610210565b61020c565b34610ae057610aca610ac4366004610a60565b9161246e565b610ad2610202565b80610adc8161046e565b0390f35b610208565b90610aef90610529565b5f5260205260405f2090565b610b0f610b0a610b149261036c565b6104fe565b61036c565b90565b90610b2190610afb565b5f5260205260405f2090565b90610b3c610b4192600c610ae5565b610b17565b610b4c5f82016105b0565b91610b59600183016106e3565b91610b66600282016106e3565b91610b7f6004610b78600385016106e3565b93016106e3565b90565b34610bb757610bb3610b9e610b98366004610441565b90610b2d565b91610baa959395610202565b95869586610770565b0390f35b610208565b34610bec57610be8610bd7610bd2366004610392565b61247b565b610bdf610202565b918291826103d4565b0390f35b610208565b90602082820312610c0a57610c07915f01610432565b90565b61020c565b34610c3f57610c3b610c2a610c25366004610bf1565b6124a6565b610c32610202565b918291826104b4565b0390f35b610208565b34610c7257610c543660046102bd565b610c5c612531565b610c64610202565b80610c6e8161046e565b0390f35b610208565b34610ca557610c8f610c8a366004610392565b61261c565b610c97610202565b80610ca18161046e565b0390f35b610208565b34610cda57610cba3660046102bd565b610cd6610cc5612648565b610ccd610202565b918291826103d4565b0390f35b610208565b90610ce990610afb565b5f5260205260405f2090565b60018060a01b031690565b610d10906008610d1593026108c0565b610cf5565b90565b90610d239154610d00565b90565b610d3c90610d37600a915f92610cdf565b610d18565b90565b34610d6f57610d6b610d5a610d55366004610392565b610d26565b610d62610202565b918291826103d4565b0390f35b610208565b34610da457610d843660046102bd565b610da0610d8f61265e565b610d97610202565b9182918261031f565b0390f35b610208565b610db281610261565b03610db957565b5f80fd5b90503590610dca82610da9565b565b9190604083820312610df45780610de8610df1925f8601610432565b93602001610dbd565b90565b61020c565b34610e2857610e12610e0c366004610dcc565b906126b9565b610e1a610202565b80610e248161046e565b0390f35b610208565b34610e5d57610e59610e48610e43366004610392565b61272a565b610e50610202565b918291826103d4565b0390f35b610208565b610e7890610e73600f915f92610cdf565b610d18565b90565b34610eab57610ea7610e96610e91366004610392565b610e62565b610e9e610202565b918291826103d4565b0390f35b610208565b67ffffffffffffffff8111610ec55760200290565b6106a6565b5f80fd5b929190610ee2610edd82610eb0565b6109c4565b936020859202810191838311610f345781905b838210610f03575050505050565b813567ffffffffffffffff8111610f2f57602091610f248784938701610a3d565b815201910190610ef5565b6109bc565b610eca565b9080601f83011215610f5457610f5191600590610ece565b90565b6109bc565b9060e08282031261105557610f70815f8401610432565b92602083013567ffffffffffffffff81116110505782610f91918501610a3d565b92604081013567ffffffffffffffff811161104b5783610fb2918301610a3d565b92606082013567ffffffffffffffff81116110465781610fd3918401610a3d565b92608083013567ffffffffffffffff81116110415782610ff4918501610a3d565b9260a081013567ffffffffffffffff811161103c5783611015918301610f39565b9260c082013567ffffffffffffffff8111611037576110349201610f39565b90565b610210565b610210565b610210565b610210565b610210565b610210565b61020c565b3461108f5761107961106d366004610f59565b959490949391936131ae565b611081610202565b8061108b8161046e565b0390f35b610208565b67ffffffffffffffff81116110b2576110ae6020916102e4565b0190565b6106a6565b909291926110cc6110c782611094565b6109c4565b938185526020850190828401116110e8576110e6926109fc565b565b6109c0565b9080601f8301121561110b57816020611108933591016110b7565b90565b6109bc565b9060808282031261116a57611127815f8401610432565b926111358260208501610432565b926111438360408301610383565b92606082013567ffffffffffffffff81116111655761116292016110ed565b90565b610210565b61020c565b346111a15761118b611182366004611110565b929190916131bf565b611193610202565b8061119d8161046e565b0390f35b610208565b346111d6576111d26111c16111bc366004610392565b6131e5565b6111c9610202565b9182918261031f565b0390f35b610208565b5190565b60209181520190565b60200190565b6111f79061036c565b9052565b61121a61122360209361122893611211816102cc565b938480936105fb565b958691016102d9565b6102e4565b0190565b5190565b60209181520190565b60200190565b61126d91602061125c604083015f8501518482035f8601526111fb565b9201519060208184039101526111fb565b90565b9061127a9161123f565b90565b60200190565b906112976112908361122c565b8092611230565b90816112a860208302840194611239565b925f915b8383106112bb57505050505090565b909192939460206112dd6112d783856001950387528951611270565b9761127d565b93019301919392906112ac565b6113699160a061135861134661133461132260c086016113105f8901515f8901906111ee565b602088015187820360208901526111fb565b604087015186820360408801526111fb565b606086015185820360608701526111fb565b608085015184820360808601526111fb565b9201519060a0818403910152611283565b90565b90611376916112ea565b90565b60200190565b9061139361138c836111db565b80926111df565b90816113a4602083028401946111e8565b925f915b8383106113b757505050505090565b909192939460206113d96113d38385600195038752895161136c565b97611379565b93019301919392906113a8565b6113fb9160208201915f81840391015261137f565b90565b3461142e5761142a611419611414366004610bf1565b613387565b611421610202565b918291826113e6565b0390f35b610208565b919060408382031261145b578061144f611458925f8601610432565b93602001610432565b90565b61020c565b346114915761148d61147c611476366004611433565b906133c7565b611484610202565b91829182610273565b0390f35b610208565b906114a090610529565b5f5260205260405f2090565b906114b690610529565b5f5260205260405f2090565b60ff1690565b6114d89060086114dd93026108c0565b6114c2565b90565b906114eb91546114c8565b90565b61150761150c92611502600e935f94611496565b6114ac565b6114e0565b90565b346115405761153c61152b611525366004611433565b906114ee565b611533610202565b91829182610273565b0390f35b610208565b919060408382031261156d578061156161156a925f8601610383565b93602001610383565b90565b61020c565b9061157c90610afb565b5f5260205260405f2090565b5490565b5f5260205f2090565b61159e81611588565b8210156115b8576115b060029161158c565b910201905f90565b61054b565b6115c8906009611572565b906115d282611588565b8110156115fe576115e291611595565b50906115fb60016115f45f85016106e3565b93016106e3565b90565b5f80fd5b909161161c61162a9360408401908482035f8601526102ee565b9160208184039101526102ee565b90565b3461165f57611646611640366004611545565b906115bd565b9061165b611652610202565b92839283611602565b0390f35b610208565b346116925761167c611677366004610bf1565b613454565b611684610202565b8061168e8161046e565b0390f35b610208565b5f80fd5b5f90565b6116b1906116ab61169b565b5061348e565b90565b606090565b6116c2906106e3565b90565b6116cd6116b4565b506116d75f6116b9565b90565b5f90565b6116f0906116ea6116da565b506134ce565b90565b90565b61170a61170561170f926116f3565b6104fe565b6103b0565b90565b61171b906116f6565b90565b906117288161247b565b3361173b611735836103bb565b916103bb565b1415908161177e575b5061175f5761175d91906117575f611712565b916134ed565b565b61177a335f9182916324a1cc3360e21b8352600483016103d4565b0390fd5b611794915061178e9033906133c7565b15610261565b5f611744565b5f90565b6117a661179a565b506117b160106105b0565b90565b6040906117dd6117e494969593966117d360608401985f8501906103c7565b60208301906104a7565b01906103c7565b565b9190806118036117fd6117f85f611712565b6103bb565b916103bb565b1461185a5761181b90826118156134fd565b91613526565b918261182f611829836103bb565b916103bb565b0361183957505050565b6118569091925f9384936364283d7b60e01b8552600485016117b4565b0390fd5b61187d6118665f611712565b5f918291633250574960e11b8352600483016103d4565b0390fd5b9061189361188e836109d9565b6109c4565b918252565b6118a15f611881565b90565b6118ac611898565b90565b90565b5f5260205f2090565b5490565b6118c8816118bb565b8210156118e2576118da6001916118b2565b910201905f90565b61054b565b1b90565b919060086119069102916119005f19846118e7565b926118e7565b9181191691161790565b90565b919061192961192461193193610afb565b611910565b9083546118eb565b9055565b9081549168010000000000000000831015611965578261195d916001611963950181556118bf565b90611913565b565b6106a6565b5f1b90565b9061198060018060a01b039161196a565b9181191691161790565b90565b906119a261199d6119a992610529565b61198a565b825461196f565b9055565b90565b5f5260205f2090565b5490565b6119c6816119b9565b8210156119e0576119d86006916119b0565b910201905f90565b61054b565b634e487b7160e01b5f525f60045260245ffd5b90611a045f199161196a565b9181191691161790565b90611a23611a1e611a2a92610afb565b611910565b82546119f8565b9055565b611a3890546105d1565b90565b601f602091010490565b611a5791611a5161179a565b91611913565b565b5b818110611a65575050565b80611a725f600193611a45565b01611a5a565b9190601f8111611a88575b505050565b611a94611ab993610604565b906020611aa084611a3b565b83019310611ac1575b611ab290611a3b565b0190611a59565b5f8080611a83565b9150611ab281929050611aa9565b90611adf905f19906008026108c0565b191690565b81611aee91611acf565b906002021790565b90808214611bd557611b0781611a2e565b9067ffffffffffffffff8211611bd057611b2b82611b2585546105d1565b85611a78565b5f90601f8311600114611b5e57918091611b4d935f92611b52575b5050611ae4565b90555b565b90915001545f80611b46565b90611b6d601f19841692610604565b90611b7785610604565b925f5b818110611bb857509160029391856001969410611b9e575b50505002019055611b50565b611bae910154601f841690611acf565b90555f8080611b92565b91936001806020928787015481550195019201611b7a565b6106a6565b5050565b90611be391611af6565b565b634e487b7160e01b5f52601160045260245ffd5b611c08611c0e9193929361036c565b9261036c565b91611c1a83820261036c565b928184041490151715611c2957565b611be5565b611c39906002611bf9565b90565b90611c4f905f19906020036008026108c0565b8154169055565b905f91611c6d611c6582610604565b928354611ae4565b905555565b919290602082105f14611ccb57601f8411600114611c9b57611c95929350611ae4565b90555b5b565b5090611cc1611cc6936001611cb8611cb285610604565b92611a3b565b82019101611a59565b611c56565b611c98565b50611d028293611cdc600194610604565b611cfb611ce885611a3b565b820192601f861680611d0d575b50611a3b565b0190611a59565b600202179055611c99565b611d1990888603611c3c565b5f611cf5565b929091680100000000000000008211611d7f576020115f14611d7057602081105f14611d5457611d4e91611ae4565b90555b5b565b60019160ff1916611d6484610604565b55600202019055611d51565b60019150600202019055611d52565b6106a6565b908154611d90816105d1565b90818311611db9575b818310611da7575b50505050565b611db093611c72565b5f808080611da1565b611dc583838387611d1f565b611d99565b5f611dd491611d84565b565b905f03611de857611de690611dca565b565b6119e5565b5f6001611e0692611e0083808301611dd6565b01611dd6565b565b905f03611e1a57611e1890611ded565b565b6119e5565b5b818110611e2b575050565b80611e385f600293611e08565b01611e20565b9091828110611e4d575b505050565b611e6b611e65611e5f611e7695611c2e565b92611c2e565b9261158c565b918201910190611e1f565b5f8080611e48565b90680100000000000000008111611ea75781611e9c611ea593611588565b90828155611e3e565b565b6106a6565b90808203611eb9575b5050565b60018083611ecf5f611ed896015f860190611bd9565b01910190611bd9565b5f80611eb5565b90611ee991611eac565b565b818114611f4357611f17611f11611f0184611588565b93611f0c8585611e7e565b61158c565b9161158c565b5f915b838310611f275750505050565b60028082611f3760019486611edf565b01920192019190611f1a565b5050565b90611f5191611eeb565b565b90808203611f60575b5050565b60058083611f7e5f611fcb9601611f785f87016105b0565b90611a0e565b611f8f600182016001860190611bd9565b611fa0600282016002860190611bd9565b611fb1600382016003860190611bd9565b611fc2600482016004860190611bd9565b01910190611f47565b5f80611f5c565b9190611fe357611fe191611f53565b565b6119e5565b90815491680100000000000000008310156120185782612010916001612016950181556119bd565b90611fd2565b565b6106a6565b9061202791611f53565b565b91909161204061203a8284906136a7565b15610261565b61215e57612059818484906120536118a4565b9261371c565b61207761207061206b600b8690610875565b6118af565b8390611935565b61208c83612087600a8590610cdf565b61198d565b6120bf6120a361209e600d8690610535565b6119ad565b6120b96120b2600c8590610ae5565b8590610b17565b90611fe8565b6120f36120d86120d1600c8490610ae5565b8490610b17565b6120ee6120e7600c8790610ae5565b8590610b17565b61201d565b6120fe81839061382d565b61210983839061171e565b9161214661214061213a7ffd19e66d1a4315847e95661bab80aff36f6801c5b2eeeca82491034bd7660abe95610529565b92610529565b92610afb565b9261214f610202565b806121598161046e565b0390a4565b612179905f9182916324a1cc3360e21b8352600483016103d4565b0390fd5b6121999061218a5f611712565b906121936134fd565b91613526565b50565b9160206121bd9294936121b660408201965f8301906103c7565b01906104a7565b565b929190809380946121cf8661272a565b6121e16121db836103bb565b916103bb565b14158061221b575b6121fb57506121f9939450612344565b565b85906122175f928392637d8d887360e11b84526004840161219c565b0390fd5b508061223761223161222c5f611712565b6103bb565b916103bb565b14156121e9565b90612248816102cc565b9067ffffffffffffffff82116123085761226c8261226685546105d1565b85611a78565b602090601f83116001146122a05791809161228f935f92612294575b5050611ae4565b90555b565b90915001515f80612288565b601f198316916122af85610604565b925f5b8181106122f0575091600293918560019694106122d6575b50505002019055612292565b6122e6910151601f841690611acf565b90555f80806122ca565b919360206001819287870151815501950192016122b2565b6106a6565b906123179161223e565b565b61232d612328612332926116f3565b6104fe565b61036c565b90565b6001612341910161036c565b90565b90916123518282906139a7565b61237381600261236d612366600c8890610ae5565b8690610b17565b0161230d565b61237c5f612319565b5b806123a361239d612398612393600d8990610535565b61055f565b61036c565b9161036c565b1015612466576123ca5f6123c36123bc600d8890610535565b849061056c565b50016105b0565b6123dc6123d68561036c565b9161036c565b146123ef576123ea90612335565b61237d565b61241590600261240e8495969492612409600d8790610535565b61056c565b500161230d565b5b91909161246161244f6124497f51c048cc4b1abd5e706cec09236de72e247e8108b9f7e608bd2f7b41451334e693610529565b93610afb565b93612458610202565b9182918261031f565b0390a3565b509091612416565b9061247992916121bf565b565b61248d906124876116da565b506139f8565b90565b9061249a90610529565b5f5260205260405f2090565b6124ae61179a565b50806124ca6124c46124bf5f611712565b6103bb565b916103bb565b146124e5576124dd6124e2916003612490565b6105b0565b90565b6125086124f15f611712565b5f9182916322718ad960e21b8352600483016103d4565b0390fd5b612514613a4e565b61251c61251e565b565b61252f61252a5f611712565b613a9c565b565b61253961250c565b565b3381906125478261272a565b612559612553836103bb565b916103bb565b141580612590575b612572575050612570906125b3565b565b61258c5f928392637d8d887360e11b84526004840161219c565b0390fd5b50806125ac6125a66125a15f611712565b6103bb565b916103bb565b1415612561565b6125c66125bf8261247b565b829061382d565b6125cf81613afd565b33906126046125fe7fd6a6bcd88cdc4656d5f4e14e7dfbc9bc3f2f9811f8d6b508f3bee7d999d4d41c93610529565b91610afb565b9161260d610202565b806126178161046e565b0390a3565b6126259061253b565b565b61263361263891610594565b610cf5565b90565b6126459054612627565b90565b6126506116da565b5061265b600661263b565b90565b6126666116b4565b5061267160016116b9565b90565b9061268060ff9161196a565b9181191691161790565b61269390610261565b90565b90565b906126ae6126a96126b59261268a565b612696565b8254612674565b9055565b906126d9816126d46126cd600e3390611496565b85906114ac565b612699565b3391909161272561271361270d7f17307eab39ab6107e8899845ad3d59bd9653f200f220920489ca2b5937696c3193610529565b93610529565b9361271c610202565b91829182610273565b0390a3565b61273c906127366116da565b5061247b565b90565b90612756969594939291612751613b86565b612760565b61275e613beb565b565b96959493929190878861278361277d6127785f611712565b6103bb565b916103bb565b1461279557612793979850612cd2565b565b6127b0895f918291632ee4645760e01b8352600483016103d4565b0390fd5b6127bd9061036c565b5f1981146127cb5760010190565b611be5565b90565b6127e76127e26127ec926127d0565b6104fe565b61036c565b90565b90565b61280661280161280b926127ef565b6104fe565b61036c565b90565b90565b61282561282061282a9261280e565b6104fe565b61036c565b90565b90565b61284461283f6128499261282d565b6104fe565b61036c565b90565b60e01b90565b9050519061285f82610da9565b565b9060208282031261287a57612877915f01612852565b90565b61020c565b60209181520190565b6128a76128b06020936128b59361289e816102cc565b9384809361287f565b958691016102d9565b6102e4565b0190565b5f7f697066733a2f2f00000000000000000000000000000000000000000000000000910152565b6128ed600760209261287f565b6128f6816128b9565b0190565b6129126129209260408301908382035f850152612888565b9060208183039101526128e0565b90565b61292b610202565b3d5f823e3d90fd5b50600590565b9061294382612933565b811015612951576020020190565b61054b565b90565b61296d61296861297292612956565b6104fe565b61036c565b90565b90565b61298c61298761299192612975565b6104fe565b61036c565b90565b90565b6129a160406109c4565b90565b52565b5f5260205f2090565b5490565b6129bd816129b0565b8210156129d7576129cf6002916129a7565b910201905f90565b61054b565b5190565b90612a0b60206001612a1194612a035f82016129fd5f88016129dc565b9061230d565b0192016129dc565b9061230d565b565b9190612a2457612a22916129e0565b565b6119e5565b9081549168010000000000000000831015612a595782612a51916001612a57950181556129b4565b90612a13565b565b6106a6565b612a6860c06109c4565b90565b90612a759061036c565b9052565b67ffffffffffffffff8111612a915760208091020190565b6106a6565b90612aa8612aa383612a79565b6109c4565b918252565b612ab760406109c4565b90565b90612af1612ae86001612acb612aad565b94612ae2612ada5f83016106e3565b5f88016129a4565b016106e3565b602084016129a4565b565b612afc90612aba565b90565b90612b0982611588565b612b1281612a96565b92612b20602085019161158c565b5f915b838310612b305750505050565b60026020600192612b4085612af3565b815201920192019190612b23565b612b5790612aff565b90565b52565b612b67905161036c565b90565b5190565b5190565b90612b7c916129e0565b565b612ba3612b9d612b8d8461122c565b93612b988585611e7e565b611239565b9161158c565b5f915b838310612bb35750505050565b6002602082612bcc612bc6600195612b6e565b86612b72565b01920192019190612ba6565b90612be291612b7e565b565b90612c7360a06005612c7994612c075f8201612c015f8801612b5d565b90611a0e565b612c2060018201612c1a602088016129dc565b9061230d565b612c3960028201612c33604088016129dc565b9061230d565b612c5260038201612c4c606088016129dc565b9061230d565b612c6b60048201612c65608088016129dc565b9061230d565b019201612b6a565b90612bd8565b565b90612c8591612be4565b565b9190612c9857612c9691612be4565b565b6119e5565b9081549168010000000000000000831015612ccd5782612cc5916001612ccb950181556119bd565b90612c87565b565b6106a6565b90919593949692612cf5612cee612ce960106105b0565b6127b4565b6010611a0e565b612cff60106105b0565b95612d29612d23836003612d1d612d176019926127d3565b916127f2565b91613c64565b15610261565b801561317e575b61316257612d7660208573__$c5c2169d14f6ec243ae58c3481e5a26ce7$__612d6b633fb18aec612d5f610202565b9586948593849361284c565b8352600483016128fa565b03915af4801561315d57612d92915f9161312f575b5015610261565b8015613098575b61307c57612da8838890613d67565b612db38785906139a7565b612dc883612dc3600a8a90610cdf565b61198d565b612de6612ddf612dda600b8690610875565b6118af565b8890611935565b612def5f612319565b5b80612e0b612e05612e008d612933565b61036c565b9161036c565b1015612f0757612e45612e3f612e228c8490612939565b516001612e39612e33601192612811565b91612959565b91613c64565b15610261565b80612ece575b612eb257612ead90612ea8612e6a612e6560098c90611572565b612994565b612e758d8490612939565b5190612ea3612e858c8690612939565b51612e9a612e91612997565b945f86016129a4565b602084016129a4565b612a29565b612335565b612df0565b5f6328217bcd60e01b815280612eca6004820161046e565b0390fd5b50612f02612efc612ee0898490612939565b515f612ef6612ef0601892612319565b91612978565b91613c64565b15610261565b612e4b565b5061302c9498508295508161301988613010846130078d612ffe859f8c9f8d9c612fc45f9f5f906130279f61301e9f91612f9b612fcb97612f92612fa094612f89612fa997612f80612fd09e612f77612f66889a929496986009611572565b99612f6f612a5e565b9d8e01612a6b565b60208c016129a4565b60408a016129a4565b606088016129a4565b608086016129a4565b612b4e565b60a08301612b5a565b612fbf612fb8600c8590610ae5565b8c90610b17565b612c7b565b600d610535565b6119ad565b9a612ff5612fe4889a929496986009611572565b99612fed612a5e565b9e8f01612a6b565b60208d016129a4565b60408b016129a4565b606089016129a4565b608087016129a4565b612b4e565b60a08401612b5a565b612c9d565b91909161307761306561305f7fd35bb95e09c04b219e35047ce7b7b300e3384264ef84a40456943dbc0fc17c1493610529565b93610afb565b9361306e610202565b9182918261031f565b0390a3565b5f6374f46ee160e11b8152806130946004820161046e565b0390fd5b506130db60208973__$c5c2169d14f6ec243ae58c3481e5a26ce7$__6130d0633fb18aec6130c4610202565b9586948593849361284c565b8352600483016128fa565b03915af4801561312a576130f7915f916130fc575b5015610261565b612d99565b61311d915060203d8111613123575b61311581836106ba565b810190612861565b5f6130f0565b503d61310b565b612923565b613150915060203d8111613156575b61314881836106ba565b810190612861565b5f612d8b565b503d61313e565b612923565b5f6328217bcd60e01b81528061317a6004820161046e565b0390fd5b506131a96131a382600161319d61319761012c92612811565b91612830565b91613c64565b15610261565b612d30565b906131bd96959493929161273f565b565b916131e393916131d1848284916117e6565b6131d96134fd565b9390919293613e90565b565b6131ed6116b4565b506131f7816139f8565b61321161320b6132065f611712565b6103bb565b916103bb565b146132225761321f90614028565b90565b61323d905f918291637e27328960e01b8352600483016104b4565b0390fd5b606090565b67ffffffffffffffff811161325e5760208091020190565b6106a6565b9061327561327083613246565b6109c4565b918252565b61328460c06109c4565b90565b9061331e613315600561329861327a565b946132af6132a75f83016105b0565b5f8801612a6b565b6132c76132be600183016106e3565b602088016129a4565b6132df6132d6600283016106e3565b604088016129a4565b6132f76132ee600383016106e3565b606088016129a4565b61330f613306600483016106e3565b608088016129a4565b01612aff565b60a08401612b5a565b565b61332990613287565b90565b906133368261055f565b61333f81613263565b9261334d6020850191610563565b5f915b83831061335d5750505050565b6006602060019261336d85613320565b815201920192019190613350565b6133849061332c565b90565b61339e6133a391613396613241565b50600d610535565b61337b565b90565b6133b26133b791610594565b6114c2565b90565b6133c490546133a6565b90565b6133ec916133e26133e7926133da61169b565b506005611496565b6114ac565b6133ba565b90565b613400906133fb613a4e565b613402565b565b8061341d6134176134125f611712565b6103bb565b916103bb565b1461342d5761342b90613a9c565b565b6134506134395f611712565b5f918291631e4fbdf760e01b8352600483016103d4565b0390fd5b61345d906133ef565b565b90565b61347661347161347b9261345f565b61284c565b610214565b90565b61348b6349064906613462565b90565b61349661169b565b50806134b16134ab6134a661347e565b610214565b91610214565b149081156134be575b5090565b6134c891506140c8565b5f6134ba565b6134e56134ea916134dd6116da565b506004610cdf565b61263b565b90565b916134fb9291600192614130565b565b6135056116da565b503390565b90613515910361036c565b90565b90613523910161036c565b90565b9061352f6116da565b506135398161427a565b928061355561354f61354a5f611712565b6103bb565b916103bb565b03613694575b508261357761357161356c5f611712565b6103bb565b916103bb565b03613640575b8161359861359261358d5f611712565b6103bb565b916103bb565b0361360a575b6135b3826135ae60028490610cdf565b61198d565b82916135f16135eb6135e57fddf252ad1be2c89b69c2b068fc378daa952ba7f163c4a11628f55a4df523b3ef95610529565b92610529565b92610afb565b926135fa610202565b806136048161046e565b0390a490565b61363b6136176001612811565b61363561362660038690612490565b91613630836105b0565b613518565b90611a0e565b61359e565b61365e61364c5f611712565b826136565f611712565b905f92614130565b61368f61366b6001612811565b61368961367a60038790612490565b91613684836105b0565b61350a565b90611a0e565b61357d565b6136a19084908391614299565b5f61355b565b6136af61169b565b50806136cb6136c56136c08561247b565b6103bb565b916103bb565b1480156136fa575b9182156136e0575b505090565b6136f392506136ee9061247b565b614315565b5f806136db565b50613704826116de565b613716613710836103bb565b916103bb565b146136d3565b91613740939161372e8482849161433d565b6137366134fd565b9390919293613e90565b565b9190600861376291029161375c60018060a01b03846118e7565b926118e7565b9181191691161790565b919061378261377d61378a93610529565b61198a565b908354613742565b9055565b6137a09161379a6116da565b9161376c565b565b5f6137ac91611e7e565b565b905f036137c0576137be906137a2565b565b6119e5565b6137d46137da9193929361036c565b9261036c565b82039182116137e557565b611be5565b634e487b7160e01b5f52603160045260245ffd5b613807816118bb565b801561382857600190039061382561381f83836118bf565b90611a45565b55565b6137ea565b6138425f61383d600a8590610cdf565b61378e565b6138575f61385260098590611572565b6137ae565b6138605f612319565b5b8061388761388161387c613877600b8790610875565b61088b565b61036c565b9161036c565b1015613989576138cb5f6138c56138a0600c8690610ae5565b6138bf6138b96138b2600b8990610875565b8790610898565b906108dc565b90610b17565b016105b0565b6138dd6138d78561036c565b9161036c565b146138f0576138eb90612335565b613861565b61398692506139819161397561397c9261397061393f613912600c8690610ae5565b613939613929613924600b8990610875565b61088b565b6139336001612811565b906137c5565b90610b17565b9161396a613964613952600c8890610ae5565b9261395f600b8990610875565b610898565b906108dc565b90610b17565b61201d565b600b610875565b6118af565b6137fe565b5b565b505050613987565b9061399b90610afb565b5f5260205260405f2090565b906139bd906139b860078490613991565b61230d565b6139f37ff8e1a15aba9398e019f0b49df1a4fde98ee17ae345cb5f6b5e2c27f5033e8ce7916139ea610202565b918291826104b4565b0390a1565b613a006116da565b50613a0a8161427a565b9081613a26613a20613a1b5f611712565b6103bb565b916103bb565b14613a2f575090565b613a4a905f918291637e27328960e01b8352600483016104b4565b0390fd5b613a56612648565b613a6f613a69613a646134fd565b6103bb565b916103bb565b03613a7657565b613a98613a816134fd565b5f91829163118cdaa760e01b8352600483016103d4565b0390fd5b613aa6600661263b565b613ab182600661198d565b90613ae5613adf7f8be0079c531659141344cd1fd0a4f28419497f9722a3daafe3b4186f6b6457e093610529565b91610529565b91613aee610202565b80613af88161046e565b0390a3565b613b19613b095f611712565b82613b135f611712565b91613526565b613b33613b2d613b285f611712565b6103bb565b916103bb565b14613b3b5750565b613b56905f918291637e27328960e01b8352600483016104b4565b0390fd5b90565b613b71613b6c613b7692613b5a565b6104fe565b61036c565b90565b613b836002613b5d565b90565b613b9060086105b0565b613ba9613ba3613b9e613b79565b61036c565b9161036c565b14613bc257613bc0613bb9613b79565b6008611a0e565b565b5f633ee5aeb560e01b815280613bda6004820161046e565b0390fd5b613be86001612811565b90565b613bfd613bf6613bde565b6008611a0e565b565b905090565b613c29613c2092602092613c17816102cc565b94858093613bff565b938491016102d9565b0190565b613c3691613c04565b90565b60200190565b5190565b613c4e5f8092613bff565b0190565b613c5b90613c43565b90565b90565b90565b9190613c6e61169b565b50613c8a613c9984613c7e610202565b92839160208301613c2d565b602082018103825203826106ba565b613cab613ca582613c3f565b91613c39565b20613cf7613cf1613cba610202565b613cd981613cca60208201613c52565b602082018103825203826106ba565b613ceb613ce582613c3f565b91613c39565b20613c5e565b91613c5e565b14159081613d3b575b509182613d0d575b505090565b613d33919250613d27613d22613d2d92613c61565b613c3f565b9261036c565b9161036c565b105f80613d08565b9050613d60613d5a613d54613d4f86613c61565b613c3f565b9261036c565b9161036c565b115f613d00565b90613d7b9190613d756118a4565b9161441b565b565b613d8690610501565b90565b613d9290613d7d565b90565b613d9e9061051d565b90565b90505190613dae82610220565b565b90602082820312613dc957613dc6915f01613da1565b90565b61020c565b60209181520190565b613df6613dff602093613e0493613ded81613c3f565b93848093613dce565b958691016102d9565b6102e4565b0190565b9092613e3b90613e31613e489694613e2760808601975f8701906103c7565b60208501906103c7565b60408301906104a7565b6060818403910152613dd7565b90565b90613e5d613e5883611094565b6109c4565b918252565b606090565b3d5f14613e8257613e773d613e4b565b903d5f602084013e5b565b613e8a613e62565b90613e80565b9193843b613ea6613ea05f612319565b9161036c565b11613eb3575b5050505050565b613eeb5f602094613ef6613ece613ec98a613d89565b613d95565b9463150b7a02929698613edf610202565b998a988997889661284c565b865260048601613e08565b03925af180915f92613fb4575b50155f14613f7157506001613f1e57505b5f80808080613eac565b613f26613e67565b90613f3082613c3f565b613f42613f3c5f612319565b9161036c565b145f14613f6857613f64905f918291633250574960e11b8352600483016103d4565b0390fd5b50805190602001fd5b613f8a613f84630a85bd0160e11b610214565b91610214565b03613f955750613f14565b613fb0905f918291633250574960e11b8352600483016103d4565b0390fd5b613fd691925060203d8111613fdd575b613fce81836106ba565b810190613db0565b905f613f03565b503d613fc4565b613ff290613ff89392613c04565b90613c04565b90565b61401a92916140269161400c610202565b948592602084019283613fe4565b908103825203836106ba565b565b6140306116b4565b5061403a816139f8565b5061404f61404a60078390613991565b6116b9565b614057614454565b61406861406382613c61565b613c3f565b61407a6140745f612319565b9161036c565b146140c25761409061408b83613c61565b613c3f565b6140a261409c5f612319565b9161036c565b116140b55750506140b290614468565b90565b6140bf9250613ffb565b90565b50905090565b6140d061169b565b50806140eb6140e56380ac58cd60e01b610214565b91610214565b14801561410f575b9081156140ff575b5090565b61410991506144d4565b5f6140fb565b508061412a614124635b5e139f60e01b610214565b91610214565b146140f3565b919092808015614257575b614159575b50509061415261415792916004610cdf565b61198d565b565b614162846139f8565b918061417e6141786141735f611712565b6103bb565b916103bb565b14158061423c575b80614222575b6142035750916141529161415794936141a8575b509192614140565b8184906141e76141e16141db7f8c5be1e5ebec7d5bd14f71427d1e84f3dd0314c0f7b2291e5b200ac8c7c3b92595610529565b92610529565b92610afb565b926141f0610202565b806141fa8161046e565b0390a45f6141a0565b61421e905f91829163a9fbf51f60e01b8352600483016103d4565b0390fd5b506142376142318483906133c7565b15610261565b61418c565b508261425061424a836103bb565b916103bb565b1415614186565b508161427361426d6142685f611712565b6103bb565b916103bb565b141561413b565b614291614296916142896116da565b506002610cdf565b61263b565b90565b6142ae6142a8828486916144fa565b15610261565b6142b757505050565b6142d16142cb6142c65f611712565b6103bb565b916103bb565b145f146142f7576142f3825f918291637e27328960e01b8352600483016104b4565b0390fd5b6143115f92839263177e802f60e01b84526004840161219c565b0390fd5b61433a916143306143359261432861169b565b50600e611496565b6114ac565b6133ba565b90565b908061435961435361434e5f611712565b6103bb565b916103bb565b146143f457614372908361436c5f611712565b91613526565b908161438e6143886143835f611712565b6103bb565b916103bb565b145f146143b4576143b0835f918291637e27328960e01b8352600483016104b4565b0390fd5b8192916143c96143c3836103bb565b916103bb565b036143d357505050565b6143f09091925f9384936364283d7b60e01b8552600485016117b4565b0390fd5b6144176144005f611712565b5f918291633250574960e11b8352600483016103d4565b0390fd5b90916144479261442c83829061459a565b6144346134fd565b9261443e5f611712565b90919293613e90565b565b614451611898565b90565b61445c6116b4565b50614465614449565b90565b6144706116b4565b5061447a816139f8565b50614483614454565b9061449561449083613c61565b613c3f565b6144a76144a15f612319565b9161036c565b115f146144c5576144bb6144c192916146ce565b90613ffb565b5b90565b50506144cf614449565b6144c2565b6144dc61169b565b506144f66144f06301ffc9a760e01b610214565b91610214565b1490565b919061450461169b565b508061452061451a6145155f611712565b6103bb565b916103bb565b1415928361452f575b50505090565b8091929350614546614540846103bb565b916103bb565b14908115614588575b50918215614562575b50505f8080614529565b61458091925061457461457a916134ce565b926103bb565b916103bb565b145f80614558565b614594915082906133c7565b5f61454f565b90816145b66145b06145ab5f611712565b6103bb565b916103bb565b14614617576145cf91906145c95f611712565b91613526565b6145e96145e36145de5f611712565b6103bb565b916103bb565b036145f057565b6146136145fc5f611712565b5f9182916339e3563760e11b8352600483016103d4565b0390fd5b61463a6146235f611712565b5f918291633250574960e11b8352600483016103d4565b0390fd5b369037565b9061466861465083611881565b9260208061465e86936109d9565b920191039061463e565b565b6001614676910361036c565b90565b90565b61469061468b61469592614679565b6104fe565b61036c565b90565b634e487b7160e01b5f52601260045260245ffd5b6146b86146be9161036c565b9161036c565b9081156146c9570490565b614698565b6146d66116b4565b506146f36146e3826148cc565b6146ed6001612811565b90613518565b906146fd82614643565b9161470661179a565b5060200182015b6001156147705761472061474c9161466a565b916f181899199a1a9b1b9c1cb0b131b232b360811b600a82061a8353614746600a61467c565b906146ac565b8061475f6147595f612319565b9161036c565b1461476a579061470d565b50505b90565b505061476d565b90565b61478e61478961479392614777565b6104fe565b61036c565b90565b90565b6147ad6147a86147b292614796565b6104fe565b61036c565b90565b90565b6147cc6147c76147d1926147b5565b6104fe565b61036c565b90565b90565b6147eb6147e66147f0926147d4565b6104fe565b61036c565b90565b90565b61480a61480561480f926147f3565b6104fe565b61036c565b90565b90565b61482961482461482e92614812565b6104fe565b61036c565b90565b90565b61484861484361484d92614831565b6104fe565b61036c565b90565b90565b61486761486261486c92614850565b6104fe565b61036c565b90565b90565b61488661488161488b9261486f565b6104fe565b61036c565b90565b90565b6148a56148a06148aa9261488e565b6104fe565b61036c565b90565b90565b6148c46148bf6148c9926148ad565b6104fe565b61036c565b90565b6148d461179a565b506148de5f612319565b908061490d6149077a184f03e93ff9f4daa797ed6e38ed64bf6a1f01000000000000000061477a565b9161036c565b1015614ae5575b8061493561492f6d04ee2d6d415b85acef81000000006147b8565b9161036c565b1015614aaa575b80614956614950662386f26fc100006147f6565b9161036c565b1015614a76575b8061497461496e6305f5e100614834565b9161036c565b1015614a45575b8061499061498a612710614872565b9161036c565b1015614a16575b806149ab6149a560646148b0565b9161036c565b10156149e8575b6149c56149bf600a61467c565b9161036c565b10156149cf575b90565b6149e3906149dd6001612811565b90613518565b6149cc565b6149ff614a10916149f960646148b0565b906146ac565b91614a0a6002613b5d565b90613518565b906149b2565b614a2e614a3f91614a28612710614872565b906146ac565b91614a396004614891565b90613518565b90614997565b614a5f614a7091614a596305f5e100614834565b906146ac565b91614a6a6008614853565b90613518565b9061497b565b614a93614aa491614a8d662386f26fc100006147f6565b906146ac565b91614a9e6010614815565b90613518565b9061495d565b614ace614adf91614ac86d04ee2d6d415b85acef81000000006147b8565b906146ac565b91614ad960206147d7565b90613518565b9061493c565b614b16614b2791614b107a184f03e93ff9f4daa797ed6e38ed64bf6a1f01000000000000000061477a565b906146ac565b91614b216040614799565b90613518565b9061491456fea264697066735822122065ed52e562e62fcaa28ceb0e4bd7b8390f00d53f59b607d54d14c588dec42ffc64736f6c634300081c0033","linkReferences":{"lib/Comparisons.sol":{"PropertyCorrectnessCheckLib":[{"start":13310,"length":20},{"start":14179,"length":20}]}}},"methodIdentifiers":{"_operatorApprovals(address,address)":"edc3bc3f","_ownerToTokenStruct(address,uint256)":"1b79e76a","_tokenApprovals(uint256)":"a7cc0136","_tokenAttributes(uint256,uint256)":"eefc002a","_tokenOwners(uint256)":"92673ff5","_tokens(address,uint256)":"5a04e497","approve(address,uint256)":"095ea7b3","balanceOf(address)":"70a08231","burn(uint256)":"42966c68","burnToken(uint256)":"7b47ec1a","getApproved(uint256)":"081812fc","getOwnersTokensAll(address)":"d7a8274d","getTokenOwner(uint256)":"a5cd761f","isApprovedForAll(address,address)":"e985e9c5","mintNFT(address,string,string,string,string,string[5],string[5])":"b03e4a0f","name()":"06fdde03","owner()":"8da5cb5b","ownerOf(uint256)":"6352211e","ownerTokens(address,uint256)":"28b60031","renounceOwnership()":"715018a6","safeTransferFrom(address,address,uint256)":"42842e0e","safeTransferFrom(address,address,uint256,bytes)":"b88d4fde","setApprovalForAll(address,bool)":"a22cb465","supportsInterface(bytes4)":"01ffc9a7","symbol()":"95d89b41","tokenURI(uint256)":"c87b56dd","totalSupply()":"18160ddd","transferFrom(address,address,uint256)":"23b872dd","transferOwnership(address)":"f2fde38b","updateTokenURI(uint256,address,string)":"4a9146d0"},"id":39}