{"abi":[{"type":"constructor","inputs":[{"name":"_name","type":"string","internalType":"string"},{"name":"_symbol","type":"string","internalType":"string"}],"stateMutability":"nonpayable"},{"type":"function","name":"_operatorApprovals","inputs":[{"name":"","type":"address","internalType":"address"},{"name":"","type":"address","internalType":"address"}],"outputs":[{"name":"","type":"bool","internalType":"bool"}],"stateMutability":"view"},{"type":"function","name":"_ownerToTokenStruct","inputs":[{"name":"","type":"address","internalType":"address"},{"name":"","type":"uint256","internalType":"uint256"}],"outputs":[{"name":"tokenId","type":"uint256","internalType":"uint256"},{"name":"tokenURI","type":"string","internalType":"string"},{"name":"tokenImageURI","type":"string","internalType":"string"},{"name":"description","type":"string","internalType":"string"}],"stateMutability":"view"},{"type":"function","name":"_tokenApprovals","inputs":[{"name":"","type":"uint256","internalType":"uint256"}],"outputs":[{"name":"","type":"address","internalType":"address"}],"stateMutability":"view"},{"type":"function","name":"_tokenAttributes","inputs":[{"name":"","type":"uint256","internalType":"uint256"},{"name":"","type":"uint256","internalType":"uint256"}],"outputs":[{"name":"trait_type","type":"string","internalType":"string"},{"name":"value","type":"string","internalType":"string"}],"stateMutability":"view"},{"type":"function","name":"_tokenDescriptions","inputs":[{"name":"","type":"uint256","internalType":"uint256"}],"outputs":[{"name":"","type":"string","internalType":"string"}],"stateMutability":"view"},{"type":"function","name":"_tokenImageURIs","inputs":[{"name":"","type":"uint256","internalType":"uint256"}],"outputs":[{"name":"","type":"string","internalType":"string"}],"stateMutability":"view"},{"type":"function","name":"_tokenOwners","inputs":[{"name":"","type":"uint256","internalType":"uint256"}],"outputs":[{"name":"","type":"address","internalType":"address"}],"stateMutability":"view"},{"type":"function","name":"_tokens","inputs":[{"name":"","type":"address","internalType":"address"},{"name":"","type":"uint256","internalType":"uint256"}],"outputs":[{"name":"tokenId","type":"uint256","internalType":"uint256"},{"name":"tokenURI","type":"string","internalType":"string"},{"name":"tokenImageURI","type":"string","internalType":"string"},{"name":"description","type":"string","internalType":"string"}],"stateMutability":"view"},{"type":"function","name":"approve","inputs":[{"name":"to","type":"address","internalType":"address"},{"name":"tokenId","type":"uint256","internalType":"uint256"}],"outputs":[],"stateMutability":"nonpayable"},{"type":"function","name":"balanceOf","inputs":[{"name":"owner","type":"address","internalType":"address"}],"outputs":[{"name":"","type":"uint256","internalType":"uint256"}],"stateMutability":"view"},{"type":"function","name":"burn","inputs":[{"name":"tokenId","type":"uint256","internalType":"uint256"}],"outputs":[],"stateMutability":"nonpayable"},{"type":"function","name":"burnToken","inputs":[{"name":"tokenId","type":"uint256","internalType":"uint256"}],"outputs":[],"stateMutability":"nonpayable"},{"type":"function","name":"getApproved","inputs":[{"name":"tokenId","type":"uint256","internalType":"uint256"}],"outputs":[{"name":"","type":"address","internalType":"address"}],"stateMutability":"view"},{"type":"function","name":"getContractsOwner","inputs":[],"outputs":[{"name":"","type":"address","internalType":"address"}],"stateMutability":"view"},{"type":"function","name":"getOwnersTokensAll","inputs":[{"name":"user","type":"address","internalType":"address"}],"outputs":[{"name":"","type":"tuple[]","internalType":"struct DynamicNFT.Token[]","components":[{"name":"tokenId","type":"uint256","internalType":"uint256"},{"name":"tokenURI","type":"string","internalType":"string"},{"name":"tokenImageURI","type":"string","internalType":"string"},{"name":"description","type":"string","internalType":"string"},{"name":"attributes","type":"tuple[]","internalType":"struct DynamicNFT.Attribute[]","components":[{"name":"trait_type","type":"string","internalType":"string"},{"name":"value","type":"string","internalType":"string"}]}]}],"stateMutability":"view"},{"type":"function","name":"getTokenImageURI","inputs":[{"name":"addr","type":"address","internalType":"address"},{"name":"tokenId","type":"uint256","internalType":"uint256"}],"outputs":[{"name":"","type":"string","internalType":"string"}],"stateMutability":"view"},{"type":"function","name":"getTokenOwner","inputs":[{"name":"tokenId","type":"uint256","internalType":"uint256"}],"outputs":[{"name":"","type":"address","internalType":"address"}],"stateMutability":"view"},{"type":"function","name":"getUsersTokenInfo","inputs":[{"name":"tokenId","type":"uint256","internalType":"uint256"}],"outputs":[{"name":"","type":"string","internalType":"string"},{"name":"","type":"string","internalType":"string"},{"name":"","type":"string","internalType":"string"},{"name":"","type":"tuple[]","internalType":"struct DynamicNFT.Attribute[]","components":[{"name":"trait_type","type":"string","internalType":"string"},{"name":"value","type":"string","internalType":"string"}]},{"name":"","type":"uint256","internalType":"uint256"}],"stateMutability":"view"},{"type":"function","name":"getUsersTokens","inputs":[{"name":"user","type":"address","internalType":"address"}],"outputs":[{"name":"","type":"uint256[]","internalType":"uint256[]"}],"stateMutability":"view"},{"type":"function","name":"isApprovedForAll","inputs":[{"name":"owner","type":"address","internalType":"address"},{"name":"operator","type":"address","internalType":"address"}],"outputs":[{"name":"","type":"bool","internalType":"bool"}],"stateMutability":"view"},{"type":"function","name":"mintNFT","inputs":[{"name":"_tokenURI","type":"string","internalType":"string"},{"name":"_tokenImageURI","type":"string","internalType":"string"},{"name":"description","type":"string","internalType":"string"},{"name":"keys","type":"string[5]","internalType":"string[5]"},{"name":"values","type":"string[5]","internalType":"string[5]"}],"outputs":[],"stateMutability":"nonpayable"},{"type":"function","name":"name","inputs":[],"outputs":[{"name":"","type":"string","internalType":"string"}],"stateMutability":"view"},{"type":"function","name":"owner","inputs":[],"outputs":[{"name":"","type":"address","internalType":"address"}],"stateMutability":"view"},{"type":"function","name":"ownerOf","inputs":[{"name":"tokenId","type":"uint256","internalType":"uint256"}],"outputs":[{"name":"","type":"address","internalType":"address"}],"stateMutability":"view"},{"type":"function","name":"ownerTokens","inputs":[{"name":"","type":"address","internalType":"address"},{"name":"","type":"uint256","internalType":"uint256"}],"outputs":[{"name":"","type":"uint256","internalType":"uint256"}],"stateMutability":"view"},{"type":"function","name":"ownerTotokenImageURI","inputs":[{"name":"","type":"address","internalType":"address"},{"name":"","type":"uint256","internalType":"uint256"}],"outputs":[{"name":"","type":"string","internalType":"string"}],"stateMutability":"view"},{"type":"function","name":"renounceOwnership","inputs":[],"outputs":[],"stateMutability":"nonpayable"},{"type":"function","name":"safeTransferFrom","inputs":[{"name":"from","type":"address","internalType":"address"},{"name":"to","type":"address","internalType":"address"},{"name":"tokenId","type":"uint256","internalType":"uint256"}],"outputs":[],"stateMutability":"nonpayable"},{"type":"function","name":"safeTransferFrom","inputs":[{"name":"from","type":"address","internalType":"address"},{"name":"to","type":"address","internalType":"address"},{"name":"tokenId","type":"uint256","internalType":"uint256"},{"name":"data","type":"bytes","internalType":"bytes"}],"outputs":[],"stateMutability":"nonpayable"},{"type":"function","name":"setApprovalForAll","inputs":[{"name":"operator","type":"address","internalType":"address"},{"name":"approved","type":"bool","internalType":"bool"}],"outputs":[],"stateMutability":"nonpayable"},{"type":"function","name":"supportsInterface","inputs":[{"name":"interfaceId","type":"bytes4","internalType":"bytes4"}],"outputs":[{"name":"","type":"bool","internalType":"bool"}],"stateMutability":"view"},{"type":"function","name":"symbol","inputs":[],"outputs":[{"name":"","type":"string","internalType":"string"}],"stateMutability":"view"},{"type":"function","name":"tokenURI","inputs":[{"name":"tokenId","type":"uint256","internalType":"uint256"}],"outputs":[{"name":"","type":"string","internalType":"string"}],"stateMutability":"view"},{"type":"function","name":"totalSupply","inputs":[],"outputs":[{"name":"","type":"uint256","internalType":"uint256"}],"stateMutability":"view"},{"type":"function","name":"transferFrom","inputs":[{"name":"from","type":"address","internalType":"address"},{"name":"to","type":"address","internalType":"address"},{"name":"tokenId","type":"uint256","internalType":"uint256"}],"outputs":[],"stateMutability":"nonpayable"},{"type":"function","name":"transferOwnership","inputs":[{"name":"newOwner","type":"address","internalType":"address"}],"outputs":[],"stateMutability":"nonpayable"},{"type":"function","name":"updateTokenURI","inputs":[{"name":"tokenId","type":"uint256","internalType":"uint256"},{"name":"updater","type":"address","internalType":"address"},{"name":"newTokenURI","type":"string","internalType":"string"}],"outputs":[],"stateMutability":"nonpayable"},{"type":"event","name":"Approval","inputs":[{"name":"owner","type":"address","indexed":true,"internalType":"address"},{"name":"approved","type":"address","indexed":true,"internalType":"address"},{"name":"tokenId","type":"uint256","indexed":true,"internalType":"uint256"}],"anonymous":false},{"type":"event","name":"ApprovalForAll","inputs":[{"name":"owner","type":"address","indexed":true,"internalType":"address"},{"name":"operator","type":"address","indexed":true,"internalType":"address"},{"name":"approved","type":"bool","indexed":false,"internalType":"bool"}],"anonymous":false},{"type":"event","name":"BatchMetadataUpdate","inputs":[{"name":"_fromTokenId","type":"uint256","indexed":false,"internalType":"uint256"},{"name":"_toTokenId","type":"uint256","indexed":false,"internalType":"uint256"}],"anonymous":false},{"type":"event","name":"MetadataUpdate","inputs":[{"name":"_tokenId","type":"uint256","indexed":false,"internalType":"uint256"}],"anonymous":false},{"type":"event","name":"NFTBurned","inputs":[{"name":"minter","type":"address","indexed":true,"internalType":"address"},{"name":"tokenId","type":"uint256","indexed":true,"internalType":"uint256"}],"anonymous":false},{"type":"event","name":"NFTMinted","inputs":[{"name":"minter","type":"address","indexed":true,"internalType":"address"},{"name":"tokenId","type":"uint256","indexed":true,"internalType":"uint256"},{"name":"tokenURI","type":"string","indexed":false,"internalType":"string"}],"anonymous":false},{"type":"event","name":"NFTUpdated","inputs":[{"name":"minter","type":"address","indexed":true,"internalType":"address"},{"name":"tokenId","type":"uint256","indexed":true,"internalType":"uint256"},{"name":"tokenURI","type":"string","indexed":false,"internalType":"string"}],"anonymous":false},{"type":"event","name":"OwnershipTransferred","inputs":[{"name":"previousOwner","type":"address","indexed":true,"internalType":"address"},{"name":"newOwner","type":"address","indexed":true,"internalType":"address"}],"anonymous":false},{"type":"event","name":"Transfer","inputs":[{"name":"from","type":"address","indexed":true,"internalType":"address"},{"name":"to","type":"address","indexed":true,"internalType":"address"},{"name":"tokenId","type":"uint256","indexed":true,"internalType":"uint256"}],"anonymous":false},{"type":"error","name":"DynamicNFT_NotElligibleToMint","inputs":[{"name":"minter","type":"address","internalType":"address"}]},{"type":"error","name":"DynamicNFT_NotElligibleToUpdate","inputs":[{"name":"minter","type":"address","internalType":"address"},{"name":"tokenId","type":"uint256","internalType":"uint256"}]},{"type":"error","name":"ERC721IncorrectOwner","inputs":[{"name":"sender","type":"address","internalType":"address"},{"name":"tokenId","type":"uint256","internalType":"uint256"},{"name":"owner","type":"address","internalType":"address"}]},{"type":"error","name":"ERC721InsufficientApproval","inputs":[{"name":"operator","type":"address","internalType":"address"},{"name":"tokenId","type":"uint256","internalType":"uint256"}]},{"type":"error","name":"ERC721InvalidApprover","inputs":[{"name":"approver","type":"address","internalType":"address"}]},{"type":"error","name":"ERC721InvalidOperator","inputs":[{"name":"operator","type":"address","internalType":"address"}]},{"type":"error","name":"ERC721InvalidOwner","inputs":[{"name":"owner","type":"address","internalType":"address"}]},{"type":"error","name":"ERC721InvalidReceiver","inputs":[{"name":"receiver","type":"address","internalType":"address"}]},{"type":"error","name":"ERC721InvalidSender","inputs":[{"name":"sender","type":"address","internalType":"address"}]},{"type":"error","name":"ERC721NonexistentToken","inputs":[{"name":"tokenId","type":"uint256","internalType":"uint256"}]},{"type":"error","name":"NotTokenOwner","inputs":[{"name":"tokenOwner","type":"address","internalType":"address"}]},{"type":"error","name":"OwnableInvalidOwner","inputs":[{"name":"owner","type":"address","internalType":"address"}]},{"type":"error","name":"OwnableUnauthorizedAccount","inputs":[{"name":"account","type":"address","internalType":"address"}]}],"bytecode":{"object":"0x6080604052346100305761001a610014610187565b906101a9565b610022610035565b61459c61060f823961459c90f35b61003b565b60405190565b5f80fd5b601f801991011690565b634e487b7160e01b5f52604160045260245ffd5b906100679061003f565b810190811060018060401b0382111761007f57604052565b610049565b90610097610090610035565b928361005d565b565b5f80fd5b5f80fd5b5f80fd5b5f80fd5b60018060401b0381116100c5576100c160209161003f565b0190565b610049565b90825f9392825e0152565b909291926100ea6100e5826100a9565b610084565b9381855260208501908284011161010657610104926100ca565b565b6100a5565b9080601f8301121561012957816020610126935191016100d5565b90565b6100a1565b919091604081840312610182575f81015160018060401b03811161017d578361015891830161010b565b92602082015160018060401b03811161017857610175920161010b565b90565b61009d565b61009d565b610099565b6101a5614bab8038038061019a81610084565b92833981019061012e565b9091565b6101b691339190916101b8565b565b906101c392916101c5565b565b906101d09291610239565b565b90565b60018060a01b031690565b90565b6101f76101f26101fc926101d2565b6101e0565b6101d5565b90565b610208906101e3565b90565b610214906101d5565b90565b6102209061020b565b9052565b9190610237905f60208501940190610217565b565b91610243916104e9565b8061025e6102586102535f6101ff565b61020b565b9161020b565b1461026e5761026c906105ad565b565b61029161027a5f6101ff565b5f918291631e4fbdf760e01b835260048301610224565b0390fd5b5190565b634e487b7160e01b5f52602260045260245ffd5b90600160028304921680156102cd575b60208310146102c857565b610299565b91607f16916102bd565b5f5260205f2090565b601f602091010490565b1b90565b919060086103099102916103035f19846102ea565b926102ea565b9181191691161790565b90565b61032a61032561032f92610313565b6101e0565b610313565b90565b90565b919061034b61034661035393610316565b610332565b9083546102ee565b9055565b5f90565b61036d91610367610357565b91610335565b565b5b81811061037b575050565b806103885f60019361035b565b01610370565b9190601f811161039e575b505050565b6103aa6103cf936102d7565b9060206103b6846102e0565b830193106103d7575b6103c8906102e0565b019061036f565b5f8080610399565b91506103c8819290506103bf565b1c90565b906103f9905f19906008026103e5565b191690565b81610408916103e9565b906002021790565b9061041a81610295565b9060018060401b0382116104d85761043c8261043685546102ad565b8561038e565b602090601f83116001146104705791809161045f935f92610464575b50506103fe565b90555b565b90915001515f80610458565b601f1983169161047f856102d7565b925f5b8181106104c0575091600293918560019694106104a6575b50505002019055610462565b6104b6910151601f8416906103e9565b90555f808061049a565b91936020600181928787015181550195019201610482565b610049565b906104e791610410565b565b906104f76104fe925f6104dd565b60016104dd565b565b5f1c90565b60018060a01b031690565b61051c61052191610500565b610505565b90565b61052e9054610510565b90565b5f1b90565b9061054760018060a01b0391610531565b9181191691161790565b61056561056061056a926101d5565b6101e0565b6101d5565b90565b61057690610551565b90565b6105829061056d565b90565b90565b9061059d6105986105a492610579565b610585565b8254610536565b9055565b5f0190565b6105b76006610524565b6105c2826006610588565b906105f66105f07f8be0079c531659141344cd1fd0a4f28419497f9722a3daafe3b4186f6b6457e093610579565b91610579565b916105ff610035565b80610609816105a8565b0390a356fe60806040526004361015610013575b611a15565b61001d5f3561026c565b806301ffc9a71461026757806306fdde0314610262578063081812fc1461025d578063095ea7b31461025857806318160ddd146102535780631b79e76a1461024e57806323b872dd1461024957806328b600311461024457806328e309661461023f5780632e9afebd1461023a57806342842e0e1461023557806342966c68146102305780634a9146d01461022b578063509044be146102265780635a04e497146102215780636288667f1461021c5780636352211e1461021757806370a0823114610212578063715018a61461020d5780637b47ec1a146102085780637d6e1d1514610203578063842291d0146101fe5780638da5cb5b146101f957806392673ff5146101f457806395d89b41146101ef57806399c91984146101ea578063a22cb465146101e5578063a5cd761f146101e0578063a7cc0136146101db578063b88d4fde146101d6578063c87b56dd146101d1578063d7a8274d146101cc578063e3a0ce31146101c7578063e985e9c5146101c2578063edc3bc3f146101bd578063eefc002a146101b85763f2fde38b0361000e576119e2565b6119ab565b61188d565b6117de565b61177c565b61172e565b611577565b611540565b611430565b6113e2565b6113ae565b611328565b6112f3565b6112be565b611229565b6111f0565b61106d565b611003565b610fd0565b610f9b565b610f66565b610f31565b610ef7565b610e4d565b610d5c565b610cd8565b610ca4565b610c6d565b610a1c565b610970565b610892565b61081e565b610539565b6104e3565b610459565b6103a7565b6102f8565b60e01c90565b60405190565b5f80fd5b5f80fd5b5f80fd5b63ffffffff60e01b1690565b61029981610284565b036102a057565b5f80fd5b905035906102b182610290565b565b906020828203126102cc576102c9915f016102a4565b90565b61027c565b151590565b6102df906102d1565b9052565b91906102f6905f602085019401906102d6565b565b346103285761032461031361030e3660046102b3565b611a1d565b61031b610272565b918291826102e3565b0390f35b610278565b5f91031261033757565b61027c565b5190565b60209181520190565b90825f9392825e0152565b601f801991011690565b61037d61038660209361038b936103748161033c565b93848093610340565b95869101610349565b610354565b0190565b6103a49160208201915f81840391015261035e565b90565b346103d7576103b736600461032d565b6103d36103c2611a43565b6103ca610272565b9182918261038f565b0390f35b610278565b90565b6103e8816103dc565b036103ef57565b5f80fd5b90503590610400826103df565b565b9060208282031261041b57610418915f016103f3565b90565b61027c565b60018060a01b031690565b61043490610420565b90565b6104409061042b565b9052565b9190610457905f60208501940190610437565b565b346104895761048561047461046f366004610402565b611a5c565b61047c610272565b91829182610444565b0390f35b610278565b6104978161042b565b0361049e57565b5f80fd5b905035906104af8261048e565b565b91906040838203126104d957806104cd6104d6925f86016104a2565b936020016103f3565b90565b61027c565b5f0190565b34610512576104fc6104f63660046104b1565b90611a71565b610504610272565b8061050e816104de565b0390f35b610278565b610520906103dc565b9052565b9190610537905f60208501940190610517565b565b346105695761054936600461032d565b610565610554611b15565b61055c610272565b91829182610524565b0390f35b610278565b90565b61058561058061058a92610420565b61056e565b610420565b90565b61059690610571565b90565b6105a29061058d565b90565b906105af90610599565b5f5260205260405f2090565b634e487b7160e01b5f52603260045260245ffd5b5490565b5f5260205f2090565b6105e5816105cf565b8210156105ff576105f76005916105d3565b910201905f90565b6105bb565b5f1c90565b90565b61061861061d91610604565b610609565b90565b61062a905461060c565b90565b634e487b7160e01b5f52602260045260245ffd5b9060016002830492168015610661575b602083101461065c57565b61062d565b91607f1691610651565b60209181520190565b5f5260205f2090565b905f929180549061069761069083610641565b809461066b565b916001811690815f146106ee57506001146106b2575b505050565b6106bf9192939450610674565b915f925b8184106106d657505001905f80806106ad565b600181602092959395548486015201910192906106c3565b92949550505060ff19168252151560200201905f80806106ad565b906107139161067d565b90565b634e487b7160e01b5f52604160045260245ffd5b9061073490610354565b810190811067ffffffffffffffff82111761074e57604052565b610716565b9061077361076c92610763610272565b93848092610709565b038361072a565b565b61078090600e6105a5565b9061078a826105cf565b8110156107d05761079a916105dc565b50906107a75f8301610620565b916107b460018201610753565b916107cd60036107c660028501610753565b9301610753565b90565b5f80fd5b926107ff61080d9261081b96946107f260808801925f890190610517565b868203602088015261035e565b90848203604086015261035e565b91606081840391015261035e565b90565b346108535761084f61083a6108343660046104b1565b90610775565b90610846949294610272565b948594856107d4565b0390f35b610278565b909160608284031261088d5761088a610873845f85016104a2565b9361088181602086016104a2565b936040016103f3565b90565b61027c565b346108c1576108ab6108a5366004610858565b91611b88565b6108b3610272565b806108bd816104de565b0390f35b610278565b906108d090610599565b5f5260205260405f2090565b5490565b5f5260205f2090565b6108f2816108dc565b82101561090c576109046001916108e0565b910201905f90565b6105bb565b1c90565b61092590600861092a9302610911565b610609565b90565b906109389154610915565b90565b61094690600c6108c6565b61094f816108dc565b82101561096c5761096991610963916108e9565b9061092d565b90565b5f80fd5b346109a15761099d61098c6109863660046104b1565b9061093b565b610994610272565b91829182610524565b0390f35b610278565b6109ba6109b56109bf926103dc565b61056e565b6103dc565b90565b906109cc906109a6565b5f5260205260405f2090565b634e487b7160e01b5f525f60045260245ffd5b905f106109fe576109fb90610753565b90565b6109d8565b610a1990610a14600a915f926109c2565b6109eb565b90565b34610a4c57610a48610a37610a32366004610402565b610a03565b610a3f610272565b9182918261038f565b0390f35b610278565b5f80fd5b5f80fd5b90610a6c610a65610272565b928361072a565b565b67ffffffffffffffff8111610a8c57610a88602091610354565b0190565b610716565b90825f939282370152565b90929192610ab1610aac82610a6e565b610a59565b93818552602085019082840111610acd57610acb92610a91565b565b610a55565b9080601f83011215610af057816020610aed93359101610a9c565b90565b610a51565b67ffffffffffffffff8111610b0a5760200290565b610716565b5f80fd5b929190610b27610b2282610af5565b610a59565b936020859202810191838311610b795781905b838210610b48575050505050565b813567ffffffffffffffff8111610b7457602091610b698784938701610ad2565b815201910190610b3a565b610a51565b610b0f565b9080601f83011215610b9957610b9691600590610b13565b90565b610a51565b91909160a081840312610c68575f81013567ffffffffffffffff8111610c635783610bca918301610ad2565b92602082013567ffffffffffffffff8111610c5e5781610beb918401610ad2565b92604083013567ffffffffffffffff8111610c595782610c0c918501610ad2565b92606081013567ffffffffffffffff8111610c545783610c2d918301610b7e565b92608082013567ffffffffffffffff8111610c4f57610c4c9201610b7e565b90565b610280565b610280565b610280565b610280565b610280565b61027c565b34610c9f57610c89610c80366004610b9e565b9392909261257b565b610c91610272565b80610c9b816104de565b0390f35b610278565b34610cd357610cbd610cb7366004610858565b9161282c565b610cc5610272565b80610ccf816104de565b0390f35b610278565b34610d0657610cf0610ceb366004610402565b612897565b610cf8610272565b80610d02816104de565b0390f35b610278565b91606083830312610d5757610d22825f85016103f3565b92610d3083602083016104a2565b92604082013567ffffffffffffffff8111610d5257610d4f9201610ad2565b90565b610280565b61027c565b34610d8b57610d75610d6f366004610d0b565b916129b5565b610d7d610272565b80610d87816104de565b0390f35b610278565b90602082820312610da957610da6915f016104a2565b90565b61027c565b5190565b60209181520190565b60200190565b610dca906103dc565b9052565b90610ddb81602093610dc1565b0190565b60200190565b90610e02610dfc610df584610dae565b8093610db2565b92610dbb565b905f5b818110610e125750505090565b909192610e2b610e256001928651610dce565b94610ddf565b9101919091610e05565b610e4a9160208201915f818403910152610de5565b90565b34610e7d57610e79610e68610e63366004610d90565b612a75565b610e70610272565b91829182610e35565b0390f35b610278565b90610e8c90610599565b5f5260205260405f2090565b90610ea2906109a6565b5f5260205260405f2090565b90610ebd610ec292600d610e82565b610e98565b90610ece5f8301610620565b91610edb60018201610753565b91610ef46003610eed60028501610753565b9301610753565b90565b34610f2c57610f28610f13610f0d3660046104b1565b90610eae565b90610f1f949294610272565b948594856107d4565b0390f35b610278565b34610f6157610f4136600461032d565b610f5d610f4c612a94565b610f54610272565b91829182610444565b0390f35b610278565b34610f9657610f92610f81610f7c366004610402565b612aa8565b610f89610272565b91829182610444565b0390f35b610278565b34610fcb57610fc7610fb6610fb1366004610d90565b612ad3565b610fbe610272565b91829182610524565b0390f35b610278565b34610ffe57610fe036600461032d565b610fe8612b5e565b610ff0610272565b80610ffa816104de565b0390f35b610278565b346110315761101b611016366004610402565b612cab565b611023610272565b8061102d816104de565b0390f35b610278565b9061104090610599565b5f5260205260405f2090565b61106561106a926110606010935f94611036565b6109c2565b6109eb565b90565b3461109e5761109a6110896110833660046104b1565b9061104c565b611091610272565b9182918261038f565b0390f35b610278565b5190565b60209181520190565b60200190565b6110d56110de6020936110e3936110cc8161033c565b9384809361066b565b95869101610349565b610354565b0190565b611115916020611104604083015f8501518482035f8601526110b6565b9201519060208184039101526110b6565b90565b90611122916110e7565b90565b60200190565b9061113f611138836110a3565b80926110a7565b9081611150602083028401946110b0565b925f915b83831061116357505050505090565b9091929394602061118561117f83856001950387528951611118565b97611125565b9301930191939290611154565b959492936111d86111ee956111ca6080956111bc6111e69660a08d01908d5f81840391015261035e565b908b820360208d015261035e565b9089820360408b015261035e565b90878203606089015261112b565b940190610517565b565b346112245761122061120b611206366004610402565b612cdc565b91611217959395610272565b95869586611192565b0390f35b610278565b346112595761123936600461032d565b611255611244612dec565b61124c610272565b91829182610444565b0390f35b610278565b90611268906109a6565b5f5260205260405f2090565b60018060a01b031690565b61128f9060086112949302610911565b611274565b90565b906112a2915461127f565b90565b6112bb906112b6600b915f9261125e565b611297565b90565b346112ee576112ea6112d96112d4366004610402565b6112a5565b6112e1610272565b91829182610444565b0390f35b610278565b346113235761130336600461032d565b61131f61130e612e02565b611316610272565b9182918261038f565b0390f35b610278565b346113595761135561134461133e3660046104b1565b90612e18565b61134c610272565b9182918261038f565b0390f35b610278565b611367816102d1565b0361136e57565b5f80fd5b9050359061137f8261135e565b565b91906040838203126113a9578061139d6113a6925f86016104a2565b93602001611372565b90565b61027c565b346113dd576113c76113c1366004611381565b90612e85565b6113cf610272565b806113d9816104de565b0390f35b610278565b346114125761140e6113fd6113f8366004610402565b612f2d565b611405610272565b91829182610444565b0390f35b610278565b61142d906114286011915f9261125e565b611297565b90565b346114605761145c61144b611446366004610402565b611417565b611453610272565b91829182610444565b0390f35b610278565b67ffffffffffffffff81116114835761147f602091610354565b0190565b610716565b9092919261149d61149882611465565b610a59565b938185526020850190828401116114b9576114b792610a91565b565b610a55565b9080601f830112156114dc578160206114d993359101611488565b90565b610a51565b9060808282031261153b576114f8815f84016104a2565b9261150682602085016104a2565b9261151483604083016103f3565b92606082013567ffffffffffffffff81116115365761153392016114be565b90565b610280565b61027c565b346115725761155c6115533660046114e1565b92919091612f4c565b611564610272565b8061156e816104de565b0390f35b610278565b346115a7576115a361159261158d366004610402565b612f72565b61159a610272565b9182918261038f565b0390f35b610278565b5190565b60209181520190565b60200190565b60209181520190565b906115dc6115d5836110a3565b80926115bf565b90816115ed602083028401946110b0565b925f915b83831061160057505050505090565b9091929394602061162261161c83856001950387528951611118565b97611125565b93019301919392906115f1565b61169991608061168861167661166460a085016116525f8801515f880190610dc1565b602087015186820360208801526110b6565b604086015185820360408701526110b6565b606085015184820360608601526110b6565b9201519060808184039101526115c8565b90565b906116a69161162f565b90565b60200190565b906116c36116bc836115ac565b80926115b0565b90816116d4602083028401946115b9565b925f915b8383106116e757505050505090565b909192939460206117096117038385600195038752895161169c565b976116a9565b93019301919392906116d8565b61172b9160208201915f8184039101526116af565b90565b3461175e5761175a611749611744366004610d90565b613107565b611751610272565b91829182611716565b0390f35b610278565b611779906117746008915f926109c2565b6109eb565b90565b346117ac576117a8611797611792366004610402565b611763565b61179f610272565b9182918261038f565b0390f35b610278565b91906040838203126117d957806117cd6117d6925f86016104a2565b936020016104a2565b90565b61027c565b3461180f5761180b6117fa6117f43660046117b1565b90613147565b611802610272565b918291826102e3565b0390f35b610278565b9061181e90610599565b5f5260205260405f2090565b9061183490610599565b5f5260205260405f2090565b60ff1690565b61185690600861185b9302610911565b611840565b90565b906118699154611846565b90565b61188561188a92611880600f935f94611814565b61182a565b61185e565b90565b346118be576118ba6118a96118a33660046117b1565b9061186c565b6118b1610272565b918291826102e3565b0390f35b610278565b91906040838203126118eb57806118df6118e8925f86016103f3565b936020016103f3565b90565b61027c565b906118fa906109a6565b5f5260205260405f2090565b5490565b5f5260205f2090565b61191c81611906565b8210156119365761192e60029161190a565b910201905f90565b6105bb565b6119469060096118f0565b9061195082611906565b81101561197c5761196091611913565b509061197960016119725f8501610753565b9301610753565b90565b5f80fd5b909161199a6119a89360408401908482035f86015261035e565b91602081840391015261035e565b90565b346119dd576119c46119be3660046118c3565b9061193b565b906119d96119d0610272565b92839283611980565b0390f35b610278565b34611a10576119fa6119f5366004610d90565b6131d4565b611a02610272565b80611a0c816104de565b0390f35b610278565b5f80fd5b5f90565b611a2f90611a29611a19565b50613214565b90565b606090565b611a4090610753565b90565b611a4b611a32565b50611a555f611a37565b90565b5f90565b611a6e90611a68611a58565b50613254565b90565b90611a7b81612aa8565b611a8481613273565b82611a97611a918361042b565b9161042b565b14158015611af6575b908115611ada575b50611abb57611ab9919033916132dc565b565b611ad6335f9182916324a1cc3360e21b835260048301610444565b0390fd5b611af09150611aea9033906132b4565b156102d1565b5f611aa8565b5033611b0a611b048361042b565b9161042b565b1415611aa0565b5f90565b611b1d611b11565b50611b286012610620565b90565b90565b611b42611b3d611b4792611b2b565b61056e565b610420565b90565b611b5390611b2e565b90565b604090611b7f611b869496959396611b7560608401985f850190610437565b6020830190610517565b0190610437565b565b919080611ba5611b9f611b9a5f611b4a565b61042b565b9161042b565b14611bfc57611bbd9082611bb76132ec565b91613334565b9182611bd1611bcb8361042b565b9161042b565b03611bdb57505050565b611bf89091925f9384936364283d7b60e01b855260048501611b56565b0390fd5b611c1f611c085f611b4a565b5f918291633250574960e11b835260048301610444565b0390fd5b634e487b7160e01b5f52601160045260245ffd5b611c40906103dc565b5f198114611c4e5760010190565b611c23565b5f1b90565b90611c645f1991611c53565b9181191691161790565b90565b90611c86611c81611c8d926109a6565b611c6e565b8254611c58565b9055565b601f602091010490565b1b90565b91906008611cba910291611cb45f1984611c9b565b92611c9b565b9181191691161790565b9190611cda611cd5611ce2936109a6565b611c6e565b908354611c9f565b9055565b611cf891611cf2611b11565b91611cc4565b565b5b818110611d06575050565b80611d135f600193611ce6565b01611cfb565b9190601f8111611d29575b505050565b611d35611d5a93610674565b906020611d4184611c91565b83019310611d62575b611d5390611c91565b0190611cfa565b5f8080611d24565b9150611d5381929050611d4a565b90611d80905f1990600802610911565b191690565b81611d8f91611d70565b906002021790565b90611da18161033c565b9067ffffffffffffffff8211611e6157611dc582611dbf8554610641565b85611d19565b602090601f8311600114611df957918091611de8935f92611ded575b5050611d85565b90555b565b90915001515f80611de1565b601f19831691611e0885610674565b925f5b818110611e4957509160029391856001969410611e2f575b50505002019055611deb565b611e3f910151601f841690611d70565b90555f8080611e23565b91936020600181928787015181550195019201611e0b565b610716565b90611e7091611d97565b565b90611e8360018060a01b0391611c53565b9181191691161790565b90565b90611ea5611ea0611eac92610599565b611e8d565b8254611e72565b9055565b90565b5f5260205f2090565b5490565b611ec981611ebc565b821015611ee357611edb600191611eb3565b910201905f90565b6105bb565b9081549168010000000000000000831015611f185782611f10916001611f1695018155611ec0565b90611cc4565b565b610716565b611f31611f2c611f3692611b2b565b61056e565b6103dc565b90565b6001611f4591016103dc565b90565b50600590565b90565b90611f5b82611f48565b811015611f69576020020190565b6105bb565b611f786040610a59565b90565b52565b5f5260205f2090565b5490565b611f9481611f87565b821015611fae57611fa6600291611f7e565b910201905f90565b6105bb565b5190565b90611fe260206001611fe894611fda5f8201611fd45f8801611fb3565b90611e66565b019201611fb3565b90611e66565b565b9190611ffb57611ff991611fb7565b565b6109d8565b9081549168010000000000000000831015612030578261202891600161202e95018155611f8b565b90611fea565b565b610716565b61203f60a0610a59565b90565b9061204c906103dc565b9052565b67ffffffffffffffff81116120685760208091020190565b610716565b9061207f61207a83612050565b610a59565b918252565b61208e6040610a59565b90565b906120c86120bf60016120a2612084565b946120b96120b15f8301610753565b5f8801611f7b565b01610753565b60208401611f7b565b565b6120d390612091565b90565b906120e082611906565b6120e98161206d565b926120f7602085019161190a565b5f915b8383106121075750505050565b60026020600192612117856120ca565b8152019201920191906120fa565b61212e906120d6565b90565b52565b61213e90516103dc565b90565b5190565b61215461215a919392936103dc565b926103dc565b916121668382026103dc565b92818404149015171561217557565b611c23565b612185906002612145565b90565b9061219b905f1990602003600802610911565b8154169055565b905f916121b96121b182610674565b928354611d85565b905555565b919290602082105f1461221757601f84116001146121e7576121e1929350611d85565b90555b5b565b509061220d6122129360016122046121fe85610674565b92611c91565b82019101611cfa565b6121a2565b6121e4565b5061224e8293612228600194610674565b61224761223485611c91565b820192601f861680612259575b50611c91565b0190611cfa565b6002021790556121e5565b61226590888603612188565b5f612241565b9290916801000000000000000082116122cb576020115f146122bc57602081105f146122a05761229a91611d85565b90555b5b565b60019160ff19166122b084610674565b5560020201905561229d565b6001915060020201905561229e565b610716565b9081546122dc81610641565b90818311612305575b8183106122f3575b50505050565b6122fc936121be565b5f8080806122ed565b6123118383838761226b565b6122e5565b5f612320916122d0565b565b905f036123345761233290612316565b565b6109d8565b5f60016123529261234c83808301612322565b01612322565b565b905f036123665761236490612339565b565b6109d8565b5b818110612377575050565b806123845f600293612354565b0161236c565b9091828110612399575b505050565b6123b76123b16123ab6123c29561217a565b9261217a565b9261190a565b91820191019061236b565b5f8080612394565b906801000000000000000081116123f357816123e86123f193611906565b9082815561238a565b565b610716565b5190565b9061240691611fb7565b565b61242d612427612417846110a3565b9361242285856123ca565b6110b0565b9161190a565b5f915b83831061243d5750505050565b60026020826124566124506001956123f8565b866123fc565b01920192019190612430565b9061246c91612408565b565b906124e4608060046124ea946124915f820161248b5f8801612134565b90611c71565b6124aa600182016124a460208801611fb3565b90611e66565b6124c3600282016124bd60408801611fb3565b90611e66565b6124dc600382016124d660608801611fb3565b90611e66565b019201612141565b90612462565b565b906124f69161246e565b565b90565b5f5260205f2090565b5490565b61251181612504565b82101561252b576125236005916124fb565b910201905f90565b6105bb565b91906125415761253f9161246e565b565b6109d8565b9081549168010000000000000000831015612576578261256e91600161257495018155612508565b90612530565b565b610716565b9490939461259b61259461258f6012610620565b611c37565b6012611c71565b6125a56012610620565b926125b13385906134b5565b6125bc8483906134cb565b6125db866125d66125cf60103390611036565b87906109c2565b611e66565b6125f0336125eb600b879061125e565b611e90565b61260e612607612602600c33906108c6565b611eb0565b8590611ee8565b6126238161261e600a87906109c2565b611e66565b61262c5f611f1d565b5b8061264861264261263d89611f48565b6103dc565b916103dc565b10156126b1576126ac906126a7612669612664600989906118f0565b611f4e565b612674898490611f51565b51906126a26126848d8690611f51565b51612699612690611f6e565b945f8601611f7b565b60208401611f7b565b612000565b611f39565b61262d565b5091955092506127ad91936127378561271c6127138761270e8a612705886126fc6126de8c9460096118f0565b956126f36126ea612035565b9a5f8c01612042565b60208a01611f7b565b60408801611f7b565b60608601611f7b565b612125565b60808301612131565b61273261272b600d3390610e82565b8890610e98565b6124ec565b6127a861279f61275161274c600e33906105a5565b6124f8565b9261279a8895612791899361278861276a8d60096118f0565b9561277f612776612035565b9b5f8d01612042565b60208b01611f7b565b60408901611f7b565b60608701611f7b565b612125565b60808401612131565b612546565b339190916127f96127e76127e17fd35bb95e09c04b219e35047ce7b7b300e3384264ef84a40456943dbc0fc17c1493610599565b936109a6565b936127f0610272565b9182918261038f565b0390a3565b9061281061280b83610a6e565b610a59565b918252565b61281e5f6127fe565b90565b612829612815565b90565b919061284261283c33849061351c565b156102d1565b6128785761286c612871916128656128769582869061285f612821565b92613591565b600c6108c6565b611eb0565b611ee8565b565b612893335f9182916324a1cc3360e21b835260048301610444565b0390fd5b6128b3906128a45f611b4a565b906128ad6132ec565b91613334565b50565b9160206128d79294936128d060408201965f830190610437565b0190610517565b565b929190809380946128e986612f2d565b6128fb6128f58361042b565b9161042b565b141580612935575b6129155750612913939450612958565b565b85906129315f928392637d8d887360e11b8452600484016128b6565b0390fd5b508061295161294b6129465f611b4a565b61042b565b9161042b565b1415612903565b91906129658383906134cb565b9190916129b061299e6129987f51c048cc4b1abd5e706cec09236de72e247e8108b9f7e608bd2f7b41451334e693610599565b936109a6565b936129a7610272565b9182918261038f565b0390a3565b906129c092916128d9565b565b606090565b60209181520190565b6129da905461060c565b90565b60010190565b90612a006129fa6129f3846108dc565b80936129c7565b926108e0565b905f5b818110612a105750505090565b909192612a30612a2a600192612a25876129d0565b610dce565b946129dd565b9101919091612a03565b90612a44916129e3565b90565b90612a67612a6092612a57610272565b93848092612a3a565b038361072a565b565b612a7290612a47565b90565b612a8c612a9191612a846129c2565b50600c6108c6565b612a69565b90565b612a9c611a58565b50612aa5612dec565b90565b612aba90612ab4611a58565b506135b7565b90565b90612ac790610599565b5f5260205260405f2090565b612adb611b11565b5080612af7612af1612aec5f611b4a565b61042b565b9161042b565b14612b1257612b0a612b0f916003612abd565b610620565b90565b612b35612b1e5f611b4a565b5f9182916322718ad960e21b835260048301610444565b0390fd5b612b4161360d565b612b49612b4b565b565b612b5c612b575f611b4a565b61365b565b565b612b66612b39565b565b338190612b7482612f2d565b612b86612b808361042b565b9161042b565b141580612bbd575b612b9f575050612b9d90612c40565b565b612bb95f928392637d8d887360e11b8452600484016128b6565b0390fd5b5080612bd9612bd3612bce5f611b4a565b61042b565b9161042b565b1415612b8e565b91906008612c00910291612bfa60018060a01b0384611c9b565b92611c9b565b9181191691161790565b9190612c20612c1b612c2893610599565b611e8d565b908354612be0565b9055565b612c3e91612c38611a58565b91612c0a565b565b612c555f612c50600b849061125e565b612c2c565b612c5e816136bc565b3390612c93612c8d7fd6a6bcd88cdc4656d5f4e14e7dfbc9bc3f2f9811f8d6b508f3bee7d999d4d41c93610599565b916109a6565b91612c9c610272565b80612ca6816104de565b0390a3565b612cb490612b68565b565b606090565b612cc7612ccc91610604565b611274565b90565b612cd99054612cbb565b90565b90612ce5611a32565b50612cee611a32565b50612cf7611a32565b50612d00612cb6565b50612d09611b11565b50612d1382612f2d565b612d25612d1f3361042b565b9161042b565b03612dcd57612d3e612d39600b849061125e565b612ccf565b612d58612d52612d4d5f611b4a565b61042b565b9161042b565b14612dae57612d6682613792565b91612d73600882906109c2565b92612d80600a83906109c2565b92612daa612da4612d9e612d96600987906118f0565b959497611a37565b95611a37565b93612125565b9190565b612dc9825f918291637e27328960e01b835260048301610524565b0390fd5b612de8335f9182916324a1cc3360e21b835260048301610444565b0390fd5b612df4611a58565b50612dff6006612ccf565b90565b612e0a611a32565b50612e156001611a37565b90565b612e3d91612e33612e3892612e2b611a32565b506010611036565b6109c2565b611a37565b90565b90612e4c60ff91611c53565b9181191691161790565b612e5f906102d1565b90565b90565b90612e7a612e75612e8192612e56565b612e62565b8254612e40565b9055565b9081612e99612e933361042b565b9161042b565b03612f0e57612ebd81612eb8612eb1600f3390611814565b859061182a565b612e65565b33919091612f09612ef7612ef17f17307eab39ab6107e8899845ad3d59bd9653f200f220920489ca2b5937696c3193610599565b93610599565b93612f00610272565b918291826102e3565b0390a3565b612f29335f9182916324a1cc3360e21b835260048301610444565b0390fd5b612f44612f4991612f3c611a58565b50600b61125e565b612ccf565b90565b91612f709391612f5e84828491611b88565b612f666132ec565b9390919293613945565b565b612f7a611a32565b50612f8f612f8a600b839061125e565b612ccf565b612fa9612fa3612f9e5f611b4a565b61042b565b9161042b565b03612fba57612fb790613792565b90565b612fd5905f918291637e27328960e01b835260048301610524565b0390fd5b606090565b67ffffffffffffffff8111612ff65760208091020190565b610716565b9061300d61300883612fde565b610a59565b918252565b61301c60a0610a59565b90565b9061309e6130956004613030613012565b9461304761303f5f8301610620565b5f8801612042565b61305f61305660018301610753565b60208801611f7b565b61307761306e60028301610753565b60408801611f7b565b61308f61308660038301610753565b60608801611f7b565b016120d6565b60808401612131565b565b6130a99061301f565b90565b906130b6826105cf565b6130bf81612ffb565b926130cd60208501916105d3565b5f915b8383106130dd5750505050565b600560206001926130ed856130a0565b8152019201920191906130d0565b613104906130ac565b90565b61311e61312391613116612fd9565b50600e6105a5565b6130fb565b90565b61313261313791610604565b611840565b90565b6131449054613126565b90565b61316c916131626131679261315a611a19565b506005611814565b61182a565b61313a565b90565b6131809061317b61360d565b613182565b565b8061319d6131976131925f611b4a565b61042b565b9161042b565b146131ad576131ab9061365b565b565b6131d06131b95f611b4a565b5f918291631e4fbdf760e01b835260048301610444565b0390fd5b6131dd9061316f565b565b90565b60e01b90565b6131fc6131f7613201926131df565b6131e2565b610284565b90565b61321163490649066131e8565b90565b61321c611a19565b508061323761323161322c613204565b610284565b91610284565b14908115613244575b5090565b61324e9150613a99565b5f613240565b61326b61327091613263611a58565b50600461125e565b612ccf565b90565b61329e6132ad6132b292613285610272565b92839160046020840163161765e160e11b815201610444565b6020820181038252038261072a565b613b01565b565b6132d9916132cf6132d4926132c7611a19565b50600f611814565b61182a565b61313a565b90565b916132ea9291600192613b16565b565b6132f4611a58565b503390565b90565b61331061330b613315926132f9565b61056e565b6103dc565b90565b9061332391036103dc565b90565b9061333191016103dc565b90565b9061333d611a58565b5061334781613c60565b928061336361335d6133585f611b4a565b61042b565b9161042b565b036134a2575b508261338561337f61337a5f611b4a565b61042b565b9161042b565b0361344e575b816133a66133a061339b5f611b4a565b61042b565b9161042b565b03613418575b6133c1826133bc6002849061125e565b611e90565b82916133ff6133f96133f37fddf252ad1be2c89b69c2b068fc378daa952ba7f163c4a11628f55a4df523b3ef95610599565b92610599565b926109a6565b92613408610272565b80613412816104de565b0390a490565b61344961342560016132fc565b61344361343460038690612abd565b9161343e83610620565b613326565b90611c71565b6133ac565b61346c61345a5f611b4a565b826134645f611b4a565b905f92613b16565b61349d61347960016132fc565b61349761348860038790612abd565b9161349283610620565b613318565b90611c71565b61338b565b6134af9084908391613c7f565b5f613369565b906134c991906134c3612821565b91613cfb565b565b906134e1906134dc600784906109c2565b611e66565b6135177ff8e1a15aba9398e019f0b49df1a4fde98ee17ae345cb5f6b5e2c27f5033e8ce79161350e610272565b91829182610524565b0390a1565b613524611a19565b508061354061353a61353585612aa8565b61042b565b9161042b565b14801561356f575b918215613555575b505090565b613568925061356390612aa8565b6132b4565b5f80613550565b5061357982611a5c565b61358b6135858361042b565b9161042b565b14613548565b916135b593916135a384828491613d29565b6135ab6132ec565b9390919293613945565b565b6135bf611a58565b506135c981613c60565b90816135e56135df6135da5f611b4a565b61042b565b9161042b565b146135ee575090565b613609905f918291637e27328960e01b835260048301610524565b0390fd5b613615612dec565b61362e6136286136236132ec565b61042b565b9161042b565b0361363557565b6136576136406132ec565b5f91829163118cdaa760e01b835260048301610444565b0390fd5b6136656006612ccf565b613670826006611e90565b906136a461369e7f8be0079c531659141344cd1fd0a4f28419497f9722a3daafe3b4186f6b6457e093610599565b91610599565b916136ad610272565b806136b7816104de565b0390a3565b6136d86136c85f611b4a565b826136d25f611b4a565b91613334565b6136f26136ec6136e75f611b4a565b61042b565b9161042b565b146136fa5750565b613715905f918291637e27328960e01b835260048301610524565b0390fd5b90565b5190565b905090565b61374a613741926020926137388161033c565b94858093613720565b93849101610349565b0190565b61375c906137629392613725565b90613725565b90565b613784929161379091613776610272565b94859260208401928361374e565b9081038252038361072a565b565b61379a611a32565b506137a4816135b7565b506137b96137b4600783906109c2565b611a37565b6137c1613e12565b6137d26137cd82613719565b61371c565b6137e46137de5f611f1d565b916103dc565b1461382c576137fa6137f583613719565b61371c565b61380c6138065f611f1d565b916103dc565b1161381f57505061381c90613e26565b90565b6138299250613765565b90565b50905090565b61383b90610571565b90565b61384790613832565b90565b6138539061058d565b90565b9050519061386382610290565b565b9060208282031261387e5761387b915f01613856565b90565b61027c565b60209181520190565b6138ab6138b46020936138b9936138a28161371c565b93848093613883565b95869101610349565b610354565b0190565b90926138f0906138e66138fd96946138dc60808601975f870190610437565b6020850190610437565b6040830190610517565b606081840391015261388c565b90565b9061391261390d83611465565b610a59565b918252565b606090565b3d5f146139375761392c3d613900565b903d5f602084013e5b565b61393f613917565b90613935565b9193843b61395b6139555f611f1d565b916103dc565b11613968575b5050505050565b6139a05f6020946139ab61398361397e8a61383e565b61384a565b9463150b7a02929698613994610272565b998a98899788966131e2565b8652600486016138bd565b03925af180915f92613a69575b50155f14613a26575060016139d357505b5f80808080613961565b6139db61391c565b906139e58261371c565b6139f76139f15f611f1d565b916103dc565b145f14613a1d57613a19905f918291633250574960e11b835260048301610444565b0390fd5b50805190602001fd5b613a3f613a39630a85bd0160e11b610284565b91610284565b03613a4a57506139c9565b613a65905f918291633250574960e11b835260048301610444565b0390fd5b613a8b91925060203d8111613a92575b613a83818361072a565b810190613865565b905f6139b8565b503d613a79565b613aa1611a19565b5080613abc613ab66380ac58cd60e01b610284565b91610284565b148015613ae0575b908115613ad0575b5090565b613ada9150613e92565b5f613acc565b5080613afb613af5635b5e139f60e01b610284565b91610284565b14613ac4565b613b1490613b0f6001613ee2565b614554565b565b919092808015613c3d575b613b3f575b505090613b38613b3d9291600461125e565b611e90565b565b613b48846135b7565b9180613b64613b5e613b595f611b4a565b61042b565b9161042b565b141580613c22575b80613c08575b613be9575091613b3891613b3d9493613b8e575b509192613b26565b818490613bcd613bc7613bc17f8c5be1e5ebec7d5bd14f71427d1e84f3dd0314c0f7b2291e5b200ac8c7c3b92595610599565b92610599565b926109a6565b92613bd6610272565b80613be0816104de565b0390a45f613b86565b613c04905f91829163a9fbf51f60e01b835260048301610444565b0390fd5b50613c1d613c17848390613147565b156102d1565b613b72565b5082613c36613c308361042b565b9161042b565b1415613b6c565b5081613c59613c53613c4e5f611b4a565b61042b565b9161042b565b1415613b21565b613c77613c7c91613c6f611a58565b50600261125e565b612ccf565b90565b613c94613c8e82848691613eee565b156102d1565b613c9d57505050565b613cb7613cb1613cac5f611b4a565b61042b565b9161042b565b145f14613cdd57613cd9825f918291637e27328960e01b835260048301610524565b0390fd5b613cf75f92839263177e802f60e01b8452600484016128b6565b0390fd5b9091613d2792613d0c838290613f8e565b613d146132ec565b92613d1e5f611b4a565b90919293613945565b565b9080613d45613d3f613d3a5f611b4a565b61042b565b9161042b565b14613de057613d5e9083613d585f611b4a565b91613334565b9081613d7a613d74613d6f5f611b4a565b61042b565b9161042b565b145f14613da057613d9c835f918291637e27328960e01b835260048301610524565b0390fd5b819291613db5613daf8361042b565b9161042b565b03613dbf57505050565b613ddc9091925f9384936364283d7b60e01b855260048501611b56565b0390fd5b613e03613dec5f611b4a565b5f918291633250574960e11b835260048301610444565b0390fd5b613e0f612815565b90565b613e1a611a32565b50613e23613e07565b90565b613e2e611a32565b50613e38816135b7565b50613e41613e12565b90613e53613e4e83613719565b61371c565b613e65613e5f5f611f1d565b916103dc565b115f14613e8357613e79613e7f92916140c2565b90613765565b5b90565b5050613e8d613e07565b613e80565b613e9a611a19565b50613eb4613eae6301ffc9a760e01b610284565b91610284565b1490565b6a636f6e736f6c652e6c6f6790565b5f8091613ed2613eb8565b602082519201905afa50565b5f90565b613eea613ede565b5090565b9190613ef8611a19565b5080613f14613f0e613f095f611b4a565b61042b565b9161042b565b14159283613f23575b50505090565b8091929350613f3a613f348461042b565b9161042b565b14908115613f7c575b50918215613f56575b50505f8080613f1d565b613f74919250613f68613f6e91613254565b9261042b565b9161042b565b145f80613f4c565b613f8891508290613147565b5f613f43565b9081613faa613fa4613f9f5f611b4a565b61042b565b9161042b565b1461400b57613fc39190613fbd5f611b4a565b91613334565b613fdd613fd7613fd25f611b4a565b61042b565b9161042b565b03613fe457565b614007613ff05f611b4a565b5f9182916339e3563760e11b835260048301610444565b0390fd5b61402e6140175f611b4a565b5f918291633250574960e11b835260048301610444565b0390fd5b369037565b9061405c614044836127fe565b926020806140528693610a6e565b9201910390614032565b565b600161406a91036103dc565b90565b90565b61408461407f6140899261406d565b61056e565b6103dc565b90565b634e487b7160e01b5f52601260045260245ffd5b6140ac6140b2916103dc565b916103dc565b9081156140bd570490565b61408c565b6140ca611a32565b506140e76140d7826142df565b6140e160016132fc565b90613326565b906140f182614037565b916140fa611b11565b5060200182015b600115614164576141146141409161405e565b916f181899199a1a9b1b9c1cb0b131b232b360811b600a82061a835361413a600a614070565b906140a0565b8061415361414d5f611f1d565b916103dc565b1461415e5790614101565b50505b90565b5050614161565b90565b61418261417d6141879261416b565b61056e565b6103dc565b90565b90565b6141a161419c6141a69261418a565b61056e565b6103dc565b90565b90565b6141c06141bb6141c5926141a9565b61056e565b6103dc565b90565b90565b6141df6141da6141e4926141c8565b61056e565b6103dc565b90565b90565b6141fe6141f9614203926141e7565b61056e565b6103dc565b90565b90565b61421d61421861422292614206565b61056e565b6103dc565b90565b90565b61423c61423761424192614225565b61056e565b6103dc565b90565b90565b61425b61425661426092614244565b61056e565b6103dc565b90565b90565b61427a61427561427f92614263565b61056e565b6103dc565b90565b90565b61429961429461429e92614282565b61056e565b6103dc565b90565b90565b6142b86142b36142bd926142a1565b61056e565b6103dc565b90565b90565b6142d76142d26142dc926142c0565b61056e565b6103dc565b90565b6142e7611b11565b506142f15f611f1d565b908061432061431a7a184f03e93ff9f4daa797ed6e38ed64bf6a1f01000000000000000061416e565b916103dc565b10156144f8575b806143486143426d04ee2d6d415b85acef81000000006141ac565b916103dc565b10156144bd575b80614369614363662386f26fc100006141ea565b916103dc565b1015614489575b806143876143816305f5e100614228565b916103dc565b1015614458575b806143a361439d612710614266565b916103dc565b1015614429575b806143be6143b860646142a4565b916103dc565b10156143fb575b6143d86143d2600a614070565b916103dc565b10156143e2575b90565b6143f6906143f060016132fc565b90613326565b6143df565b6144126144239161440c60646142a4565b906140a0565b9161441d60026142c3565b90613326565b906143c5565b6144416144529161443b612710614266565b906140a0565b9161444c6004614285565b90613326565b906143aa565b6144726144839161446c6305f5e100614228565b906140a0565b9161447d6008614247565b90613326565b9061438e565b6144a66144b7916144a0662386f26fc100006141ea565b906140a0565b916144b16010614209565b90613326565b90614370565b6144e16144f2916144db6d04ee2d6d415b85acef81000000006141ac565b906140a0565b916144ec60206141cb565b90613326565b9061434f565b61452961453a916145237a184f03e93ff9f4daa797ed6e38ed64bf6a1f01000000000000000061416e565b906140a0565b91614534604061418d565b90613326565b90614327565b634e487b7160e01b5f52605160045260245ffd5b6001036145405761456490613ec7565b56fea264697066735822122085bd9e0ba5f6e58e4134c19ef98a1154f5bf98b56c5d680e1c334c56cf6e6e5964736f6c634300081c0033","linkReferences":{}},"methodIdentifiers":{"_operatorApprovals(address,address)":"edc3bc3f","_ownerToTokenStruct(address,uint256)":"1b79e76a","_tokenApprovals(uint256)":"a7cc0136","_tokenAttributes(uint256,uint256)":"eefc002a","_tokenDescriptions(uint256)":"28e30966","_tokenImageURIs(uint256)":"e3a0ce31","_tokenOwners(uint256)":"92673ff5","_tokens(address,uint256)":"5a04e497","approve(address,uint256)":"095ea7b3","balanceOf(address)":"70a08231","burn(uint256)":"42966c68","burnToken(uint256)":"7b47ec1a","getApproved(uint256)":"081812fc","getContractsOwner()":"6288667f","getOwnersTokensAll(address)":"d7a8274d","getTokenImageURI(address,uint256)":"99c91984","getTokenOwner(uint256)":"a5cd761f","getUsersTokenInfo(uint256)":"842291d0","getUsersTokens(address)":"509044be","isApprovedForAll(address,address)":"e985e9c5","mintNFT(string,string,string,string[5],string[5])":"2e9afebd","name()":"06fdde03","owner()":"8da5cb5b","ownerOf(uint256)":"6352211e","ownerTokens(address,uint256)":"28b60031","ownerTotokenImageURI(address,uint256)":"7d6e1d15","renounceOwnership()":"715018a6","safeTransferFrom(address,address,uint256)":"42842e0e","safeTransferFrom(address,address,uint256,bytes)":"b88d4fde","setApprovalForAll(address,bool)":"a22cb465","supportsInterface(bytes4)":"01ffc9a7","symbol()":"95d89b41","tokenURI(uint256)":"c87b56dd","totalSupply()":"18160ddd","transferFrom(address,address,uint256)":"23b872dd","transferOwnership(address)":"f2fde38b","updateTokenURI(uint256,address,string)":"4a9146d0"},"id":37}