{"abi":[{"type":"constructor","inputs":[{"name":"_name","type":"string","internalType":"string"},{"name":"_symbol","type":"string","internalType":"string"},{"name":"initialOwner","type":"address","internalType":"address"}],"stateMutability":"nonpayable"},{"type":"function","name":"_operatorApprovals","inputs":[{"name":"","type":"address","internalType":"address"},{"name":"","type":"address","internalType":"address"}],"outputs":[{"name":"","type":"bool","internalType":"bool"}],"stateMutability":"view"},{"type":"function","name":"_tokenApprovals","inputs":[{"name":"","type":"uint256","internalType":"uint256"}],"outputs":[{"name":"","type":"address","internalType":"address"}],"stateMutability":"view"},{"type":"function","name":"approve","inputs":[{"name":"to","type":"address","internalType":"address"},{"name":"tokenId","type":"uint256","internalType":"uint256"}],"outputs":[],"stateMutability":"nonpayable"},{"type":"function","name":"balanceOf","inputs":[{"name":"owner","type":"address","internalType":"address"}],"outputs":[{"name":"","type":"uint256","internalType":"uint256"}],"stateMutability":"view"},{"type":"function","name":"collectionToOwner","inputs":[{"name":"","type":"uint256","internalType":"uint256"}],"outputs":[{"name":"","type":"address","internalType":"address"}],"stateMutability":"view"},{"type":"function","name":"createCollection","inputs":[],"outputs":[],"stateMutability":"nonpayable"},{"type":"function","name":"getApproved","inputs":[{"name":"tokenId","type":"uint256","internalType":"uint256"}],"outputs":[{"name":"","type":"address","internalType":"address"}],"stateMutability":"view"},{"type":"function","name":"getCollectionTokens","inputs":[{"name":"collectionId","type":"uint256","internalType":"uint256"}],"outputs":[{"name":"","type":"uint256[]","internalType":"uint256[]"}],"stateMutability":"view"},{"type":"function","name":"getContractsOwner","inputs":[],"outputs":[{"name":"","type":"address","internalType":"address"}],"stateMutability":"view"},{"type":"function","name":"getTokenOwner","inputs":[{"name":"tokenId","type":"uint256","internalType":"uint256"}],"outputs":[{"name":"","type":"address","internalType":"address"}],"stateMutability":"view"},{"type":"function","name":"getUsersToken","inputs":[{"name":"user","type":"address","internalType":"address"}],"outputs":[{"name":"","type":"uint256[]","internalType":"uint256[]"}],"stateMutability":"view"},{"type":"function","name":"isApprovedForAll","inputs":[{"name":"_tokenOwner","type":"address","internalType":"address"},{"name":"operator","type":"address","internalType":"address"}],"outputs":[{"name":"","type":"bool","internalType":"bool"}],"stateMutability":"view"},{"type":"function","name":"mintNFT","inputs":[{"name":"_tokenURI","type":"string","internalType":"string"},{"name":"collectionId","type":"uint256","internalType":"uint256"},{"name":"keys","type":"string[5]","internalType":"string[5]"},{"name":"values","type":"string[5]","internalType":"string[5]"}],"outputs":[],"stateMutability":"nonpayable"},{"type":"function","name":"name","inputs":[],"outputs":[{"name":"","type":"string","internalType":"string"}],"stateMutability":"view"},{"type":"function","name":"owner","inputs":[],"outputs":[{"name":"","type":"address","internalType":"address"}],"stateMutability":"view"},{"type":"function","name":"ownerCollections","inputs":[{"name":"","type":"address","internalType":"address"},{"name":"","type":"uint256","internalType":"uint256"}],"outputs":[{"name":"","type":"uint256","internalType":"uint256"}],"stateMutability":"view"},{"type":"function","name":"ownerOf","inputs":[{"name":"tokenId","type":"uint256","internalType":"uint256"}],"outputs":[{"name":"","type":"address","internalType":"address"}],"stateMutability":"view"},{"type":"function","name":"ownerTokens","inputs":[{"name":"","type":"address","internalType":"address"},{"name":"","type":"uint256","internalType":"uint256"}],"outputs":[{"name":"","type":"uint256","internalType":"uint256"}],"stateMutability":"view"},{"type":"function","name":"renounceOwnership","inputs":[],"outputs":[],"stateMutability":"nonpayable"},{"type":"function","name":"safeTransferFrom","inputs":[{"name":"from","type":"address","internalType":"address"},{"name":"to","type":"address","internalType":"address"},{"name":"tokenId","type":"uint256","internalType":"uint256"}],"outputs":[],"stateMutability":"nonpayable"},{"type":"function","name":"safeTransferFrom","inputs":[{"name":"from","type":"address","internalType":"address"},{"name":"to","type":"address","internalType":"address"},{"name":"tokenId","type":"uint256","internalType":"uint256"},{"name":"data","type":"bytes","internalType":"bytes"}],"outputs":[],"stateMutability":"nonpayable"},{"type":"function","name":"setApprovalForAll","inputs":[{"name":"operator","type":"address","internalType":"address"},{"name":"approved","type":"bool","internalType":"bool"}],"outputs":[],"stateMutability":"nonpayable"},{"type":"function","name":"supportsInterface","inputs":[{"name":"interfaceId","type":"bytes4","internalType":"bytes4"}],"outputs":[{"name":"","type":"bool","internalType":"bool"}],"stateMutability":"view"},{"type":"function","name":"symbol","inputs":[],"outputs":[{"name":"","type":"string","internalType":"string"}],"stateMutability":"view"},{"type":"function","name":"tokenAttributes","inputs":[{"name":"","type":"uint256","internalType":"uint256"},{"name":"","type":"string","internalType":"string"}],"outputs":[{"name":"","type":"string","internalType":"string"}],"stateMutability":"view"},{"type":"function","name":"tokenAttributesKeys","inputs":[{"name":"","type":"uint256","internalType":"uint256"},{"name":"","type":"uint256","internalType":"uint256"}],"outputs":[{"name":"","type":"string","internalType":"string"}],"stateMutability":"view"},{"type":"function","name":"tokenToCollection","inputs":[{"name":"","type":"uint256","internalType":"uint256"}],"outputs":[{"name":"","type":"uint256","internalType":"uint256"}],"stateMutability":"view"},{"type":"function","name":"tokenURI","inputs":[{"name":"tokenId","type":"uint256","internalType":"uint256"}],"outputs":[{"name":"","type":"string","internalType":"string"}],"stateMutability":"view"},{"type":"function","name":"transferFrom","inputs":[{"name":"from","type":"address","internalType":"address"},{"name":"to","type":"address","internalType":"address"},{"name":"tokenId","type":"uint256","internalType":"uint256"}],"outputs":[],"stateMutability":"nonpayable"},{"type":"function","name":"transferOwnership","inputs":[{"name":"newOwner","type":"address","internalType":"address"}],"outputs":[],"stateMutability":"nonpayable"},{"type":"function","name":"updateTokenURI","inputs":[{"name":"tokenId","type":"uint256","internalType":"uint256"},{"name":"updater","type":"address","internalType":"address"},{"name":"newTokenURI","type":"string","internalType":"string"}],"outputs":[],"stateMutability":"nonpayable"},{"type":"event","name":"Approval","inputs":[{"name":"owner","type":"address","indexed":true,"internalType":"address"},{"name":"approved","type":"address","indexed":true,"internalType":"address"},{"name":"tokenId","type":"uint256","indexed":true,"internalType":"uint256"}],"anonymous":false},{"type":"event","name":"ApprovalForAll","inputs":[{"name":"owner","type":"address","indexed":true,"internalType":"address"},{"name":"operator","type":"address","indexed":true,"internalType":"address"},{"name":"approved","type":"bool","indexed":false,"internalType":"bool"}],"anonymous":false},{"type":"event","name":"BatchMetadataUpdate","inputs":[{"name":"_fromTokenId","type":"uint256","indexed":false,"internalType":"uint256"},{"name":"_toTokenId","type":"uint256","indexed":false,"internalType":"uint256"}],"anonymous":false},{"type":"event","name":"MetadataUpdate","inputs":[{"name":"_tokenId","type":"uint256","indexed":false,"internalType":"uint256"}],"anonymous":false},{"type":"event","name":"NFTMinted","inputs":[{"name":"minter","type":"address","indexed":true,"internalType":"address"},{"name":"tokenId","type":"uint256","indexed":true,"internalType":"uint256"},{"name":"tokenURI","type":"string","indexed":false,"internalType":"string"}],"anonymous":false},{"type":"event","name":"OwnershipTransferred","inputs":[{"name":"previousOwner","type":"address","indexed":true,"internalType":"address"},{"name":"newOwner","type":"address","indexed":true,"internalType":"address"}],"anonymous":false},{"type":"event","name":"Transfer","inputs":[{"name":"from","type":"address","indexed":true,"internalType":"address"},{"name":"to","type":"address","indexed":true,"internalType":"address"},{"name":"tokenId","type":"uint256","indexed":true,"internalType":"uint256"}],"anonymous":false},{"type":"error","name":"DynamicNFT_NotElligibleToMint","inputs":[{"name":"minter","type":"address","internalType":"address"}]},{"type":"error","name":"DynamicNFT_NotElligibleToUpdate","inputs":[{"name":"minter","type":"address","internalType":"address"},{"name":"tokenId","type":"uint256","internalType":"uint256"}]},{"type":"error","name":"ERC721IncorrectOwner","inputs":[{"name":"sender","type":"address","internalType":"address"},{"name":"tokenId","type":"uint256","internalType":"uint256"},{"name":"owner","type":"address","internalType":"address"}]},{"type":"error","name":"ERC721InsufficientApproval","inputs":[{"name":"operator","type":"address","internalType":"address"},{"name":"tokenId","type":"uint256","internalType":"uint256"}]},{"type":"error","name":"ERC721InvalidApprover","inputs":[{"name":"approver","type":"address","internalType":"address"}]},{"type":"error","name":"ERC721InvalidOperator","inputs":[{"name":"operator","type":"address","internalType":"address"}]},{"type":"error","name":"ERC721InvalidOwner","inputs":[{"name":"owner","type":"address","internalType":"address"}]},{"type":"error","name":"ERC721InvalidReceiver","inputs":[{"name":"receiver","type":"address","internalType":"address"}]},{"type":"error","name":"ERC721InvalidSender","inputs":[{"name":"sender","type":"address","internalType":"address"}]},{"type":"error","name":"ERC721NonexistentToken","inputs":[{"name":"tokenId","type":"uint256","internalType":"uint256"}]},{"type":"error","name":"NotTokenOwner","inputs":[{"name":"tokenOwner","type":"address","internalType":"address"}]},{"type":"error","name":"OwnableInvalidOwner","inputs":[{"name":"owner","type":"address","internalType":"address"}]},{"type":"error","name":"OwnableUnauthorizedAccount","inputs":[{"name":"account","type":"address","internalType":"address"}]}],"bytecode":{"object":"0x608060405234801561000f575f5ffd5b5060405161454338038061454383398181016040528101906100319190610387565b808383815f9081610042919061061f565b508060019081610052919061061f565b5050505f73ffffffffffffffffffffffffffffffffffffffff168173ffffffffffffffffffffffffffffffffffffffff16036100c5575f6040517f1e4fbdf70000000000000000000000000000000000000000000000000000000081526004016100bc91906106fd565b60405180910390fd5b6100d48161011d60201b60201c565b508060135f6101000a81548173ffffffffffffffffffffffffffffffffffffffff021916908373ffffffffffffffffffffffffffffffffffffffff160217905550505050610716565b5f60075f9054906101000a900473ffffffffffffffffffffffffffffffffffffffff1690508160075f6101000a81548173ffffffffffffffffffffffffffffffffffffffff021916908373ffffffffffffffffffffffffffffffffffffffff1602179055508173ffffffffffffffffffffffffffffffffffffffff168173ffffffffffffffffffffffffffffffffffffffff167f8be0079c531659141344cd1fd0a4f28419497f9722a3daafe3b4186f6b6457e060405160405180910390a35050565b5f604051905090565b5f5ffd5b5f5ffd5b5f5ffd5b5f5ffd5b5f601f19601f8301169050919050565b7f4e487b71000000000000000000000000000000000000000000000000000000005f52604160045260245ffd5b61023f826101f9565b810181811067ffffffffffffffff8211171561025e5761025d610209565b5b80604052505050565b5f6102706101e0565b905061027c8282610236565b919050565b5f67ffffffffffffffff82111561029b5761029a610209565b5b6102a4826101f9565b9050602081019050919050565b8281835e5f83830152505050565b5f6102d16102cc84610281565b610267565b9050828152602081018484840111156102ed576102ec6101f5565b5b6102f88482856102b1565b509392505050565b5f82601f830112610314576103136101f1565b5b81516103248482602086016102bf565b91505092915050565b5f73ffffffffffffffffffffffffffffffffffffffff82169050919050565b5f6103568261032d565b9050919050565b6103668161034c565b8114610370575f5ffd5b50565b5f815190506103818161035d565b92915050565b5f5f5f6060848603121561039e5761039d6101e9565b5b5f84015167ffffffffffffffff8111156103bb576103ba6101ed565b5b6103c786828701610300565b935050602084015167ffffffffffffffff8111156103e8576103e76101ed565b5b6103f486828701610300565b925050604061040586828701610373565b9150509250925092565b5f81519050919050565b7f4e487b71000000000000000000000000000000000000000000000000000000005f52602260045260245ffd5b5f600282049050600182168061045d57607f821691505b6020821081036104705761046f610419565b5b50919050565b5f819050815f5260205f209050919050565b5f6020601f8301049050919050565b5f82821b905092915050565b5f600883026104d27fffffffffffffffffffffffffffffffffffffffffffffffffffffffffffffffff82610497565b6104dc8683610497565b95508019841693508086168417925050509392505050565b5f819050919050565b5f819050919050565b5f61052061051b610516846104f4565b6104fd565b6104f4565b9050919050565b5f819050919050565b61053983610506565b61054d61054582610527565b8484546104a3565b825550505050565b5f5f905090565b610564610555565b61056f818484610530565b505050565b5b81811015610592576105875f8261055c565b600181019050610575565b5050565b601f8211156105d7576105a881610476565b6105b184610488565b810160208510156105c0578190505b6105d46105cc85610488565b830182610574565b50505b505050565b5f82821c905092915050565b5f6105f75f19846008026105dc565b1980831691505092915050565b5f61060f83836105e8565b9150826002028217905092915050565b6106288261040f565b67ffffffffffffffff81111561064157610640610209565b5b61064b8254610446565b610656828285610596565b5f60209050601f831160018114610687575f8415610675578287015190505b61067f8582610604565b8655506106e6565b601f19841661069586610476565b5f5b828110156106bc57848901518255600182019150602085019450602081019050610697565b868310156106d957848901516106d5601f8916826105e8565b8355505b6001600288020188555050505b505050505050565b6106f78161034c565b82525050565b5f6020820190506107105f8301846106ee565b92915050565b613e20806107235f395ff3fe608060405234801561000f575f5ffd5b50600436106101e3575f3560e01c8063647f1a9c1161010d578063a7cc0136116100a0578063edc3bc3f1161006f578063edc3bc3f146105d7578063f2fde38b14610607578063f454092e14610623578063fa485ab414610653576101e3565b8063a7cc01361461052b578063b88d4fde1461055b578063c87b56dd14610577578063e985e9c5146105a7576101e3565b806395d89b41116100dc57806395d89b4114610491578063a223b426146104af578063a22cb465146104df578063a5cd761f146104fb576101e3565b8063647f1a9c1461042f57806370a0823114610439578063715018a6146104695780638da5cb5b14610473576101e3565b80632ac48ca91161018557806342842e0e1161015457806342842e0e146103a95780634a9146d0146103c55780636288667f146103e15780636352211e146103ff576101e3565b80632ac48ca9146102fd5780632bb880561461031957806338f99adf1461034957806339b5f83014610379576101e3565b8063095ea7b3116101c1578063095ea7b314610265578063195f78ae1461028157806323b872dd146102b157806328b60031146102cd576101e3565b806301ffc9a7146101e757806306fdde0314610217578063081812fc14610235575b5f5ffd5b61020160048036038101906101fc9190612aa1565b610683565b60405161020e9190612ae6565b60405180910390f35b61021f610694565b60405161022c9190612b6f565b60405180910390f35b61024f600480360381019061024a9190612bc2565b610723565b60405161025c9190612c2c565b60405180910390f35b61027f600480360381019061027a9190612c6f565b610734565b005b61029b60048036038101906102969190612bc2565b610846565b6040516102a89190612cbc565b60405180910390f35b6102cb60048036038101906102c69190612cd5565b61085b565b005b6102e760048036038101906102e29190612c6f565b61095a565b6040516102f49190612cbc565b60405180910390f35b61031760048036038101906103129190612f21565b610985565b005b610333600480360381019061032e9190612bc2565b610bfe565b6040516103409190613090565b60405180910390f35b610363600480360381019061035e9190612bc2565b610d68565b6040516103709190612c2c565b60405180910390f35b610393600480360381019061038e9190612c6f565b610d98565b6040516103a09190612cbc565b60405180910390f35b6103c360048036038101906103be9190612cd5565b610dc3565b005b6103df60048036038101906103da91906130b0565b610e2b565b005b6103e9610f78565b6040516103f69190612c2c565b60405180910390f35b61041960048036038101906104149190612bc2565b610fa0565b6040516104269190612c2c565b60405180910390f35b610437610fb1565b005b610453600480360381019061044e919061311c565b611081565b6040516104609190612cbc565b60405180910390f35b610471611137565b005b61047b61114a565b6040516104889190612c2c565b60405180910390f35b610499611172565b6040516104a69190612b6f565b60405180910390f35b6104c960048036038101906104c4919061311c565b611202565b6040516104d69190613090565b60405180910390f35b6104f960048036038101906104f49190613171565b611295565b005b61051560048036038101906105109190612bc2565b6113fb565b6040516105229190612c2c565b60405180910390f35b61054560048036038101906105409190612bc2565b611434565b6040516105529190612c2c565b60405180910390f35b6105756004803603810190610570919061324d565b611464565b005b610591600480360381019061058c9190612bc2565b611489565b60405161059e9190612b6f565b60405180910390f35b6105c160048036038101906105bc91906132cd565b61167c565b6040516105ce9190612ae6565b60405180910390f35b6105f160048036038101906105ec91906132cd565b61168f565b6040516105fe9190612ae6565b60405180910390f35b610621600480360381019061061c919061311c565b6116b9565b005b61063d6004803603810190610638919061330b565b61173d565b60405161064a9190612b6f565b60405180910390f35b61066d60048036038101906106689190613349565b6117ee565b60405161067a9190612b6f565b60405180910390f35b5f61068d826118ac565b9050919050565b60605f80546106a2906133d0565b80601f01602080910402602001604051908101604052809291908181526020018280546106ce906133d0565b80156107195780601f106106f057610100808354040283529160200191610719565b820191905f5260205f20905b8154815290600101906020018083116106fc57829003601f168201915b5050505050905090565b5f61072d8261190c565b9050919050565b5f61073e82610fa0565b905061074981611945565b8073ffffffffffffffffffffffffffffffffffffffff168373ffffffffffffffffffffffffffffffffffffffff16036107b7576040517f08c379a00000000000000000000000000000000000000000000000000000000081526004016107ae9061344a565b60405180910390fd5b8073ffffffffffffffffffffffffffffffffffffffff163373ffffffffffffffffffffffffffffffffffffffff1614806107f757506107f6813361167c565b5b610836576040517f08c379a000000000000000000000000000000000000000000000000000000000815260040161082d906134b2565b60405180910390fd5b6108418383336119de565b505050565b600b602052805f5260405f205f915090505481565b5f73ffffffffffffffffffffffffffffffffffffffff168273ffffffffffffffffffffffffffffffffffffffff16036108cb575f6040517f64a0ae920000000000000000000000000000000000000000000000000000000081526004016108c29190612c2c565b60405180910390fd5b5f6108de83836108d96119f0565b6119f7565b90508373ffffffffffffffffffffffffffffffffffffffff168173ffffffffffffffffffffffffffffffffffffffff1614610954578382826040517f64283d7b00000000000000000000000000000000000000000000000000000000815260040161094b939291906134d0565b60405180910390fd5b50505050565b600e602052815f5260405f208181548110610973575f80fd5b905f5260205f20015f91509150505481565b338073ffffffffffffffffffffffffffffffffffffffff1660135f9054906101000a900473ffffffffffffffffffffffffffffffffffffffff1673ffffffffffffffffffffffffffffffffffffffff1614158015610a0f57505f73ffffffffffffffffffffffffffffffffffffffff168173ffffffffffffffffffffffffffffffffffffffff1614155b15610a5157806040517f2ee46457000000000000000000000000000000000000000000000000000000008152600401610a489190612c2c565b60405180910390fd5b60115f815480929190610a6390613532565b91905055505f6011549050610a783382611c02565b610a828187611c1f565b33600a5f8381526020019081526020015f205f6101000a81548173ffffffffffffffffffffffffffffffffffffffff021916908373ffffffffffffffffffffffffffffffffffffffff160217905550600e5f3373ffffffffffffffffffffffffffffffffffffffff1673ffffffffffffffffffffffffffffffffffffffff1681526020019081526020015f2081908060018154018082558091505060019003905f5260205f20015f90919091909150555f8514610b505784600b5f8381526020019081526020015f20819055505b83600d5f8381526020019081526020015f20906005610b7092919061295f565b505f5f90505b6005811015610bf557838160058110610b9257610b91613579565b5b6020020151600c5f8481526020019081526020015f20868360058110610bbb57610bba613579565b5b6020020151604051610bcd91906135e0565b90815260200160405180910390209081610be79190613796565b508080600101915050610b76565b50505050505050565b60605f60115467ffffffffffffffff811115610c1d57610c1c612d2d565b5b604051908082528060200260200182016040528015610c4b5781602001602082028036833780820191505090505b5090505f5f90505f600190505b6011548111610cbb5784600b5f8381526020019081526020015f205403610ca85780838381518110610c8d57610c8c613579565b5b6020026020010181815250508180610ca490613532565b9250505b8080610cb390613532565b915050610c58565b505f8167ffffffffffffffff811115610cd757610cd6612d2d565b5b604051908082528060200260200182016040528015610d055781602001602082028036833780820191505090505b5090505f5f90505b82811015610d5c57838181518110610d2857610d27613579565b5b6020026020010151828281518110610d4357610d42613579565b5b6020026020010181815250508080600101915050610d0d565b50809350505050919050565b6008602052805f5260405f205f915054906101000a900473ffffffffffffffffffffffffffffffffffffffff1681565b6009602052815f5260405f208181548110610db1575f80fd5b905f5260205f20015f91509150505481565b610dcd3382611c79565b610e0c576040517f08c379a0000000000000000000000000000000000000000000000000000000008152600401610e03906138af565b60405180910390fd5b610e2683838360405180602001604052805f815250611d0d565b505050565b81838173ffffffffffffffffffffffffffffffffffffffff16610e4d826113fb565b73ffffffffffffffffffffffffffffffffffffffff1614158015610e9d57505f73ffffffffffffffffffffffffffffffffffffffff168273ffffffffffffffffffffffffffffffffffffffff1614155b15610ee15781816040517ffb1b10e6000000000000000000000000000000000000000000000000000000008152600401610ed89291906138cd565b60405180910390fd5b610f28610eed866113fb565b6040518060400160405280600b81526020017f746f6b656e206f776e6572000000000000000000000000000000000000000000815250611d32565b610f67846040518060400160405280600781526020017f7570646174657200000000000000000000000000000000000000000000000000815250611d32565b610f718584611c1f565b5050505050565b5f60135f9054906101000a900473ffffffffffffffffffffffffffffffffffffffff16905090565b5f610faa82611dce565b9050919050565b60125f815480929190610fc390613532565b91905055505f60125490503360085f8381526020019081526020015f205f6101000a81548173ffffffffffffffffffffffffffffffffffffffff021916908373ffffffffffffffffffffffffffffffffffffffff16021790555060095f3373ffffffffffffffffffffffffffffffffffffffff1673ffffffffffffffffffffffffffffffffffffffff1681526020019081526020015f2081908060018154018082558091505060019003905f5260205f20015f909190919091505550565b5f5f73ffffffffffffffffffffffffffffffffffffffff168273ffffffffffffffffffffffffffffffffffffffff16036110f2575f6040517f89c62b640000000000000000000000000000000000000000000000000000000081526004016110e99190612c2c565b60405180910390fd5b60035f8373ffffffffffffffffffffffffffffffffffffffff1673ffffffffffffffffffffffffffffffffffffffff1681526020019081526020015f20549050919050565b61113f611e54565b6111485f611edb565b565b5f60075f9054906101000a900473ffffffffffffffffffffffffffffffffffffffff16905090565b606060018054611181906133d0565b80601f01602080910402602001604051908101604052809291908181526020018280546111ad906133d0565b80156111f85780601f106111cf576101008083540402835291602001916111f8565b820191905f5260205f20905b8154815290600101906020018083116111db57829003601f168201915b5050505050905090565b6060600e5f8373ffffffffffffffffffffffffffffffffffffffff1673ffffffffffffffffffffffffffffffffffffffff1681526020019081526020015f2080548060200260200160405190810160405280929190818152602001828054801561128957602002820191905f5260205f20905b815481526020019060010190808311611275575b50505050509050919050565b3373ffffffffffffffffffffffffffffffffffffffff168273ffffffffffffffffffffffffffffffffffffffff1603611303576040517f08c379a00000000000000000000000000000000000000000000000000000000081526004016112fa9061344a565b60405180910390fd5b80600f5f3373ffffffffffffffffffffffffffffffffffffffff1673ffffffffffffffffffffffffffffffffffffffff1681526020019081526020015f205f8473ffffffffffffffffffffffffffffffffffffffff1673ffffffffffffffffffffffffffffffffffffffff1681526020019081526020015f205f6101000a81548160ff0219169083151502179055508173ffffffffffffffffffffffffffffffffffffffff163373ffffffffffffffffffffffffffffffffffffffff167f17307eab39ab6107e8899845ad3d59bd9653f200f220920489ca2b5937696c31836040516113ef9190612ae6565b60405180910390a35050565b5f600a5f8381526020019081526020015f205f9054906101000a900473ffffffffffffffffffffffffffffffffffffffff169050919050565b6010602052805f5260405f205f915054906101000a900473ffffffffffffffffffffffffffffffffffffffff1681565b61146f84848461085b565b61148361147a6119f0565b85858585611f9e565b50505050565b60605f60405160200161149b906139d2565b60405160208183030381529060405290505f600d5f8581526020019081526020015f20805480602002602001604051908101604052809291908181526020015f905b82821015611585578382905f5260205f200180546114fa906133d0565b80601f0160208091040260200160405190810160405280929190818152602001828054611526906133d0565b80156115715780601f1061154857610100808354040283529160200191611571565b820191905f5260205f20905b81548152906001019060200180831161155457829003601f168201915b5050505050815260200190600101906114dd565b5050505090505f5f90505b815181101561164f575f8282815181106115ad576115ac613579565b5b602002602001015190508381600c5f8981526020019081526020015f20836040516115d891906135e0565b90815260200160405180910390206040516020016115f893929190613b5a565b6040516020818303038152906040529350600183516116179190613bab565b821015611641578360405160200161162f9190613c28565b60405160208183030381529060405293505b508080600101915050611590565b50816040516020016116619190613c93565b60405160208183030381529060405291508192505050919050565b5f611687838361214a565b905092915050565b600f602052815f5260405f20602052805f5260405f205f915091509054906101000a900460ff1681565b6116c1611e54565b5f73ffffffffffffffffffffffffffffffffffffffff168173ffffffffffffffffffffffffffffffffffffffff1603611731575f6040517f1e4fbdf70000000000000000000000000000000000000000000000000000000081526004016117289190612c2c565b60405180910390fd5b61173a81611edb565b50565b600d602052815f5260405f208181548110611756575f80fd5b905f5260205f20015f9150915050805461176f906133d0565b80601f016020809104026020016040519081016040528092919081815260200182805461179b906133d0565b80156117e65780601f106117bd576101008083540402835291602001916117e6565b820191905f5260205f20905b8154815290600101906020018083116117c957829003601f168201915b505050505081565b600c602052815f5260405f20818051602081018201805184825260208301602085012081835280955050505050505f9150915050805461182d906133d0565b80601f0160208091040260200160405190810160405280929190818152602001828054611859906133d0565b80156118a45780601f1061187b576101008083540402835291602001916118a4565b820191905f5260205f20905b81548152906001019060200180831161188757829003601f168201915b505050505081565b5f634906490660e01b7bffffffffffffffffffffffffffffffffffffffffffffffffffffffff1916827bffffffffffffffffffffffffffffffffffffffffffffffffffffffff191614806119055750611904826121d8565b5b9050919050565b5f60045f8381526020019081526020015f205f9054906101000a900473ffffffffffffffffffffffffffffffffffffffff169050919050565b6119db816040516024016119599190612c2c565b6040516020818303038152906040527f2c2ecbc2000000000000000000000000000000000000000000000000000000007bffffffffffffffffffffffffffffffffffffffffffffffffffffffff19166020820180517bffffffffffffffffffffffffffffffffffffffffffffffffffffffff83818316178352505050506122b9565b50565b6119eb83838360016122d3565b505050565b5f33905090565b5f5f611a0284612492565b90505f73ffffffffffffffffffffffffffffffffffffffff168373ffffffffffffffffffffffffffffffffffffffff1614611a4357611a428184866124cb565b5b5f73ffffffffffffffffffffffffffffffffffffffff168173ffffffffffffffffffffffffffffffffffffffff1614611ace57611a825f855f5f6122d3565b600160035f8373ffffffffffffffffffffffffffffffffffffffff1673ffffffffffffffffffffffffffffffffffffffff1681526020019081526020015f205f82825403925050819055505b5f73ffffffffffffffffffffffffffffffffffffffff168573ffffffffffffffffffffffffffffffffffffffff1614611b4d57600160035f8773ffffffffffffffffffffffffffffffffffffffff1673ffffffffffffffffffffffffffffffffffffffff1681526020019081526020015f205f82825401925050819055505b8460025f8681526020019081526020015f205f6101000a81548173ffffffffffffffffffffffffffffffffffffffff021916908373ffffffffffffffffffffffffffffffffffffffff160217905550838573ffffffffffffffffffffffffffffffffffffffff168273ffffffffffffffffffffffffffffffffffffffff167fddf252ad1be2c89b69c2b068fc378daa952ba7f163c4a11628f55a4df523b3ef60405160405180910390a4809150509392505050565b611c1b828260405180602001604052805f81525061258e565b5050565b8060065f8481526020019081526020015f209081611c3d9190613796565b507ff8e1a15aba9398e019f0b49df1a4fde98ee17ae345cb5f6b5e2c27f5033e8ce782604051611c6d9190612cbc565b60405180910390a15050565b5f5f611c8483610fa0565b90508073ffffffffffffffffffffffffffffffffffffffff168473ffffffffffffffffffffffffffffffffffffffff161480611cf357508373ffffffffffffffffffffffffffffffffffffffff16611cdb84610723565b73ffffffffffffffffffffffffffffffffffffffff16145b80611d045750611d03818561167c565b5b91505092915050565b611d188484846125b1565b611d2c611d236119f0565b85858585611f9e565b50505050565b611dca8282604051602401611d48929190613cb4565b6040516020818303038152906040527f759f86bb000000000000000000000000000000000000000000000000000000007bffffffffffffffffffffffffffffffffffffffffffffffffffffffff19166020820180517bffffffffffffffffffffffffffffffffffffffffffffffffffffffff83818316178352505050506122b9565b5050565b5f5f611dd983612492565b90505f73ffffffffffffffffffffffffffffffffffffffff168173ffffffffffffffffffffffffffffffffffffffff1603611e4b57826040517f7e273289000000000000000000000000000000000000000000000000000000008152600401611e429190612cbc565b60405180910390fd5b80915050919050565b611e5c6119f0565b73ffffffffffffffffffffffffffffffffffffffff16611e7a61114a565b73ffffffffffffffffffffffffffffffffffffffff1614611ed957611e9d6119f0565b6040517f118cdaa7000000000000000000000000000000000000000000000000000000008152600401611ed09190612c2c565b60405180910390fd5b565b5f60075f9054906101000a900473ffffffffffffffffffffffffffffffffffffffff1690508160075f6101000a81548173ffffffffffffffffffffffffffffffffffffffff021916908373ffffffffffffffffffffffffffffffffffffffff1602179055508173ffffffffffffffffffffffffffffffffffffffff168173ffffffffffffffffffffffffffffffffffffffff167f8be0079c531659141344cd1fd0a4f28419497f9722a3daafe3b4186f6b6457e060405160405180910390a35050565b5f8373ffffffffffffffffffffffffffffffffffffffff163b1115612143578273ffffffffffffffffffffffffffffffffffffffff1663150b7a02868685856040518563ffffffff1660e01b8152600401611ffc9493929190613d34565b6020604051808303815f875af192505050801561203757506040513d601f19601f820116820180604052508101906120349190613d92565b60015b6120b8573d805f8114612065576040519150601f19603f3d011682016040523d82523d5f602084013e61206a565b606091505b505f8151036120b057836040517f64a0ae920000000000000000000000000000000000000000000000000000000081526004016120a79190612c2c565b60405180910390fd5b805181602001fd5b63150b7a0260e01b7bffffffffffffffffffffffffffffffffffffffffffffffffffffffff1916817bffffffffffffffffffffffffffffffffffffffffffffffffffffffff19161461214157836040517f64a0ae920000000000000000000000000000000000000000000000000000000081526004016121389190612c2c565b60405180910390fd5b505b5050505050565b5f600f5f8473ffffffffffffffffffffffffffffffffffffffff1673ffffffffffffffffffffffffffffffffffffffff1681526020019081526020015f205f8373ffffffffffffffffffffffffffffffffffffffff1673ffffffffffffffffffffffffffffffffffffffff1681526020019081526020015f205f9054906101000a900460ff16905092915050565b5f7f80ac58cd000000000000000000000000000000000000000000000000000000007bffffffffffffffffffffffffffffffffffffffffffffffffffffffff1916827bffffffffffffffffffffffffffffffffffffffffffffffffffffffff191614806122a257507f5b5e139f000000000000000000000000000000000000000000000000000000007bffffffffffffffffffffffffffffffffffffffffffffffffffffffff1916827bffffffffffffffffffffffffffffffffffffffffffffffffffffffff1916145b806122b257506122b182612719565b5b9050919050565b6122d0816122c86127826127a1565b63ffffffff16565b50565b808061230b57505f73ffffffffffffffffffffffffffffffffffffffff168273ffffffffffffffffffffffffffffffffffffffff1614155b1561243d575f61231a84611dce565b90505f73ffffffffffffffffffffffffffffffffffffffff168373ffffffffffffffffffffffffffffffffffffffff161415801561238457508273ffffffffffffffffffffffffffffffffffffffff168173ffffffffffffffffffffffffffffffffffffffff1614155b80156123975750612395818461167c565b155b156123d957826040517fa9fbf51f0000000000000000000000000000000000000000000000000000000081526004016123d09190612c2c565b60405180910390fd5b811561243b57838573ffffffffffffffffffffffffffffffffffffffff168273ffffffffffffffffffffffffffffffffffffffff167f8c5be1e5ebec7d5bd14f71427d1e84f3dd0314c0f7b2291e5b200ac8c7c3b92560405160405180910390a45b505b8360045f8581526020019081526020015f205f6101000a81548173ffffffffffffffffffffffffffffffffffffffff021916908373ffffffffffffffffffffffffffffffffffffffff16021790555050505050565b5f60025f8381526020019081526020015f205f9054906101000a900473ffffffffffffffffffffffffffffffffffffffff169050919050565b6124d68383836127ac565b612589575f73ffffffffffffffffffffffffffffffffffffffff168373ffffffffffffffffffffffffffffffffffffffff160361254a57806040517f7e2732890000000000000000000000000000000000000000000000000000000081526004016125419190612cbc565b60405180910390fd5b81816040517f177e802f0000000000000000000000000000000000000000000000000000000081526004016125809291906138cd565b60405180910390fd5b505050565b612598838361286c565b6125ac6125a36119f0565b5f858585611f9e565b505050565b5f73ffffffffffffffffffffffffffffffffffffffff168273ffffffffffffffffffffffffffffffffffffffff1603612621575f6040517f64a0ae920000000000000000000000000000000000000000000000000000000081526004016126189190612c2c565b60405180910390fd5b5f61262d83835f6119f7565b90505f73ffffffffffffffffffffffffffffffffffffffff168173ffffffffffffffffffffffffffffffffffffffff160361269f57816040517f7e2732890000000000000000000000000000000000000000000000000000000081526004016126969190612cbc565b60405180910390fd5b8373ffffffffffffffffffffffffffffffffffffffff168173ffffffffffffffffffffffffffffffffffffffff1614612713578382826040517f64283d7b00000000000000000000000000000000000000000000000000000000815260040161270a939291906134d0565b60405180910390fd5b50505050565b5f7f01ffc9a7000000000000000000000000000000000000000000000000000000007bffffffffffffffffffffffffffffffffffffffffffffffffffffffff1916827bffffffffffffffffffffffffffffffffffffffffffffffffffffffff1916149050919050565b5f6a636f6e736f6c652e6c6f6790505f5f835160208501845afa505050565b6129b6819050919050565b5f5f73ffffffffffffffffffffffffffffffffffffffff168373ffffffffffffffffffffffffffffffffffffffff161415801561286357508273ffffffffffffffffffffffffffffffffffffffff168473ffffffffffffffffffffffffffffffffffffffff1614806128245750612823848461167c565b5b8061286257508273ffffffffffffffffffffffffffffffffffffffff1661284a8361190c565b73ffffffffffffffffffffffffffffffffffffffff16145b5b90509392505050565b5f73ffffffffffffffffffffffffffffffffffffffff168273ffffffffffffffffffffffffffffffffffffffff16036128dc575f6040517f64a0ae920000000000000000000000000000000000000000000000000000000081526004016128d39190612c2c565b60405180910390fd5b5f6128e883835f6119f7565b90505f73ffffffffffffffffffffffffffffffffffffffff168173ffffffffffffffffffffffffffffffffffffffff161461295a575f6040517f73c6ac6e0000000000000000000000000000000000000000000000000000000081526004016129519190612c2c565b60405180910390fd5b505050565b828054828255905f5260205f209081019282156129a5579160200282015b828111156129a45782518290816129949190613796565b509160200191906001019061297d565b5b5090506129b291906129c0565b5090565b6129be613dbd565b565b5b808211156129df575f81816129d691906129e3565b506001016129c1565b5090565b5080546129ef906133d0565b5f825580601f10612a005750612a1d565b601f0160209004905f5260205f2090810190612a1c9190612a20565b5b50565b5b80821115612a37575f815f905550600101612a21565b5090565b5f604051905090565b5f5ffd5b5f5ffd5b5f7fffffffff0000000000000000000000000000000000000000000000000000000082169050919050565b612a8081612a4c565b8114612a8a575f5ffd5b50565b5f81359050612a9b81612a77565b92915050565b5f60208284031215612ab657612ab5612a44565b5b5f612ac384828501612a8d565b91505092915050565b5f8115159050919050565b612ae081612acc565b82525050565b5f602082019050612af95f830184612ad7565b92915050565b5f81519050919050565b5f82825260208201905092915050565b8281835e5f83830152505050565b5f601f19601f8301169050919050565b5f612b4182612aff565b612b4b8185612b09565b9350612b5b818560208601612b19565b612b6481612b27565b840191505092915050565b5f6020820190508181035f830152612b878184612b37565b905092915050565b5f819050919050565b612ba181612b8f565b8114612bab575f5ffd5b50565b5f81359050612bbc81612b98565b92915050565b5f60208284031215612bd757612bd6612a44565b5b5f612be484828501612bae565b91505092915050565b5f73ffffffffffffffffffffffffffffffffffffffff82169050919050565b5f612c1682612bed565b9050919050565b612c2681612c0c565b82525050565b5f602082019050612c3f5f830184612c1d565b92915050565b612c4e81612c0c565b8114612c58575f5ffd5b50565b5f81359050612c6981612c45565b92915050565b5f5f60408385031215612c8557612c84612a44565b5b5f612c9285828601612c5b565b9250506020612ca385828601612bae565b9150509250929050565b612cb681612b8f565b82525050565b5f602082019050612ccf5f830184612cad565b92915050565b5f5f5f60608486031215612cec57612ceb612a44565b5b5f612cf986828701612c5b565b9350506020612d0a86828701612c5b565b9250506040612d1b86828701612bae565b9150509250925092565b5f5ffd5b5f5ffd5b7f4e487b71000000000000000000000000000000000000000000000000000000005f52604160045260245ffd5b612d6382612b27565b810181811067ffffffffffffffff82111715612d8257612d81612d2d565b5b80604052505050565b5f612d94612a3b565b9050612da08282612d5a565b919050565b5f67ffffffffffffffff821115612dbf57612dbe612d2d565b5b612dc882612b27565b9050602081019050919050565b828183375f83830152505050565b5f612df5612df084612da5565b612d8b565b905082815260208101848484011115612e1157612e10612d29565b5b612e1c848285612dd5565b509392505050565b5f82601f830112612e3857612e37612d25565b5b8135612e48848260208601612de3565b91505092915050565b5f67ffffffffffffffff821115612e6b57612e6a612d2d565b5b602082029050919050565b5f5ffd5b5f612e8c612e8784612e51565b612d8b565b90508060208402830185811115612ea657612ea5612e76565b5b835b81811015612eed57803567ffffffffffffffff811115612ecb57612eca612d25565b5b808601612ed88982612e24565b85526020850194505050602081019050612ea8565b5050509392505050565b5f82601f830112612f0b57612f0a612d25565b5b6005612f18848285612e7a565b91505092915050565b5f5f5f5f60808587031215612f3957612f38612a44565b5b5f85013567ffffffffffffffff811115612f5657612f55612a48565b5b612f6287828801612e24565b9450506020612f7387828801612bae565b935050604085013567ffffffffffffffff811115612f9457612f93612a48565b5b612fa087828801612ef7565b925050606085013567ffffffffffffffff811115612fc157612fc0612a48565b5b612fcd87828801612ef7565b91505092959194509250565b5f81519050919050565b5f82825260208201905092915050565b5f819050602082019050919050565b61300b81612b8f565b82525050565b5f61301c8383613002565b60208301905092915050565b5f602082019050919050565b5f61303e82612fd9565b6130488185612fe3565b935061305383612ff3565b805f5b8381101561308357815161306a8882613011565b975061307583613028565b925050600181019050613056565b5085935050505092915050565b5f6020820190508181035f8301526130a88184613034565b905092915050565b5f5f5f606084860312156130c7576130c6612a44565b5b5f6130d486828701612bae565b93505060206130e586828701612c5b565b925050604084013567ffffffffffffffff81111561310657613105612a48565b5b61311286828701612e24565b9150509250925092565b5f6020828403121561313157613130612a44565b5b5f61313e84828501612c5b565b91505092915050565b61315081612acc565b811461315a575f5ffd5b50565b5f8135905061316b81613147565b92915050565b5f5f6040838503121561318757613186612a44565b5b5f61319485828601612c5b565b92505060206131a58582860161315d565b9150509250929050565b5f67ffffffffffffffff8211156131c9576131c8612d2d565b5b6131d282612b27565b9050602081019050919050565b5f6131f16131ec846131af565b612d8b565b90508281526020810184848401111561320d5761320c612d29565b5b613218848285612dd5565b509392505050565b5f82601f83011261323457613233612d25565b5b81356132448482602086016131df565b91505092915050565b5f5f5f5f6080858703121561326557613264612a44565b5b5f61327287828801612c5b565b945050602061328387828801612c5b565b935050604061329487828801612bae565b925050606085013567ffffffffffffffff8111156132b5576132b4612a48565b5b6132c187828801613220565b91505092959194509250565b5f5f604083850312156132e3576132e2612a44565b5b5f6132f085828601612c5b565b925050602061330185828601612c5b565b9150509250929050565b5f5f6040838503121561332157613320612a44565b5b5f61332e85828601612bae565b925050602061333f85828601612bae565b9150509250929050565b5f5f6040838503121561335f5761335e612a44565b5b5f61336c85828601612bae565b925050602083013567ffffffffffffffff81111561338d5761338c612a48565b5b61339985828601612e24565b9150509250929050565b7f4e487b71000000000000000000000000000000000000000000000000000000005f52602260045260245ffd5b5f60028204905060018216806133e757607f821691505b6020821081036133fa576133f96133a3565b5b50919050565b7f43616e277420617070726f766520796f757273656c66000000000000000000005f82015250565b5f613434601683612b09565b915061343f82613400565b602082019050919050565b5f6020820190508181035f83015261346181613428565b9050919050565b7f4e6f7420617574686f72697a65640000000000000000000000000000000000005f82015250565b5f61349c600e83612b09565b91506134a782613468565b602082019050919050565b5f6020820190508181035f8301526134c981613490565b9050919050565b5f6060820190506134e35f830186612c1d565b6134f06020830185612cad565b6134fd6040830184612c1d565b949350505050565b7f4e487b71000000000000000000000000000000000000000000000000000000005f52601160045260245ffd5b5f61353c82612b8f565b91507fffffffffffffffffffffffffffffffffffffffffffffffffffffffffffffffff820361356e5761356d613505565b5b600182019050919050565b7f4e487b71000000000000000000000000000000000000000000000000000000005f52603260045260245ffd5b5f81905092915050565b5f6135ba82612aff565b6135c481856135a6565b93506135d4818560208601612b19565b80840191505092915050565b5f6135eb82846135b0565b915081905092915050565b5f819050815f5260205f209050919050565b5f6020601f8301049050919050565b5f82821b905092915050565b5f600883026136527fffffffffffffffffffffffffffffffffffffffffffffffffffffffffffffffff82613617565b61365c8683613617565b95508019841693508086168417925050509392505050565b5f819050919050565b5f61369761369261368d84612b8f565b613674565b612b8f565b9050919050565b5f819050919050565b6136b08361367d565b6136c46136bc8261369e565b848454613623565b825550505050565b5f5f905090565b6136db6136cc565b6136e68184846136a7565b505050565b5b81811015613709576136fe5f826136d3565b6001810190506136ec565b5050565b601f82111561374e5761371f816135f6565b61372884613608565b81016020851015613737578190505b61374b61374385613608565b8301826136eb565b50505b505050565b5f82821c905092915050565b5f61376e5f1984600802613753565b1980831691505092915050565b5f613786838361375f565b9150826002028217905092915050565b61379f82612aff565b67ffffffffffffffff8111156137b8576137b7612d2d565b5b6137c282546133d0565b6137cd82828561370d565b5f60209050601f8311600181146137fe575f84156137ec578287015190505b6137f6858261377b565b86555061385d565b601f19841661380c866135f6565b5f5b828110156138335784890151825560018201915060208501945060208101905061380e565b86831015613850578489015161384c601f89168261375f565b8355505b6001600288020188555050505b505050505050565b7f4e6f7420617070726f766564206f72206f776e657200000000000000000000005f82015250565b5f613899601583612b09565b91506138a482613865565b602082019050919050565b5f6020820190508181035f8301526138c68161388d565b9050919050565b5f6040820190506138e05f830185612c1d565b6138ed6020830184612cad565b9392505050565b7f7b226e616d65223a224d79204e4654222c0000000000000000000000000000005f82015250565b5f6139286011836135a6565b9150613933826138f4565b601182019050919050565b7f226465736372697074696f6e223a22416e20617765736f6d65204e4654222c005f82015250565b5f613972601f836135a6565b915061397d8261393e565b601f82019050919050565b7f2261747472696275746573223a205b00000000000000000000000000000000005f82015250565b5f6139bc600f836135a6565b91506139c782613988565b600f82019050919050565b5f6139dc8261391c565b91506139e782613966565b91506139f2826139b0565b9150819050919050565b7f7b2274726169745f74797065223a2200000000000000000000000000000000005f82015250565b5f613a30600f836135a6565b9150613a3b826139fc565b600f82019050919050565b7f222c202276616c7565223a2200000000000000000000000000000000000000005f82015250565b5f613a7a600c836135a6565b9150613a8582613a46565b600c82019050919050565b5f8154613a9c816133d0565b613aa681866135a6565b9450600182165f8114613ac05760018114613ad557613b07565b60ff1983168652811515820286019350613b07565b613ade856135f6565b5f5b83811015613aff57815481890152600182019150602081019050613ae0565b838801955050505b50505092915050565b7f227d0000000000000000000000000000000000000000000000000000000000005f82015250565b5f613b446002836135a6565b9150613b4f82613b10565b600282019050919050565b5f613b6582866135b0565b9150613b7082613a24565b9150613b7c82856135b0565b9150613b8782613a6e565b9150613b938284613a90565b9150613b9e82613b38565b9150819050949350505050565b5f613bb582612b8f565b9150613bc083612b8f565b9250828203905081811115613bd857613bd7613505565b5b92915050565b7f2c000000000000000000000000000000000000000000000000000000000000005f82015250565b5f613c126001836135a6565b9150613c1d82613bde565b600182019050919050565b5f613c3382846135b0565b9150613c3e82613c06565b915081905092915050565b7f5d7d0000000000000000000000000000000000000000000000000000000000005f82015250565b5f613c7d6002836135a6565b9150613c8882613c49565b600282019050919050565b5f613c9e82846135b0565b9150613ca982613c71565b915081905092915050565b5f604082019050613cc75f830185612c1d565b8181036020830152613cd98184612b37565b90509392505050565b5f81519050919050565b5f82825260208201905092915050565b5f613d0682613ce2565b613d108185613cec565b9350613d20818560208601612b19565b613d2981612b27565b840191505092915050565b5f608082019050613d475f830187612c1d565b613d546020830186612c1d565b613d616040830185612cad565b8181036060830152613d738184613cfc565b905095945050505050565b5f81519050613d8c81612a77565b92915050565b5f60208284031215613da757613da6612a44565b5b5f613db484828501613d7e565b91505092915050565b7f4e487b71000000000000000000000000000000000000000000000000000000005f52605160045260245ffdfea264697066735822122049dc145dead784bbaf6a24d2b6aa06452ad3c697f7357e546433f8035b1c83a664736f6c634300081c0033","linkReferences":{}},"methodIdentifiers":{"_operatorApprovals(address,address)":"edc3bc3f","_tokenApprovals(uint256)":"a7cc0136","approve(address,uint256)":"095ea7b3","balanceOf(address)":"70a08231","collectionToOwner(uint256)":"38f99adf","createCollection()":"647f1a9c","getApproved(uint256)":"081812fc","getCollectionTokens(uint256)":"2bb88056","getContractsOwner()":"6288667f","getTokenOwner(uint256)":"a5cd761f","getUsersToken(address)":"a223b426","isApprovedForAll(address,address)":"e985e9c5","mintNFT(string,uint256,string[5],string[5])":"2ac48ca9","name()":"06fdde03","owner()":"8da5cb5b","ownerCollections(address,uint256)":"39b5f830","ownerOf(uint256)":"6352211e","ownerTokens(address,uint256)":"28b60031","renounceOwnership()":"715018a6","safeTransferFrom(address,address,uint256)":"42842e0e","safeTransferFrom(address,address,uint256,bytes)":"b88d4fde","setApprovalForAll(address,bool)":"a22cb465","supportsInterface(bytes4)":"01ffc9a7","symbol()":"95d89b41","tokenAttributes(uint256,string)":"fa485ab4","tokenAttributesKeys(uint256,uint256)":"f454092e","tokenToCollection(uint256)":"195f78ae","tokenURI(uint256)":"c87b56dd","transferFrom(address,address,uint256)":"23b872dd","transferOwnership(address)":"f2fde38b","updateTokenURI(uint256,address,string)":"4a9146d0"},"id":41}